:020000040800F2
:1000000000A00020D14A0108394B0108394B0108F2
:10001000394B0108394B0108394B01080000000039
:10002000000000000000000000000000394B010843
:10003000394B010800000000394B0108A97600087F
:10004000394B0108394B0108394B0108394B01087C
:10005000394B0108394B0108394B0108394B01086C
:10006000394B0108B9760008394B0108394B0108B2
:10007000394B0108394B010855790008394B010803
:10008000394B0108394B0108394B0108394B01083C
:10009000394B0108394B0108394B0108394B01082C
:1000A000394B0108394B0108394B0108394B01081C
:1000B000394B0108394B0108394B0108394B01080C
:1000C000394B0108394B0108394B0108394B0108FC
:1000D000394B0108795F00086D5F0008394B010852
:1000E000BF760008394B0108394B0108394B01082C
:1000F000394B0108394B0108394B0108394B0108CC
:10010000000000000000000000000000394B010862
:10011000394B0108394B0108394B0108394B0108AB
:10012000394B0108394B0108394B0108394B01089B
:10013000394B0108394B01080000000000000000A5
:10014000394B0108394B0108394B01080000000008
:10015000000000000000000000000000000000009F
:100160000000000000000000394B0108394B010875
:10017000394B0108000000000000000000000000F2
:0801800000000000394B0108EA
:1001C0002DE9F04F2DED028BCBB005F04DF918B9AC
:1001D00005F0B8FA09F006FB05F06CF9BF4BC04C0E
:1001E0001A7842F001021A70BE4A4FF47001C2F848
:1001F00088100022089209920A92226842F4803202
:1002000022600393236803F400330993089B0133AE
:100210000893099B1BB9089BB3F5A04FF2D1236843
:1002200013F4003318BF01230993099B012B40F0FD
:10023000AD8102230A93AC4B12221A60636863609B
:1002400063686360636843F480636360636823F496
:100250007C136360636843F4E8136360236843F0CE
:100260008073236023689F01FCD5636823F0030338
:100270006360636843F002036360636803F00C0328
:10028000082BFAD1039A0A9B964E5360974BF36062
:10029000636A636ADFF89482954F43F08073636208
:1002A000636943F4FC034AAD636103238DF8DA30DC
:1002B00041F6FF7325F8503D4FF09040294602F07B
:1002C0006BFA4FF6FF7329468A48ADF8D83002F032
:1002D00063FA2946404602F05FFA2946864802F052
:1002E0005BFA2946854802F057FA2946844802F00D
:1002F00053FA284603F080FB369B824AB3FBF2F3A5
:10030000814A1360814B824A4FF0000EC3F800E02F
:10031000C3F804E07F4B5A60F02286F823200722BE
:10032000C3F808E01A607C4B9A687C4B1A600FCFC8
:100330002E460FC60FCF0FC697E80F0086E80F00B6
:10034000636943F400236361636943F400236361D9
:10035000636943F400236361636943F400336361B9
:100360004FF0904310221A8520221A8540221A85C8
:100370004FF48043C8F818304FF40053C8F81830D1
:100380004FF40043C8F818307646311DA859294467
:10039000083602F001FA302EF7D1614E96E80F00D0
:1003A0000DF12C0888E80F0006F110030FCB0DF1BA
:1003B0003C0989E80F0006F120030FCB0DF14C0B2F
:1003C0008BE80F0006F130030FCB0DF15C0A8AE8D1
:1003D0000F0006F140030FCB1BAF87E80F0006F1BB
:1003E00050030FCB1FAF87E80F0006F160030FCB60
:1003F00023AF87E80F0006F170030FCB0DF19C0CC3
:100400008CE80F0006F180030FCB0DF1AC0E8EE8E7
:100410000F0006F190030FCB2FAFA03687E80F0037
:1004200096E80F0085E80F009BE80F003D4E86E838
:100430000F009AE80F0006F1100B8BE80F0099E807
:100440000F0006F1200A8AE80F0098E80F0006F175
:10045000300989E80F001BAB0FCB06F1400888E894
:100460000F001FAB0FCB06F1500888E80F0023AB3D
:100470000FCB06F1600888E80F009CE80F0006F13A
:10048000700888E80F009EE80F0006F1800C8CE8E9
:100490000F0097E80F0006F1900E8EE80F0095E828
:1004A0000F0006F1A00E8EE80F00642007F08EF812
:1004B00000214FF48C721C4816F068F9E36943F090
:1004C0000703E361A36943F4A523A361636943F4CC
:1004D000C023311D6361C4360F2529E0500E002072
:1004E0000010024000ED00E0002002400005FA0587
:1004F000C8AF010800040048000C00480010004884
:100500000014004840420F00A81F00204C1F00208C
:100510003F19010010E000E06C190020A41E00202B
:10052000F8AF0108580E002094170020000800487A
:1005300010318E422DD12F4B2F4E1D682F4BDFF8DF
:10054000C4901E602E4B04221A70002130224846AF
:10055000A6F5BE7616F01AF90021012389F80C30B1
:1005600089F8001089F8181089F8241096F8059079
:100570001C22384616F00AF9B9F10E0FC5F380189F
:1005800033461FD101228DF8CC201FE001230A93AE
:1005900078E611F8063C51F8100C11F805EC03F060
:1005A0000702DB0800EB83039200186A0EFA02FED2
:1005B00005FA02F220EA02021A621A6A4EEA0202FE
:1005C0001A62B5E709F0EF02082ADBD00022042AFC
:1005D000114619D0013203EBC20090F976010228CE
:1005E000F5D103EBC102B2F88021003218BF01221D
:1005F0000BE000BFA41E0020E81A00206C2400209D
:100600004C1000205010002000228DF8C120C5F3AE
:1006100040028DF8C220C5F340328DF8BC20C5F3EE
:10062000C0328DF8BF2015F400628DF8C48004D06C
:1006300093F81821961E724272418DF8C020C5F3BE
:1006400000428DF8C520C5F3C0028DF8BE20C5F369
:1006500000528DF8C720B3F8D620ADF8CA20B3F801
:10066000E220ADF8C820C5F3804205F0010005F096
:1006700008018DF8C320ED04B3F8E02048BFB3F8BB
:10068000DC50B3F8D460ADF8D06048BFADF8D050BE
:10069000B2F5FA7FADF8CE20C4BF0022ADF8D0206D
:1006A00093F86821B54B8DF8BD001A70B44B002249
:1006B000A3F8B8209DF8CC30934218BF022200B9AD
:1006C00001B10132AF4B03EB82034FF0000AD3F8C4
:1006D000E030A3F1020B14330593AB4BA3F10806F2
:1006E000B43304933BF8023F4FF6FF72934240F05D
:1006F000B881A64BDFF8E4E2A54F04221A7000256A
:10070000EB190FCB05EB0E061035402D86E80F00D8
:10071000F6D1A049A04B0A681E68A04BA0481D68EE
:10072000049102F480570023002F00F09382B5F962
:10073000041020F8131001330C2BF5D1510358BFCE
:10074000984B994D994EDFF898825CBF01221A7040
:10075000039B039A1B7843F004031370944B1D60B2
:10076000636943F480236361E36943F40013E36145
:10077000236B23F010032363236B43F010032363E5
:10078000736A23F00F037362736A43F004037362A6
:10079000736A23F0F0037362736A4AAF43F0400355
:1007A00073624FF4807347F8503D4FF000094FF0EB
:1007B000020B4FF0030A394630468DF8DE908DF873
:1007C000DF908DF8DCB08DF8DDA008F071FE4FF4FD
:1007D000007339463046369308F06AFE2B6823F0E2
:1007E00001032B602A68734B13402B60724B2B6103
:1007F0002B6843F001032B60C5F80890C5F80C90F6
:10080000C5F80890AB6843F40043AB602B682B60DD
:100810006B6823F0784323F400436B602B6843F04C
:1008200001032B60049B1D6810224946404615F0C9
:10083000ADFF05EA0B054FF6FF732B938DF8B1B0B2
:100840008DF8B2908DF8B3908DF8B0A085B14AA91B
:10085000012541F87C5D304608F02AFE0C2388F81B
:100860000030072388F8019088F8033088F8025098
:100870004FF4D87006F0EAFA6369504843F08053A9
:1008800043F00203636106F0E1FA636943F0005349
:1008900043F0020363614A4C204608F090FD38465D
:1008A00008F062FD4FF48072464B3C924FF4806238
:1008B00036933D92444B37932022002320463E92AC
:1008C00039464FF4005238933A933B933F9240930A
:1008D000ADF8E45008F055FD236843F001032360B0
:1008E0003A4CA36823F04053A360A36843F08053BD
:1008F000A3600A2006F06AFEA36823F08043A36089
:10090000A368A360A36843F00043A360A368002B1F
:10091000FCDBA3682E4A2D4E23F04053A360A3684E
:1009200043F00053A36091682A4B0B4043F46833B3
:100930009360E268284B134043F40053E360236B59
:10094000013D23F00F031D4325630122002408EB22
:100950000403997841B1551CEDB2DB7818F8041006
:10096000304605F094FE2A460434102CEFD1174B84
:100970009A6842F001029A6034E000BF141100202E
:10098000500E0020C8AF0108580E0020AE1F0020F6
:10099000B8B00108A41E0020101700200C1700207A
:1009A00050240020400E0020005400400004004865
:1009B000DC110020FFE0CF007A25E00000360010B7
:1009C000580402404004005044130020000400502A
:1009D00000070050E010FCFF07C0FFFD800D002065
:1009E000341300201A68D207FCD5DA689B4C22F039
:1009F0000202DA60DA6842F00202DA60DA6842F093
:100A00000102DA609A6842F004029A60B4F9E830B0
:100A1000002B00F0458107EE903ADFED916AB4F9C2
:100A2000EA30904AF8EEE77A07EE103A67EEA67AD7
:100A3000B4F9EC30CDED367A07EE903AB8EEC77ADD
:100A4000F8EEE77A002127EE267A67EEA67A117093
:100A5000384685498DED377ACDED387A08F0E6FDD8
:100A600028E19DF8C220DDB21B0A42B106EB051257
:100A70007E48D168814202D1128A012A53D0022BCA
:100A800056D19DF8BC20002A4DD0794A02EB0517BB
:100A90009DF8C72032B19DF8CC201AB92A1F032A2D
:100AA00040F2C680012BDAB247D1724BC6F8C8704B
:100AB00006EB05154FF00008FF2283F8442083F869
:100AC000452083F80080C3F80480C3F80880C3F889
:100AD0000C80C3F8408083F8468083F847806B7DA4
:100AE0002A8A8DF8DA3036A90223E86886F8BC80B5
:100AF0008DF8DB30ADF8D82001F04EFE4246A97CDF
:100B0000A86801F08DFD384605F09AFA5A4B5B4A09
:100B1000C6F8CC305A4BC6F8D030C6F8D480111F76
:100B2000384605F0CBF9059B9B457FF4DBADE0E54E
:100B3000012BAAD19DF8BD20A5E7022A41D15FFA79
:100B40008AF14FF01C0909FB01F906EB090806EBD5
:100B5000051501210023288A88F8BC10697D88F8D2
:100B6000BE3088F8C63088F8BDA0ADF8D8008DF842
:100B7000DA10E868C8F8C87036A906938DF8DB204B
:100B800001F00AFE069BA97CA8681A4601F048FD00
:100B9000384605F055FA069B3A4AC8F8CC20C8F802
:100BA000D430394A049BC8F8D02009F1100109F16A
:100BB00014021A441944384605F080F90AF1010A72
:100BC000B1E7032A31D19DF8C330304D63B196F8B7
:100BD000B98000234FF6FF720821384601F006FE67
:100BE0002B4B45F8280013E0BDF8CE1096F8B980DD
:100BF000BDF8D030B1F5FA7F11DD264AB2FBF1F233
:100C0000384692B2082101F0F1FD234B45F8280047
:100C1000C36096F8B930013386F8B93083E71F4ACC
:100C2000B2FBF1F2012192B2D7E7042A7FF47BAF45
:100C3000BDF8C830194A92FBF3F20121BDF8CA3061
:100C400092B2384601F0D2FD96F8B830013386F8FA
:100C5000B83068E7B6F904106BE500BF6C190020E6
:100C600035FA8E3C4A000020701400200004004831
:100C7000580E002098100020DD230008200F0020CF
:100C8000B524000829270008B5230008E410002037
:100C9000C524000800127A00D924000840420F0041
:100CA000B4F9EA20002A7FF4B6AEB4F9EC20002AA9
:100CB0007FF4B1AEDFF85C83B4F8F030C54DDFF8F7
:100CC00058A30593002694F8EF30C8F80060314629
:100CD0001022C8F80460C8F80860BF48039385F87C
:100CE0009C6194F8F79015F051FDBC4AA5F89D6100
:100CF0002320CAF80060CAF80460CAF808601660C9
:100D000006F064FC23AA0121752002F038F8D346CE
:100D1000F8B1B34ACAF80420B24ACAF808204322FC
:100D20008AF80020012127AA304602F028F89DF811
:100D30009C2002F07E028DF89C20002800F0FE80AE
:100D4000682A40F0FB80012285F89D211D228AF847
:100D5000002095F89D21A44B06930021042A1970C8
:100D600040F0E0849C4BA14AA14E1A60A14A5A600F
:100D7000A14ADA603268079142F0010030609A4679
:100D80004FF0010B40F2022040F2FD1E039B0A2BA4
:100D900028BF00230BFA03F111EA000C40F0CA84CB
:100DA00011EA0E0F00F0C684944B83F800C0944BF8
:100DB000C8F8003042F00302924BC8F804303260A9
:100DC00033689B0702D5D8F800309847DAF800302E
:100DD0000598DFF8488298474FF0000AD34688F814
:100DE00000B0B9F1000F04D0A9F10203022B00F208
:100DF000E9803B46012200210C208DF8D8A001F0AB
:100E00000BFE002800F0DE809DF8D830482B40F023
:100E1000D9807D4B7D4A1A607D4A5A60062388F846
:100E20000030336843F00803336094F8E4300BB1CA
:100E3000069A137094F8E5300BB1704A137094F869
:100E4000E6300BB188F8003094F8F830042B00F24B
:100E5000EB80012606FA03F212F0160F67D112F0AA
:100E6000090F00F0DF800A2006F0B0FB2BAB324602
:100E7000A021772001F0D0FD8046002857D03246CF
:100E80001E21772001F050FE06F084FB064606F096
:100E900081FB801BB0F52F6FF9D3DFF8849100261A
:100EA000B346CA46A6F160013B460222C9B277208A
:100EB0008DF8D8B08DF8D9B001F0AEFD9DF8D820EE
:100EC0009DF8D93043EA022326F809300236102E65
:100ED000E8D1B9F80E20002302F00F0602F47F4299
:100EE000A9F80E20194648103AF81000002818BF3B
:100EF0004FF00008CF0746BFC0B2434083EA10233B
:100F000008201F0448BF83F4C05301384FEA43034D
:100F1000F7D101311029E6D13243AAF80E20B8F1F9
:100F2000000F04D1C3F303339E4200F00E8495F802
:100F30009C3143F0200385F89C317AE09DF88C3099
:100F400003F07E03682B8DF88C3035D10223062107
:100F500085F89D313A46DBF80430084698479DF8FD
:100F6000DD309DF8DB209B00520002F0020203F00E
:100F7000040313439DF8D92002F001021343DAB2AF
:100F800063B1012A03D1002385F89E31E1E6022AEC
:100F900001D10123F8E7022006F027FBDBF804303B
:100FA0002BAA01210C2098479DF8AC3013F00F03B9
:100FB000F1D0042BEDD1E6E7702B04BF042385F8B4
:100FC0009D31C6E6B9F1010F7FF62FAF4FF0000952
:100FD00005E700BF500E002008240020F01100207B
:100FE0007F2D0008752D0008200C0020CD2D000855
:100FF000141F0020ED2C000890C1793D800C0020CA
:10100000752E0008312D0008100C0020012C00085E
:101010003D2B0008740C0020E0110020180C00206B
:1010200084160020012B82D09A4A136843F00403EF
:1010300013606B68012B02BF95F89C3143F04003AD
:1010400085F89C3195F89C610EB13046A4E72B7869
:1010500043F002032B70904D4FF400532B854FF457
:101060008043AB611027013F15D0AB8A9BB283F45C
:101070000053AB82AB8A9BB283F48043AB82AB8AD2
:101080009BB283F40043AB82192006F09FFA19202B
:1010900006F09CFAE7E74FF48043AB614FF4005849
:1010A0004FF400437B4FC5F81880AB613B681807CD
:1010B00009D57A4BA5F828801B689847784BC5F866
:1010C000188001221A70774B9FED778A1B689FED7D
:1010D000770A1B7B764D07EE103AB8EEC77AA7EE7B
:1010E000080A08F040FA2B8807EE103AB8EEC77AE3
:1010F00027EE000A19F078F96E4BDFED6F7A188051
:101100002B886E4D06EE903AF8EEE66A6C4B87EE51
:10111000A67A1B22FF212846DFED6A7A27EE277A7E
:1011200083ED007A684B9FED697AD3ED037A684BC3
:1011300067EE887A67EE877AC3ED007A15F026FBB2
:1011400000222A703A68634B012112F0020F1970D5
:10115000284604D06970032119700221A970510733
:1011600004D519784D1C1D700325455412F00A0F43
:1011700040F0FB82049A11688A0604D51A78551C3F
:101180001D70072585546779082F01D00E2F04D1D3
:101190001A78551C1D700B2585541A7811F0040F10
:1011A00002F101054FF00C0E00F802E0EDB218BF9D
:1011B00002321D701EBF1A70102242551A78551C3B
:1011C000EDB24FF0120E11F4806F1D7000F802E0C6
:1011D00005D094F8A0E1BEF1000F40F0D4828D0557
:1011E00004D51A78551C1D7015258554182F0DD15E
:1011F0001A7816258554551CEDB24FF0170E00F8DD
:1012000005E0D51C0232D2B21D708754CA0504D540
:101210001A78511C19701A238354982200212E48E1
:101220002D4DDFF8B8B015F0B1FA012005F0C8FE79
:101230004FF04C08002853D0012E51DC08FB06FA71
:1012400005EB0A0999F84A7017B10136F6B2F1E7D1
:10125000037990F9000001970BEB830303220092BE
:10126000D3F830313A46012105F04CFE039068B1C5
:1012700006FB08504C22394615F088FA039B45F8C6
:101280000A3001231E4489F84A30F6B2012005F0E5
:1012900075FECFE7141F002000080048100C002046
:1012A000FC1E00202C17002035FA8E3CDB0FC93FB6
:1012B00018000020501600200AE81C41F10F002001
:1012C000E02400200000C84208240020BD378635F5
:1012D00034160020F00F0020C80C0020C8AF010811
:1012E000B14B2A681A60B14BB14AB2491A60002367
:1012F0000B808B70B048B14902600F68B04AB4F8F7
:101300002A01B04DDFF83C83DFF83CE3137007F1AE
:1013100079010FFA80FC2E46D8F8002025F813C07A
:1013200002F516724EF823200133122BF4D1A64D8C
:10133000D5F800E01EF4805F08BFB4F930C1A6F80C
:1013400006C0C9370B7883B98A78CB789A420CD219
:10135000F2B1013A02EB820202EB820202F5617302
:101360004A7804329BB226F812300431B942E9D1EE
:101370001EF0080F21D094F82421062A17D8DFE8A0
:1013800012F00F007B007E00AA00C400DE00DE0029
:10139000013303EB830303EB830303F56173DFE79F
:1013A00045F2F052894B1A8004F00AFE28B9082051
:1013B00008F008FA864B874A1A602B68864A13F4AD
:1013C000804F04D01221117081498448086042F294
:1013D00001073B4203F0010103F400500FD07B4BA7
:1013E00044F620671F8020B108231370784B7C4897
:1013F000186021B10C231370754B7A49196013786A
:10140000794FDFF848A2DFF84892043B537006F0AA
:10141000C1F8764B18606379754C052B02BF754B8C
:101420004FF4C8721A80744B744A1A60744B754A30
:101430001A60754B754A1A60754B4FF47A721A80B0
:10144000002323603B602368002B40F012814FF0A3
:10145000230806F09FF804F03BFC0A2006F0B6F8DB
:10146000B8F10108F5D104F0C5FBDAF800302360CB
:10147000D9F800303B60E6E742F6F82292E7534B9A
:1014800042F6F8221A80634A0A23000190FBF3F027
:101490000023A0F5B06042F823000133122BFAD1EB
:1014A0004B4A5D4911604C4A4020137005F088FD9D
:1014B00000283FF47CAF01234FF0070E90F90000A5
:1014C000564A8DE80840564B402105F01BFD003080
:1014D00018BF01206AE73D4B42F6F8221A803C4BC8
:1014E000504A1A603C4B102240201A7005F068FDEB
:1014F00000283FF45CAF0123002790F900004A4A1E
:101500008DE888004FF4E133DEE7304B42F6F822F5
:101510001A802F4B454A1A602F4B082240201A7020
:1015200005F04EFD00283FF442AF0023012190F961
:1015300000003F4A8DE80A004FF4E133C4E7234B33
:10154000DFF81091DFF81081DFF810C1DFF810E14B
:10155000384F394842F6F82119801F4B0C21197079
:10156000062A4FF0000389F8003088F800308CF824
:10157000003077D01B238EF80030052339700370BC
:101580004FF4E137124B2D4A1A60402005F018FD48
:1015900000283FF40CAF0122002390F900008DE8F1
:1015A0000C003B46264A8FE7541F002018240020D9
:1015B000881A0020E4160020A8160020241F00200E
:1015C000BD140020A81E0020A41E0020620D0020D3
:1015D00064000020AD8B00086819002085350008E4
:1015E000A1350008953500087C240020900C0020CF
:1015F000802400201E1F0020F42400209A99993F87
:10160000F02400208FC2F53EEC2400206F12833DB1
:10161000101F0020C812002051350008AD39000805
:10162000A08601003D35000809390008253500086D
:10163000C138000855120020E31300204934000887
:10164000B137000878170020E41400205C17002050
:101650005817002056120020E1130020E01300204C
:10166000E2130020212339708EF800300270484FB9
:1016700088E70023DFF86091DFF8608123603B603A
:101680004FF00F0A4FF0050B05F084FF04F020FB2C
:101690000A2005F09BFFBBF1010BF5D104F0AAFA7B
:1016A0002368D9F800103A681944D8F8003021604E
:1016B0001344BAF1010A3B60E4D10F2293FBF2F329
:1016C00091FBF2F1334A3B601378216043F0080349
:1016D0001370314A137823F0020313702B6840F61D
:1016E00002021A420BD02D4B2D4A1A602D4B0322B9
:1016F0001A702D4BA3F800A02C4BA3F800A02C4B84
:101700009B682B602B4B01221A702B4A137863F0D5
:101710007F0313704FF4966373814BB0BDEC028B63
:10172000BDE8F08F95F89C3143F0020385F89C31B9
:10173000FFF78ABB0021012B03913FF627AB1F4B1C
:101740009DF81C201A70FFF73BBB1D4B42F2107234
:101750001A805A801B4A5A601B4A9A601B4ADA60F8
:101760001B4A1A611B4A5A615EE41A7804218154AB
:10177000511CC9B205254554D11C0232D2B2197090
:1017800006218154F6E402321A701322425526E5EE
:1017900090D00300201F0020041F002018120020FA
:1017A0007A1A002094140020961400209814002027
:1017B0006C190020400E0020500E0020800C0020EC
:1017C00060170020EB5300081F540008E153000885
:1017D0001D540008415200085C17002058170020D3
:1017E00038B5044624200D4605F060FB4D2005F079
:1017F0005DFB002C094C14BF21203E2005F056FB58
:101800002368002228469A7105F050FB236893F85C
:101810004900BDE8384005F049BB00BF482400201E
:1018200001460020DCE710B505F036FB044605F064
:1018300033FB04EB004010BD2DE9F84F4B282DED94
:10184000048B00F0148500F2F080322800F05285FD
:101850006BD8222800F043842BD8032800F0D282D2
:1018600007D8012800F0B182022800F0BB820020D6
:10187000C4E2042800F0CD820528F8D11A20FFF731
:10188000CFFFC94D0024285D013405F00FFB0B2C60
:10189000F9D1C64D0024285D013405F007FB082C62
:1018A000F9D100240020013405F000FB072CF9D108
:1018B000A3E2282800F0C28413D8242800F0B384BF
:1018C0002628D4D1BA4C0620FFF7AAFFB4F8E800C6
:1018D00005F0FEFAB4F8EA0005F0FAFAB4F8EC0004
:1018E00050E22A2800F0BD842C28C0D1B04C0C2036
:1018F000FFF796FF94F8240105F0D8FAB4F82E010A
:1019000005F0E6FAB4F82A0105F0E2FAB4F82C0181
:1019100005F0DEFA94F8250105F0C8FAB4F83001B4
:1019200005F0D6FAB4F832012CE23D2800F01A8313
:1019300044D8382800F07D8433D8342800F0F2836E
:10194000362894D19B4D9A4C95F85C00C0EBC000B2
:10195000C0B2FFF765FF04F12006603594F97E01FF
:1019600000230C33EA1812F90C2C824240F0D78481
:10197000C0B205F09BFAB4F8800105F0A9FA94F81A
:10198000820105F093FA94F8830105F08FFA94F838
:10199000850105F08BFA94F8840105F087FA00F0D0
:1019A000C1BC3A2800F0B5823B287FF460AF01202B
:1019B000FFF736FF804B1B68187810E2452800F0CF
:1019C000C38426D8402800F09C8442287FF44FAF7F
:1019D000774C1020FFF724FF607905F067FAA068C4
:1019E00005F07FFA94F8240105F060FAB4F8E800F5
:1019F00005F06EFAB4F8EA0005F06AFAB4F8EC0003
:101A000005F066FAB4F8140105F062FAB4F81601AC
:101A1000B8E1462800F08B8449287FF428AF0220E3
:101A2000FFF7FEFE624B9889ACE1732800F0C68395
:101A300000F25A816C2800F0538200F2D5806628AB
:101A400000F0188200F296804D2800F0338465285B
:101A50007FF40DAF0B20FFF7E3FE584B188805F01D
:101A600037FA574B1A68574B9A420CBF564B574B95
:101A7000188880B205F02CFA554B1868C0F3C003E3
:101A8000C0F380029B0043EA4203C0F340021343C9
:101A9000C0F3401243EAC20300F01000184305F0FF
:101AA00017FA4C4B1A884C4B19684C4B1B7802F0B8
:101AB0000100C3F3800343EA4003C2F3400043EA5A
:101AC000800302F008000343C2F3800043EA0013DE
:101AD000C2F3801043EA401301F04000034301F0D9
:101AE0008000034301F480700343C2F3001043EA13
:101AF0004023C2F3401043EA8023C2F3002043EAAC
:101B0000C02301F48050034301F40050034301F467
:101B10008040034301F40040034301F48030034359
:101B200001F40030034301F48020034301F400205A
:101B3000034301F480100343C2F3402043EA4053BF
:101B400001F000710B431B49C2F38022002011F801
:101B5000016B43EA826301250246B24280F069814B
:101B6000545C05FA04F41C421CBF05FA02F420433D
:101B70000132F2E7682800F0A78169287FF477AE88
:101B8000174D184E2878400000F0FE00FFF748FE81
:101B900000242B789C4280F0308136F8140005F048
:101BA00097F90134F5E700BFD4BB0108E0BB010899
:101BB0006C190020F00F0020241F00200C1F0020B3
:101BC000DC11002000540040F4110020F611002028
:101BD000141F002072240020001F0020041F00207A
:101BE00068190020A81E00206F2800F0C68130D898
:101BF0006D2800F084816E287FF439AE0720FFF74E
:101C00000FFEC64BC64C1888FF28A8BFFF20C0B2E5
:101C100005F04CF9206D4FF6FF75A842A8BF284685
:101C200020EAE07080B205F053F9B4F8540005F0F2
:101C30004FF9BC4B93F81931002B00F08F81A36D45
:101C40000A205843A842A8BF284620EAE07080B284
:101C500098E0702800F0B98172287FF408AEB14C8A
:101C60001620FFF7DDFDB4F82A0105F031F9B4F8CC
:101C7000D00005F02DF9B4F8D20005F029F9B4F838
:101C8000D40005F025F9B4F86C0105F021F9002025
:101C900005F00CF9002005F009F9002005F006F91F
:101CA00094F8190105F002F994F8260105F0FEF800
:101CB000002005F0FBF89C4B1B68B3F956000A2383
:101CC00090FBF3F080B205F003F994F80E0105F0F3
:101CD000EDF894F8120105F0E9F894F8110105F017
:101CE000E5F894F813017AE0A02800F08C8222D85D
:101CF000772800F048820FD8742846D075287FF4E2
:101D0000B6AD2F20FFF78CFD884C14F8010F00288A
:101D100073D005F0CBF8F8E77B2800F024837C280B
:101D20007FF4A5AD0320FFF77BFD814B187805F00C
:101D3000CFF8804B40E6F02800F058820AD8DD2822
:101D400000F00E83DE287FF492ADFFF76CFDFFF705
:101D50006AFD52E0FE2800F03C82FF287FF487AD48
:101D6000754A6F4C11880023A3830122114266D16A
:101D700001339BB25200082B92B2F7D10220FFF739
:101D80004FFDA08B05F0A4F837E0654F00264FF01B
:101D9000010ADFF8C4914FF0000B3B785B4540F33C
:101DA000E881664B0C251BF80340002305FB03F27A
:101DB00002EB090012F80920A24200F0D982013397
:101DC0001C2BF3D10BF1010BE7E70320FFF728FDF4
:101DD000002005F06BF8022005F068F8002005F0FF
:101DE00065F80AE00520FFF71BFD554D0024285D2E
:101DF000013405F05BF8052CF9D10120BDEC048B12
:101E0000BDE8F88FFFF70CFD012005F04FF800202A
:101E1000E2E70A20FFF704FD062005F059F8494DD6
:101E20000024285D013405F041F8062CF9D100208A
:101E3000A8E705F056F83B4B93F80405CFE7013BC4
:101E4000062B05D8DFE803F007090C0E101214006A
:101E50000123A38392E70223FBE74FF48073F8E7A3
:101E60008023F6E74023F4E72023F2E71023F0E78E
:101E70000823EEE71220FFF7D3FC334B284C1B88D6
:101E8000B3F5806FD4BF01260826002504F11E0794
:101E900037F9150090FBF6F0013580B205F018F81F
:101EA000032DF5D1A08C05F013F8E08C05F010F8A7
:101EB000208D264C05F00CF8208805F009F8608884
:101EC00005F006F8A0885DE71020FFF7A9FC204D7B
:101ED0000024285D013404F0E9FF102CF9D18CE7CF
:101EE0000F4C0620FFF79CFCB4F8420004F0F0FF12
:101EF000B4F8440004F0ECFF164B188842E7084C95
:101F00000620FFF78DFCA06C04F0EBFFB4F84C004A
:101F100038E70420FFF784FC002081E1D81300207B
:101F2000F00F00206C190020241F002043B101088D
:101F300068240020090000200C1F0020F10F002061
:101F4000C6BB0108CCBB010818000020E41E00201D
:101F50001A100020181F0020D0B20108A06D00F355
:101F60000F0074E6C94C0220FFF75AFC94F8740184
:101F700004F09CFF94F8730131E7C54C0B20FFF788
:101F80004FFC2368187804F091FF2368587804F018
:101F90008DFF002523682B440135187904F086FF56
:101FA000032DF7D12368D87904F080FF236898784F
:101FB00004F07CFF2368D87804F078FF2368588900
:101FC00004F086FF2368187A09E7B24C1E20FFF759
:101FD00027FC23681B78022B4FF000056CD19FED86
:101FE000AE9ADFEDAE8AB2EE048A236803EB850376
:101FF00093ED080A20EE080A18F0F6F980F30800BD
:10200000C0B204F053FF236803EB850393ED0B0A82
:1020100020EE090A18F0E8F980F30800C0B204F0D5
:1020200045FF236803EB850393ED0E0A20EE280A93
:1020300018F0DAF980F30800C0B2013504F036FF79
:10204000032DD2D1072D236829D193ED110A20EE5B
:10205000080A18F0C9F980F30800C0B204F026FF9E
:10206000236893ED120A20EE080A18F0BDF980F3F8
:102070000800C0B204F01AFF236893F84C3000EE59
:10208000103AB8EE400A18F0AFF9FF28A8BFFF20B9
:10209000C0B2013504F00AFF0A2DD3D1ADE62B44BE
:1020A000587804F003FF23682B44D87A04F0FEFE2E
:1020B00023682B44587DECE723682B44587804F0C0
:1020C000F5FE23682B44D87A04F0F0FE23682B44F5
:1020D0000135587D04F0EAFE0A2DEDD18DE6502041
:1020E000FFF79EFBDFF8AC816D4E00250C27D8F87A
:1020F000004004EB8504013594F8793007FB036355
:10210000187A04F0D3FE94F87A0004F0CFFE94F825
:102110007B0004F0CBFE94F87C0004F0C7FE142D85
:10212000E5D16AE64820FFF77BFB5A4F00250626DB
:102130003C6806FB0544013594F8CE0004F0B6FE79
:1021400094F8C90004F0B2FE94F8CA0004F0AEFEA0
:1021500094F8CB0004F0AAFE94F8CC0004F0A6FE9C
:1021600094F8CD0004F0A2FE0C2DE1D145E64644E2
:1021700028E6BAF1000F3FF440AEF0B2FFF750FB93
:102180004FF0000A05E6474C454D2078FFF748FB25
:102190000026671C4FF00C0823789E42BFF42DAE3A
:1021A000F05D002308FB03F25119525D824200F0FA
:1021B000F28001331C2BF5D10136EDE70820FFF743
:1021C0002FFB0124E0B2013404F070FE092CF9D198
:1021D00013E60820FFF724FB002004F079FE00201E
:1021E00004F076FE002004F073FE20E6294C042063
:1021F000FFF716FB2368B3F85A0004F069FE236862
:10220000B3F85800BEE50C20FFF70AFB264B186810
:1022100004F067FE254B186804F063FE244B186831
:1022200004F05FFEE9E50420FFF7FAFA174B98681F
:10223000F6E70420FFF7F4FA144C46E5134C0720A8
:10224000FFF7EEFAB4F8140104F042FEB4F81601F8
:1022500004F03EFE94F8180104F028FEB4F81A01C8
:1022600090E50120FFF7DCFA084B5879B7E5074CF9
:102270000420FFF7D5FA94F86A0104F017FE94F8E9
:102280006B0104F013FEB4F86C017BE56C190020BF
:1022900094160020241F00200000C84200007A4449
:1022A000D0B20108F00F0020ACF7FF1FB0F7FF1FFE
:1022B000B4F7FF1F3A4D3B4C287800EB4000C0B20A
:1022C000FFF7AEFA00262B789E4204F10204BFF419
:1022D00094AD14F8020C04F0E9FD14F8010C00EBC5
:1022E000800000EB800000F2EE2080B204F0F0FDF0
:1022F0000136E8E70120FFF793FA2B4B93F826010C
:102300006DE50820FFF78CFA274D0024631901348E
:1023100093F81C0104F0CAFD082CF7D16DE5302BB1
:102320007FF41FAB0834A6427FF418AB65E50D209F
:10233000FFF776FA002004F0B9FD002004F0D1FD8B
:10234000002004F0CEFDE7E51320FFF769FA174DF2
:102350000024285D013404F0A9FD0B2CF9D1EFE72E
:1023600004F09AFD49E50220FFF75AFA104BC4E544
:10237000456828460EF084FB8046BAF1000F7FF4D2
:10238000F6AE2C46631B98457FF71CAD14F8010B85
:1023900004F08CFDF6E7087A04F088FD0CE700BF36
:1023A00068190020A01A00206C190020D4BB010875
:1023B0002002002010F80A3C0133DBB20A2B00F89F
:1023C0000A3C07D910F8131C034A002322F81130E5
:1023D00000F80A3C704700BF80100020324A936D1D
:1023E000106A1944081A40F68C23984230B51346F7
:1023F00011625062D16138D9117E92F95D2091420B
:102400001ED10A1F082A1BD893F85E20182A03DC65
:10241000013283F85E2001E083F85C1093F95C20C0
:1024200091421AD193F85F00B8B1204C002082424B
:1024300008DC00200B2A0BDC23F812000132F9E73C
:102440000022E6E754F8045F23F810500130EEE76D
:1024500093F86020013283F86020012283F85F2026
:10246000002283F85D101A7630BD92F85F10C9B172
:10247000A0F2EF2440F2DA518C4208D8117E0B29E9
:1024800005DC02EB810301311176986230BD002238
:10249000074883F85F2011461346C2180433302BD7
:1024A0001161FAD130BD00BF80100020A4100020BF
:1024B00098100020024A936D01330B4493657047D6
:1024C00080100020034B03EB8000436E1B681960F3
:1024D000704700BF80100020074B03EB8000436E65
:1024E000A1F57A701A6819894FF47A73414391FB08
:1024F000F3F11160704700BF80100020F0B5046D4B
:102500008668236823F0010323608379054613F06E
:10251000020F407914BF4FF40052002213F0040F51
:1025200014BF4FF48067002710F0010F14BF04217F
:1025300000218307206820F001002060606820F4FB
:10254000405042EA00026260236823F4B05323F053
:102550000C0348BF41F008013B430B432360A368D1
:1025600095B023F44073A360684601F045FA284B08
:102570009C4239D10C9A23681F0448BF5200B2FB19
:10258000F6F306FB1322B2EB560F226828BF013385
:10259000160406D5C3F3420223F00F031B041B0CE1
:1025A00013439BB2A3816B79A87913F0020F0CBF80
:1025B00000224FF4003200F00101DC0748BF42F472
:1025C00080322B6D01B359680A435A609A6801073B
:1025D0004CBF42F0080222F008029A601A6842F0EA
:1025E00001021A6015B0F0BD0A4B9C4201D10D9A50
:1025F000C1E7094B9C4201D10E9ABCE7074B9C42B4
:102600000CBF0F9A109AB6E7596821EA0202DCE77C
:10261000003801400044004000480040004C0040A9
:1026200030B5404B93F89430012B14BF00240324A1
:10263000036AC1B923F0010303628169036A21F0CF
:10264000F30123F00A0341F0010142F001021A43B1
:1026500041EA041181610262836923F00C03836102
:102660008369836130BD04291BD123F010031B044F
:102670001B0C03628169036A120123F0A00321F499
:1026800073411B0442F010021B0C41F4807192B2A2
:102690001A4341EA043181610262836923F4406391
:1026A000DDE7082920D123F480731B041B0C03628F
:1026B000C169056A4FF2FF532B4089B243EA0222F7
:1026C00021F0F30141F0010142F4807241EA04116A
:1026D00092B2C1610262C36923F00C031B041B0C9C
:1026E000C361C369C36130BD23F480531B041B0C59
:1026F0000362C169036A23F4005321F440715B044F
:102700005B0C090543EA0232090D41F4807142F481
:10271000805241EA043192B2C1610262C36923F47A
:102720004063DBE78010002038B510F80E2C50F81D
:10273000043C044652B9012200F80E2C20F80C1C6F
:10274000997A18680222BDE8384069E730F80C2C05
:1027500020F80A1C891A89B220F8081C074A10F8C8
:102760000F0C002522F8101004F80E5C2A46997A06
:102770001868FFF755FF04F8065C38BD801000208C
:10278000044B03EB80035B6E1BB10B2801DCDB68A1
:102790001847704780100020F7B506460D46002404
:1027A00001272A8807FA04F31A421AD0AA7800935C
:1027B00002F003038DF80430EB78022B03D0032BD7
:1027C0000CBF032301238DF805306946C2F30113C2
:1027D0003046C2F381028DF806308DF8072006F0EE
:1027E00067FE0134102CDCD103B0F0BD2DE9F743B6
:1027F000DFF81C9299F895400746154600680A468E
:1028000098462946631C89F8953003F0DDFA3B8928
:10281000ADF8043001A9022378688DF806308DF8F0
:102820000730FFF7B9FF97F80AE03A6809F1980610
:1028300006EB04164946BEF10C0F36D8DFE80EF061
:10284000073535355735353582353535AC00136AA2
:10285000DFF8C09123F001031362136AD2F804C0B9
:10286000906920F4803020F073004A4540F07000F9
:1028700034D009F500694A4530D009F540694A4528
:102880002CD009F580694A4528D009F580694A4568
:1028900024D043F00303C2F804C09061C2F834802E
:1028A0001362936943F0080393613B7B1BB1536C44
:1028B00043F40043536413889BB243F00103138035
:1028C0002301BEF10C0F00F28E80DFE80EF0878C42
:1028D0008C8C958C8C8C998C8C8C9D0023F00E03A9
:1028E0002CF4407C43F003034CF4807CD3E7136A60
:1028F000DFF8209123F010031362136AD2F804C0AA
:10290000906920F0807020F4E6404A4540F4E040B1
:102910000FD009F500694A450BD043F03003C2F8E7
:1029200004C09061C2F838801362936943F4006375
:10293000BAE723F0E0032CF4406C43F030034CF48E
:10294000806CECE7136ADFF8CC9023F48073136299
:10295000106AD2F804C0D3694A4523F0730343F0E8
:10296000700310D009F500694A450CD040F440705E
:10297000C2F804C0D361C2F83C801062D36943F04E
:102980000803D36191E720F460602CF4405C40F4CC
:1029900040704CF4805CEBE7136ADFF8789023F426
:1029A00080531362106AD2F804C0D3694A4523F4F5
:1029B000E64343F4E04340F4405003D009F5006996
:1029C0004A4501D14CF4804CC2F804C0D361C2F82E
:1029D00040801062D36943F40063D2E7C81802F163
:1029E0003404C0F8984019443046A1F8A050C1F80A
:1029F0009C2003B0BDE8F083C81802F13804F0E76A
:102A0000C81802F13C04ECE7C81802F14004E8E7FA
:102A100080100020002C0140F8B5414C4000C6B2A7
:102A20004FF42045D4F85C01C4F8585187693F043D
:102A30001CD56F1E85B13D46F8E700264FF42041B6
:102A400087697F0760D50EB1C4F85811416A03F851
:102A5000011B013AD2B23AE04FF0FF33C4F85831CB
:102A600000F012FA003018BF0120F8BD476827F0C7
:102A70007F7727F4593727F47F7727F0030746F449
:102A800090353D4345604FF42045C4F8585187695F
:102A9000BF072ED54FF420458162C4F8585100215C
:102AA00087697F062AD509B1C4F8585145681D4980
:102AB00025F07F7525F4593525F47F7541EA0241EB
:102AC00025F003053143294341604FF42045C4F804
:102AD0005851D4F85C01002AAFD14FF420438169EA
:102AE000890617D50AB1C4F858312023C3610120E3
:102AF000F8BD6F1E002DAFD03D46C8E76F1E012107
:102B0000002DA9D03D46CBE74F1E01260029A3D0BA
:102B1000394695E7591E0122002B9DD00B46DEE772
:102B2000801000200024000207B502AB03F8012D3D
:102B3000012200F0BDF903B05DF804FB13B50122DA
:102B400004466B4602210C20FFF766FF10B90020F7
:102B500002B010BD9DF80030DA07F8D56B460722A9
:102B600003210C20FFF758FF0028F0D09DF8063015
:102B70009B07ECD19DF801209DF800309DF80310D3
:102B800043EA02231BB21D4A07EE903A92ED007A07
:102B9000F8EEE77A0C2067EE877A92ED017AFDEE87
:102BA000E77A17EE903A23809DF8023043EA01233A
:102BB0001BB207EE903AF8EEE77A9DF8051067EE43
:102BC000877A92ED027AFDEEE77A012217EE903ACB
:102BD00063809DF8043043EA01231BB207EE903A6C
:102BE000F8EEE77A0A2167EE877AFDEEE77A17EECC
:102BF000903AA380FFF798FFAAE700BF0C000020DF
:102C000007B500220A210C20FFF78EFF142004F0E4
:102C1000DDFC0F220A210C20FFF786FF0A2004F0BA
:102C2000D5FC01AB032210210C20FFF7F5FE0A2092
:102C300004F0CCFC9DF904209FED295ADFED295AC0
:102C4000294B06EE902AF8EEE66AF7EE007A76EE69
:102C5000C56A9DF90520B0EE677AA6EEA57A0A212D
:102C60000C2006EE902AB3EE0E6AF8EEE66A27EE26
:102C7000067A76EEC56A83ED007AB0EE677AA6EE44
:102C8000A57A9DF9062027EE067A83ED017A07EEF4
:102C9000102AB8EEC77A002237EE457AE7EE257A99
:102CA00067EE867AC3ED027AFFF73EFF0A2004F052
:102CB0008DFC0DF10303012202210C20FFF7ACFE75
:102CC0000DF10303012209210C20FFF7A5FE0122CB
:102CD0000A210C20FFF728FF012003B05DF804FB58
:102CE000000000430000803B0C00002037B50F4B74
:102CF00004465D6818786A460621A847A0B19DF889
:102D000000209DF8013043EA022323809DF8022031
:102D10009DF8033043EA022363809DF804209DF868
:102D2000053043EA0223A38003B030BDE011002048
:102D300013B50F4B04465B686A4606213B20984753
:102D4000A0B19DF800209DF8013043EA02232380C2
:102D50009DF802209DF8033043EA022363809DF82A
:102D600004209DF8053043EA0223A38002B010BD81
:102D7000E01100200A4601466820FFF7D5BE134641
:102D80000A4601466820FFF747BE13B50D4C237B6A
:102D9000B3B92369A3B11A681AB10B494869024350
:102DA0004A619A88ADF8042002228DF807209868BD
:102DB000002201A98DF80620FFF7EEFC0123237302
:102DC00002B010BDE01100200010024070B50446B2
:102DD000FFF7DBFFB4F5807F3DD0BB2C3DDC612CE1
:102DE0003DDC292C3DDC132C3DDC092C3DDC002C8A
:102DF0000CBF002506251E4C8021A3686B20984738
:102E0000642004F0E3FBA36807216820984764204E
:102E100004F0DCFBA36800216B209847642004F0D9
:102E2000D5FBA36818211B209847A36810211C20FC
:102E30009847A36829461A209847A36804211D20B3
:102E40009847A368002119209847A36812213720CA
:102E5000BDE8704018470025CDE70125CBE70225E6
:102E6000C9E70325C7E70425C5E70525C3E700BF74
:102E7000E011002008B5FFF788FF024B4FF48052A5
:102E80001A8008BD18000020074B084A98420BBF63
:102E9000938AD38A013301330BBF9BB29BB29382D7
:102EA000D3820020704700BF00540040E011002092
:102EB0004000F8B5C5B23C483C4C00684FF4204691
:102EC000266087693F041AD5771E7EB13E46F8E733
:102ED00000264FF420418769BF0759D506B121600C
:102EE00013F8011B8162013AD2B238E04FF0FF3390
:102EF0002360FFF7C9FF003018BF0120F8BD476805
:102F000027F07F7727F4593727F47F7745F08076CD
:102F100027F0030746F490363E4346604FF42046C0
:102F200026608769BF0728D581624FF42041216060
:102F3000002687693F0625D506B12160416821F04A
:102F40007F7121F4593121F47F7145EA024521F066
:102F5000030145F000750D4345604FF420452560A1
:102F6000002AB5D14FF420438169890616D502B1F4
:102F700023602023C3610120F8BD771E002EB5D049
:102F80003E46CEE74F1E01260029AFD03946D0E796
:102F90004F1E01260029A9D039469CE7591E01225F
:102FA000002BA3D00B46DFE7DC110020D811002056
:102FB00013B5144601AB022290F85C01FFF72CFD1B
:102FC0009DF804209DF80530002843EA02230CBF39
:102FD0006FF013000020238002B010BD08B590F8F8
:102FE0005C01FFF7A1FD00280CBF6FF0130000206B
:102FF00008BD70B5504E8EB04FF6FF730193757ECD
:10300000022300248DF8093003238DF80A408DF83F
:103010000B408DF808304DB10EA94FF4005341F824
:10302000343D464806F044FA012534764448454C80
:1030300003F00CFF444A536943F0005343F002038A
:103040005361204606F0BBF903A806F08DF94FF452
:1030500080723E4B09924FF4806203930A923C4B7C
:1030600004932022002320460B9203A94FF4005220
:103070000593079308930C920D93ADF8185006F042
:1030800080F9236843F001032360324CA36823F0E6
:103090004053A360A36843F08053A3600A2004F068
:1030A00095FAA36823F08043A360A368A360A36894
:1030B00043F00043A360A368002BFCDBA368264A0F
:1030C00023F04053A360A36843F00053A3609168CA
:1030D000224B0B4043F468339360E268204B13406B
:1030E00043F40053E360236B013D23F00F031D43C2
:1030F000737E25632BB1072301220521154803F0B8
:10310000C6FA144B9A6842F001029A601A68D20714
:10311000FCD5DA6822F00202DA60DA6842F00202D4
:10312000DA60DA6842F00102DA609A6842F004027A
:103130009A600EB070BD00BFE0110020000400488E
:1031400000360010580402400010024040040050B5
:10315000FA1100200004005000070050E010FCFFAE
:1031600007C0FFFD2DE9F743274C284F0225012614
:103170008DF806608DF8075063694FF0100843F42E
:103180008023ADF8048001A963613846FFF704FB92
:10319000A7F828808DF806608DF8075063694FF016
:1031A00090484FF0800943F40033ADF8049001A932
:1031B00063614FF09040FFF7EFFAA8F828908DF880
:1031C00006608DF807506369ADF8045043F480231E
:1031D000636101A93846FFF7DFFA3D858DF8066087
:1031E0008DF8075063694FF4004743F40033ADF89E
:1031F000047001A963614046FFF7CEFAA8F8287071
:1032000003B0BDE8F08300BF001002400004004896
:10321000034B0022DA611A621A835A629A6270477B
:10322000E011002070B5714E96F825408EB03CB983
:1032300096F8273023B996F82930002B00F0D38078
:103240004FF6FF730193022300258DF80930032305
:103250008DF80A508DF80B508DF8083054B10EA936
:103260004FF4805341F8343D614806F021F90124C0
:1032700086F8245096F827305BB10EA94FF48043AE
:1032800041F8343D5A4806F013F986F826400134D7
:10329000E4B296F829305BB10EA94FF4004341F82F
:1032A000343D534806F004F986F828400134E4B26E
:1032B0005048514D03F0CAFD504A4F48536943F0FE
:1032C000005343F00203536106F079F803A806F0B7
:1032D0004BF84B4B03934B4B0493022C4FF00003E2
:1032E00034BF1A46802208924FF4807209924FF43C
:1032F00080620A92202228460B9203A94FF40052C2
:10330000059307930C920D93ADF8184006F039F829
:103310002B6843F001032B603B4DAB6823F0405317
:10332000AB60AB6843F08053AB600A2004F04EF909
:10333000AB6823F08043AB60AB68AB60AB6843F035
:103340000043AB60AB68002BFCDBAB682F4A23F07B
:103350004053AB60AB6843F00053AB6091682C4BBB
:103360000B4043F468339360EA682A4B134043F4FC
:103370000053EB602B6B013C23F00F031C4396F8CA
:1033800025302C632BB10723012203211E4803F0B3
:103390007EF996F827302BB10723012204211A4821
:1033A00003F075F996F829302BB107230122052186
:1033B000154803F06CF9144B9A6842F001029A60C8
:1033C0001A68D207FCD5DA6822F00202DA60DA68FD
:1033D00042F00202DA60DA6842F00102DA609A68CA
:1033E00042F004029A600EB070BD00BFE0110020F0
:1033F00000040048003600101C0402400010024087
:10340000400500500C12002000050050000700503D
:10341000E010FCFF07C0FFFD0A4B1A68117840F26C
:1034200057134B435843537800F54730C3EB0333EE
:1034300000F2CE30B0FBF3F09378B0FBF3F080B243
:10344000704700BF1812002003789942BDBF034B9C
:1034500003EB410188880020704700BF181200204C
:10346000F0B5244D00210B462C4641F221064218AE
:103470002A44127F83EA02230922013A07D013F477
:10348000004F4FEA430318BF73409BB2F5E7013189
:103490001929ECD100F1190100F11A052144254444
:1034A0000E7F297F01EB062189B2994220D194F841
:1034B0003D6001384FF4AF65D7B2B74202F1010267
:1034C00013DA00EB4201C9B263180131214493F8C9
:1034D0001CE00B7F03EB0E239BB26B4304EB47070F
:1034E0001B1303F54873BB80E6E7012384F83E30E5
:1034F000F0BD00BF1812002003788B420BD9074B98
:103500001A78074B89000B44186C02B1400800F58B
:10351000777080B270470020704700BF9A1E00206D
:103520001812002007299BBF034B03EB81010020E9
:10353000086F80B2704700BF18120020034B03EBE6
:103540004101B1F89000C008704700BF1812002078
:103550000A4BDFED0B7A03EB810191ED2C7AB8EE8B
:10356000477AF6EE046AE7EE267A82B0FCEEE77A56
:10357000CDED017ABDF8040002B0704718120020AA
:1035800000005C44024B03EB4101B1F8F8007047C6
:1035900018120020014B33F81100704780100020F2
:1035A000014B33F811007047801000202DE9F047DF
:1035B000774C94F81D3104EB43032DED048BB3F8E5
:1035C0002C81B4F93A310A2B1CBF002384F838311E
:1035D00094F838311FFA88F8A4F83481002B61D1AF
:1035E0006C4BC4F83C31C4F844314FF07E53C4F8FE
:1035F0004831694BC4F84C31684BC4F8503140F243
:10360000DC53674DC4F88C31DFED668A664AC4F836
:1036100040211023A4F88A311823A4F8883105F139
:10362000140605F10C07B0EE689AB6EE008AD5EDE7
:10363000037A67EEA87AA946F5EEC07AF1EE10FAA1
:103640004CBF77EEC87A77EE887A043517EE900A89
:103650000FF0C6F8D9ED007A67EE897AC6E908015D
:10366000F5EEC07AF1EE10FA4CBF77EEC87A77EE3D
:10367000887A17EE900A0FF0B3F8AF42E6E902013C
:10368000D5D10A23A4F83A31A8F2DC531B04C4F8BC
:10369000A831C4F8B431C4F8AC31C4F8B83101234E
:1036A00084F83831414BD4F88CA1B4F98A515A6A64
:1036B000D4F8A871D4F8B461D4F8B8C1C4F8B8612A
:1036C000A8EB0A0000FA05F1186AC4F8A8114FEA3D
:1036D000E1794A4300FB0922A0FB010111445A6C25
:1036E000D3F84080D4F8ACE1C4F8AC714FEAE67985
:1036F000724308FB0922A8FB06899144DA6A9E6A94
:10370000C4F8B0E1B0EB080061EB09017A434FEA7D
:10371000E77906FB0922A6FB07671744DA6CC4F8B1
:10372000BCC13618986C4FEAEC790CFB02F24F41A1
:1037300000FB0922A0FB0C01301A1144764667EB0E
:103740000101F7171E6B5B6BB4F988210EFB03F3C5
:1037500006FB0733A6FB0E671F44801979410EF064
:1037600091FF6A1E01239340C4F8B401C01841EBD5
:10377000E3712A460EF086FF10EB0A0080B2FFF7D5
:103780004BFEBDEC048BA4F8C001BDE8F08700BF80
:103790001812002056157D396350FABF0CE0743FB3
:1037A000541300200000804B5615FD3950130020A3
:1037B00070B5304C054603F0EDFED4F8C431C4F8C2
:1037C000C401C31AB3F5FA5F82BF002384F8C8317D
:1037D00084F8C93194F8C83123B9A12D04BF01225E
:1037E00084F8C92194F8C9212AB1E218EDB2013355
:1037F000157784F8C83194F8C85194F8CA31AB42AF
:103800000AD194F8CB31052B07D0062B08D0002322
:1038100084F8C93184F8C83170BD0020FFF720FE5C
:10382000637F1E2BF3D100200246013DC3B2AB42A1
:1038300018DA234409211B7FDBB2013911F0FF01A3
:103840000DD082EA0306F60745BF83F01803C3F3E1
:1038500047035B0843F08003C2F34702EDE7013002
:103860001A46E3E725442B7F9A42D0D10320FFF785
:10387000F7FDCCE71812002010B5044603F08AFECD
:103880000E4BD3F8CC21C3F8CC01821A41F2883117
:103890008A4284BF002283F8D02193F8D0210F2AD6
:1038A00003EB0201E4B214BF0132012281F8D141DD
:1038B00014BF83F8D02183F8E12110BD1812002035
:1038C00010B5044603F066FE0E4BD3F8E421C3F8AE
:1038D000E401821A41F288318A4284BF002283F8CF
:1038E000E82193F8E821142A03EB020114BF013206
:1038F000012281F8E94114BF83F8E82183F8FE2111
:1039000010BD00BF1812002010B5044603F042FE9F
:10391000254BD3F80022C3F80002821AB2F57A6F61
:1039200084BF002283F8042293F804224AB9A82C09
:1039300038D183F80522A3F80622991881F80942A4
:1039400006E0022A02D183F80842F6E7242AF4D9D5
:1039500093F8081201320231D2B249008A4283F848
:10396000042216DAB3F80602E4B280EA0420082240
:1039700041F2210110F4004F02F1FF324FEA400002
:1039800018BF484012F0FF0280B2F3D1A3F806023C
:1039900010BD01318A4201BF002283F804220122B6
:1039A00083F8052210BD00BF1812002010B5044690
:1039B00003F0F0FD0F4BD3F8302240F6AC51821AE1
:1039C0008A42C4BF002283F8342293F83422991823
:1039D00081F835421AB90F2C0BD1C3F830020132ED
:1039E000D2B2192A83F834220CBF0122002283F8B4
:1039F0004E2210BD18120020A64B5A6802F00C028D
:103A0000042A2DE9F04100F0B580082A00F0B680C4
:103A1000A1490160002A40F0AF8059689F4FC1F36F
:103A200003117E5C0168F6B221FA06F444605D6819
:103A3000C5F3022517F805E024FA0EFEC0F808E0E9
:103A40005D68C5F3C2257D5DEDB2EC40C460D3F87E
:103A50002C804FEA181808F00F0C07EB4C0C18F0EC
:103A6000100FBCF810C01FFA8CFC00F09C80BCF159
:103A7000000F00F09880B2FBFCFCC0F810C0D3F837
:103A80002CC04FEA5C2C0CF00F0807EB48071CF029
:103A9000100F3F8ABFB200F08880002F00F08580B1
:103AA000B2FBF7F747611F6BFF065ABF7A4F87617A
:103AB00081611F6BBF065ABF774FC761C1611F6B22
:103AC0007F065ABF744F076201621F6BFF056ED5F8
:103AD0008A426CD1AE426AD1570047621F6BFF0425
:103AE00067D58A4265D1AE4263D1570087621F6BAA
:103AF000BF0560D58A425ED1AE425CD15700C76235
:103B00001F6B7F0559D58A4257D1AE4255D1570018
:103B100047641F6B3F0552D58A4250D1AE424ED109
:103B2000570087641F6BBF044BD58A4249D1AE4210
:103B300047D14A00C2641A6B920744D104631A6BDE
:103B400012F4403F56D1C0F834E01A6B12F4402F03
:103B50006AD1C0F838E01A6B12F4401F7FD1C0F868
:103B60003CE01A6B12F4400F40F09C80C0F840E03B
:103B7000BDE8F081484A026000224EE75A68596861
:103B8000C90349BFD96A4649434C01F00F01C2F34A
:103B9000834248BF013102F1020248BFB4FBF1F198
:103BA0004A43026039E7016169E741617BE74462AA
:103BB00094E784629BE7C462A2E74464A9E7846453
:103BC000B0E78464B7E71A6B02F00302012A01D15F
:103BD0000163B4E71A6B02F00302022A03D14FF427
:103BE00000420263ABE71A6B02F00302032AA6D17C
:103BF000294AF6E71A6B02F44032B2F5803F01D150
:103C00004163A2E71A6B02F44032B2F5003F03D1E0
:103C10004FF40042426398E71A6B02F44032B2F567
:103C2000403F92D11C4AF5E71A6B02F44022B2F5EC
:103C3000802F01D181638EE71A6B02F44022B2F526
:103C4000002F03D14FF40042826384E71A6B02F421
:103C50004022B2F5402F7FF47EAF0F4AF4E71A6B93
:103C600002F44012B2F5801F01D1C16379E71A6BEB
:103C700002F44012B2F5001F03D14FF40042C263B8
:103C80006FE71A6B02F44012B2F5401F7FF469AF80
:103C9000014AF4E70010024000127A001A000020E6
:103CA00000093D001A6B02F44002B2F5800F02D108
:103CB0000164BDE8F0811A6B02F44002B2F5000F16
:103CC00004D14FF400430364BDE8F0811B6B03F49F
:103CD0004003B3F5400FF7D1004BF4E700127A0030
:103CE00038B52DED048B4A4C0368C4F850328388F4
:103CF000A4F85432023A0D46062A05D8DFE802F04D
:103D0000545B6269747A8100B4F850320B80B4F865
:103D100052326B80B4F85432AB803E4B93F8303063
:103D2000002B3ED1B5F9003094ED990AD4ED967A86
:103D300009EE103AB5F9023008EE103AB8EEC88A2A
:103D4000B5F90430B8EEC99A28EE000A08EE903AA8
:103D5000A7EE890AF8EEE88AD4ED9C7AA7EEA80AC5
:103D600016F042FB94ED9A0AD4ED977A288028EE5B
:103D7000000AA9EE270AD4ED9D7AA8EEA70A16F04C
:103D800033FB94ED9B0AD4ED987A688028EE000A04
:103D9000A9EE270AD4ED9E7AA8EEA70A16F024FB16
:103DA000A880BDEC048B38BDB4F852320B80B4F857
:103DB00050325B42ADE7B4F850325B420B80B4F84E
:103DC0005232F6E7B4F852325B420B80B4F850320C
:103DD0009FE7B4F850325B420B80B4F852326B80EC
:103DE000B4F854325B4297E7B4F852320B80B4F81F
:103DF0005032F4E7B4F850320B80B4F852325B42E0
:103E0000EDE7B4F852325B420B80B4F85032F6E77B
:103E1000181200201A00002010B53B4CFFF7C6FB1B
:103E200094F87C32032BB4F8C03128D10A2B1EDD64
:103E30000023282084F87C3203F0C8FBFFF7B6FB90
:103E4000B4F83401FFF7E8FA2268D37890FBF3F076
:103E500001300828A8BF0820537980B213FB00F373
:103E6000A4F87E32137913FB00F0A4F8800294F8D2
:103E70007C32012B1CD00DD3022B35D010BD0A2B68
:103E8000F5DC032384F87C320023A4F87E32A4F806
:103E90008032ECE7B4F87E22B4F8C0319A4231DDCA
:103EA000012384F87C320820BDE8104003F018B9E3
:103EB000164A137823F002031370B4F8C021B4F843
:103EC0008032934204DD022384F87C32072016E01E
:103ED000B4F87E3201339A4210DD002384F87C323C
:103EE000BDE8104004F02EBCB4F88032B4F8C02114
:103EF00001339A42EADD012384F87C32082003F082
:103F0000EFF8EDE710BD00BF18120020041F0020DD
:103F10002DE9F0413D4CB4F88232322B054650D1A8
:103F20003B4B1B681A88A4F884225A889B88A4F803
:103F300088320388A4F88A324388A4F88622A4F839
:103F40008C32334AD2F800E09046324A00231946B8
:103F500002F10C06B4F8820236F913C026F81310E9
:103F6000322808BF42F823109F00D0596044D05136
:103F70002EF813100133032BECD1B4F88232012B4D
:103F800019D14FF0000284F8A222234A0C201370AA
:103F900003F0A6F8D8F80030B4F884221A80B4F8F8
:103FA00086225A80B4F888229A80B4F88A322B800C
:103FB000B4F88C326B80B4F88232013BA4F88232C0
:103FC00001E0002BBDD1154B1A78E2B1002018702A
:103FD0000F4B1A68D4F89032322193FBF1F313801F
:103FE000D4F8943293FBF1F35380D4F8983293FBD6
:103FF000F1F30B4909885B1A938028806880BDE83B
:10400000F04105F087BCBDE8F08100BF1812002028
:1040100008170020A81400201A1F00201B1F0020D2
:10402000180000202DE9F04F654B664D1A68664B6D
:1040300089B042F20101186804930A400190059288
:10404000624B07D095F8A3221A70614A92F8321099
:1040500082F831101E7826B15D4B93F8316086F0FE
:1040600001060F2385F8A4325A4B95F8A5821B78D8
:104070000093594B594F1B6802930323B8FBF3F38A
:1040800003EB4303A8EB0303DBB25B00DFF85C91B7
:104090000693002407F1260BA7F2A62A07F16E0269
:1040A000009B9C4215DB95F8A4320F2B4C4B69D139
:1040B0004C4A1268520165D4049AD96812689A6011
:1040C000521AC82A02D9012283F8212009B0BDE87A
:1040D000F08F6300BEB137F914000299898A80B26B
:1040E000814203D80299C98A814220D25BF8241008
:1040F0000198814209D939F803000599E9B929F8ED
:1041000003000134CCE73046E7E7E0B207920393BF
:1041100004F04EFD032C039B079AEEDC95F8A4E215
:104120000121A1402EEA010185F8A412E5E70199D9
:1041300001F516714BF82410DFE706236343D1180D
:1041400003939AF85CC3069B4FEA440EC852BCF135
:10415000000F06D1B8F1020F11D94FF001038AF810
:104160005C33039BD05A4B8818448B8818441E4BF1
:1041700000B223F80E00032390FBF3F080B229F87D
:104180000E00BEE7124A194D012182F8321082F862
:104190003110049A99681268DA60521A59688A4292
:1041A00084BF002283F821200024009B9C428DDAEA
:1041B000E0B204F0FDFC25F814000134F5E700BF7F
:1041C000A41E002018120020781700200E1F0020C7
:1041D0001A00002068190020A8160020BE14002034
:1041E000E4160020001F002076150020A81E0020E5
:1041F00038B5294D2DED048BD5ED008ADFED279ADA
:1042000038EEA90A044605F0AEF9B0EE408AB0EEE9
:10421000680A05F0A8F995ED019AF0EE408A39EEAA
:10422000290A05F0A0F9F0EE409AB0EE490A05F02F
:104230009AF994ED017A94ED006AD4ED027A68EE71
:10424000870A60EE276A60EE800A27EEE80AE6EE4B
:10425000290AA7EE080AE6EE880A16F06DF9DFEDE6
:10426000107A9FED107A20EE270AC0EE077A9FEDB4
:104270000E0A77EE807AB2EE040A87EE800A16F014
:10428000B3F8BDEC048B03B2002BBCBF00F5B470D7
:1042900003B2184638BD00BF90150020DB0FC93FA0
:1042A0000000E144DB0F4940000000002DE9F04F21
:1042B00085B080460193944B1B889D0740F1F180A7
:1042C000924C0E9BDE89B4F900309B1B03F2F31570
:1042D00040F2E6308542254698BF83EAE374B5F99B
:1042E0000200A0EB060098BFA4EBE37400F2F31504
:1042F00040F2E63388BF4FF4FA749D4200F2CE805C
:1043000080EAE073A3EBE073A342B8BF2346052025
:10431000C3F5FA7393FBF0F30A20643B584398F813
:104320001C30DB104343642093FBF0F3034423EA87
:10433000E3735BB2764E774CF068009323689FED91
:10434000767A1B1A07EE903AF8EE677A2368F360E4
:1043500067EE877A714BC6ED027A01F1040A06F125
:1043600010090025022D1AF801EB4FEA450740F02D
:104370009A80B6F920400EF11B0E04FB0EF4641176
:1043800008EB050B0420D95F91FBF0F16448641A37
:104390009BF8011004FB01FE295C01FB0EF14FF0BC
:1043A000640E91FBFEF1C91100EE101A98F851103D
:1043B00061B1043000EB8500B8EEC00A03930292AD
:1043C00003F080F9039B029ABDEEC00A5449554898
:1043D00011F805E05449D6ED027A09884C439BF860
:1043E0000B10E4124C430EFB04F1642491FBF4F433
:1043F00050F825102144B1F5001F4C4CA8BF4FF4D4
:104400000011A142F5EEC07AB8BF2146F1EE10FAD4
:1044100040F825104FEA613117DD0C30DC5FC05FDA
:10442000D9ED006A201A07EE900AF8EEE77AB1EEAD
:10443000087A77EEE67AB2EE046A67EE877A87EE5C
:10444000867A77EE267AC9ED007A3948DC5BC45368
:104450009BF81540F9EC017ADFED366A07EE104A59
:10446000B8EEC77A063027EE277A07EE90EAF8EE24
:10447000E77A013567EE277A032D87EEA67ABDEE3F
:10448000C77A17EE104AA1EBA41110EE104A21448E
:10449000C1537FF467AF05B0BDE8F08F4FF4FA73F6
:1044A00035E7642346E7244931F915C051424FEA04
:1044B0004C00884203DB90420146A8BF11461F48CA
:1044C000C05F091A019830F9150008440E4909889F
:1044D000CC0713D40EF11B040CFB04F489074FEA3C
:1044E00024147FF54DAF98F81210414300984143D2
:1044F000642091FBF0F104EB211441E798F80840A7
:10450000444324113CE700BF72240020A81E002071
:1045100090150020781700206F12833A14100020A5
:10452000B4150020C4150020AC1F00200000E0FFDF
:10453000D01500200000C842AC1500203210002029
:104540002DE9F04F2DED028B87B000250493B44B7D
:104550000292B3F91C80B3F91E200391B8F1000F49
:10456000B8BFC8F10008002AB8BF52429045B8BF92
:104570009046B8F5FA7F03F134030646A8BF4FF41E
:10458000FA78AB460095A9462C460193A54B1A88AC
:1045900012F003013AD0A44B33F91400029B4000FF
:1045A0005B4298424FEA440703DB029B8342A8BF69
:1045B00003469E483F5E0498DB1B30F914701F448D
:1045C000337A64207B4393FBF0F3307F6FF0040970
:1045D00009FB00F94B4504DB00EB80099945A8BFB6
:1045E0009946934850F824303B4442F21077BB423E
:1045F000A8BF3B468F4FBB42B8BF3B4640F8243074
:10460000B07C43431B130129009335D0864B33F90B
:1046100014B0894B33F9141081EAE173A3EBE17311
:10462000B3F5206F00F3EA8030190BEB8B03407871
:104630001B0193FBF0F3042091FBF0F15B1A01994D
:10464000019851F824100B44B3F57A5FA8BF4FF4DA
:104650007A537A498B42ACBF40F8243040F824109A
:10466000774B311953F824507D2395FBF3F3CD7A22
:104670005D43402395FBF3F5910740F1C48000981A
:10468000C8F5FA7308FB05F708FB0BF209FB0322D8
:104690004FF4FA7100FB037392FBF1F293FBF1F715
:1046A000654B684833F91430042193FBF1F1235C26
:1046B00013FB01F36FF04F0193FBF1F396F85110E8
:1046C00013444FEA440A08EE103A41B12C38B8EED0
:1046D000C80A00EB840002F0F5FFBDEEC08A5A4A1A
:1046E000554B3AF902103AF903302AF80230042007
:1046F00002EB000E02F10C0C591AA30091FBF0F131
:1047000005935EF824005CF824304EF8241003442E
:104710000B4496F850104CF8240000EE103A49B1C2
:1047200002F11400A3001844B8EEC00A02F0CAFF58
:10473000BDEEC00A3A4A18EE103A02F178003B4446
:10474000005D1F4610EE103A02F14601013443436A
:10475000022C4FF0200093FBF0F3A7EB03072AF89D
:1047600001707FF413AF039B99790F314B00B2F9BD
:10477000201059434911304B0029B3F904304FF050
:10478000040093FBF0F3A1EB0303B8BF49423229C5
:1047900040DCD06B717B03FB01012C488142A8BF38
:1047A00001462B488142ACBFD163D063F1784B43C3
:1047B0002849097803294FEAA3130ADDB6F84E10F9
:1047C000B1F5FA7F05DA4842834226DB8B42A8BF67
:1047D0000B46D16B41F34F31B1F5807FA8BF4FF449
:1047E00080716FF0FF008142ACBF5B181B18A2F80C
:1047F0004A3007B0BDEC028BBDE8F08F0199002371
:1048000041F824302CE7D30759BF2F465A46009F62
:104810004A4645E70021D163C8E70346D9E700BF10
:104820009015002072240020AC15002032100020CA
:10483000DC150020F0D8FFFF1410002080C1FFFF1E
:10484000C4150020E4150020E8150020FEFFFF0F2E
:10485000020000F0AE1F00202DE9F04F2DED088B77
:1048600087B00446039390F8503002910192002BD8
:1048700000F04881322BA8BF322307EE903ADFEDDB
:10488000BC6AF8EEE77A86EEA77ABA4BDFF8348393
:104890001B88002B08BF012307EE903A9FEDB6AAB4
:1048A000B64BF8EEE78A1B8828EE8AAA13F0020FAF
:1048B00037EE0A7ACAEE079A00F02781B8F91C3061
:1048C000B8F91E20002BB8BF5B42002AB8BF524285
:1048D0009342B8BF1346B3F5E17FA8BF4FF4E1732D
:1048E00007EE903A9FEDA67AF8EEE77AC7EE87AA30
:1048F000A44EDFF8D4A2A6F1360306F1080B06F1A8
:10490000100706F11C09002504939FED9F9AF0EE15
:1049100049BA022D00F05C813AF915C09B499FED20
:104920009CBA07EE90CAF8EEE77AB5EE047A6B000F
:1049300067EE877A059331F915309049FDEEE77AF5
:104940000888F8EEE77A00EE103A810727EE8BBA76
:10495000B8EEC00A6AD070EE007A019BFDEEE77AED
:10496000594217EE90EA8E4503DB7345A8BF7346A4
:104970001946884B9FED886A6A00B1EE047A32F9D5
:1049800003E0039BA1EB0E0133F915E0237F06EE54
:10499000903A237AF8EE666A714407EE901A66EE52
:1049A000876A07EE103AF8EEE77AB8EE477A27EE14
:1049B000277A27EE067ABDEEC77A17EE101AB1EE07
:1049C000667ABDEEC77A17EE10EA714506DBBDEEDA
:1049D000E67A17EE10EA8E45A8BF8E4699ED009A4A
:1049E000AAEE279A07EE10EAF8EEC7BABBEE0E7AE7
:1049F000B4EEC79AF1EE10FAF0EE497A00F1888031
:104A0000B3EE0E7AB4EE479AF1EE10FAC8BFF0EEAC
:104A1000477AC9ED007AA37C09EE103AB8EE499ABC
:104A200029EE279ADFED5D7A29EE279AC20700F179
:104A30009980BCF1000FB8BFCCF1000CBCF5206F21
:104A400004EB050167DD4FF0000EC7F800E0CB7AFC
:104A5000D7ED007A08EE103AB8EE488A830728EEC0
:104A6000278ADFED4F7A28EE278A0FD530EE6B0AC2
:104A7000F0EE6B7AEAEE807A38EE498AB0EE670A99
:104A8000F0EE497AEAEE887AB0EE678A4548DFEDC3
:104A9000467A2B5C94F8511007EE103AB8EEC77ABC
:104AA0002BEE477AA7EE270A21B12C3800EB8500C0
:104AB00002F008FED6ED007A3C4BA6EC01BA7BEE84
:104AC000677AEB5C87EE8A7A043709F10409DBED3B
:104AD000007A37EE677A30EE080AE9EE877A07EE59
:104AE000103AB8EEC77AEBEC017A67EEC77A9FED21
:104AF000307AA7EE870A15F077FC6A00049B01352F
:104B0000985206E79FED2B7ABFE6DFED1FAAEFE68E
:104B1000F0EE477A7DE74B78DFED276A07EE903AB3
:104B200060EE266AF8EE677A86EEA77AD7ED007A0D
:104B300037EE4B7AEAEE077A9FED207AF4EEC77AE9
:104B4000F1EE10FA0BD49FED1E7AF4EE477AF1EEF7
:104B500010FAC8BFF0EE477AC7ED007A77E7F0EEBB
:104B6000477AF9E7B0EE498AB0EE6B0A8EE700BFEC
:104B700083F9223EAC1F0020BD3786357224002009
:104B80000000E1430C16002000000000AC150020DE
:104B9000CDCC4C40321000206F12033C0AD7A33D0D
:104BA0000AD7233CE4150020A69B443B08160020AE
:104BB000F7CC9238AF4C593C0000A043000040C3F2
:104BC00000004043901500201410002000803B4559
:104BD000FDEEE88A5FED037A94F853707D4D18EE90
:104BE000903A23F0030308EE903A029BF8EEE88A2D
:104BF0009A7988EEA79AB5EE000A002F7ED0B8F910
:104C000020607549BAF9043086EAE677A7EBE677C3
:104C10007A4392FBF1F2E17864324A43642192FBD9
:104C2000F1F207EE902AF8EEE78A07EE903AF8EEF6
:104C3000E77A27EE800A15F0D7FB07EE900AF8EE28
:104C4000E77A9FED667A67EEA88A80EAE073C8EE9D
:104C5000877AA3EBE073B3F5207F07EE106AB8EE16
:104C6000C70A30EE670A01DC642F1CDD0023EB630A
:104C700094F8511011B15A4802F024FD30EE080AA0
:104C8000FDEEC07ACDED017ABDF9043000EE103AA8
:104C9000B8EEC00A15F0A8FBA5F84A0007B0BDECB5
:104CA000088BBDE8F08F06EB8603E2781B0193FBCF
:104CB000F2F31B1A07EE903AF8EEE77AD8F83C3098
:104CC00067EE897AFDEEE77A17EE902A1A441346CA
:104CD000B2F57A5F434AA8BF4FF47A539342B8BF04
:104CE0001346C8F83C307D2293FBF2F3627B5343BA
:104CF0009B1107EE903AB8EEE78AB9E7BAF90430AB
:104D0000B5F9206007EE903A5200F8EEE77A2832C3
:104D1000724327EE800A561115F066FB002EA6EBB3
:104D2000000007EE900AB8BF7642322EB8EEE77A5E
:104D300036DDEF63EB6B5B13B3F5807FA8BF4FF4F9
:104D400080736FF0FF029342B8BF134607EE903AAC
:104D5000B8EEE78AFDEEC77AE27817EE903A534351
:104D60009B1100EE103A204B1B78032BB8EEC00AC3
:104D70007FF77EAFB4F84E20B2F5FA7FBFF678AF7A
:104D8000FDEEC07A534217EE901A994203DB8A4235
:104D90001346A8BF0B4607EE903AB8EEE70A67E75E
:104DA000637BEA6B07EE903AF8EE677A67EE877AF4
:104DB00067EE897AFDEEE77A17EE903A13440B4AD4
:104DC0009342A8BF13460A4A9342ACBFEB63EA631F
:104DD000B0E700BF901500200CFEFFFF0000A042CE
:104DE000C015002080C1FFFFAE1F0020FEFFFF0F97
:104DF000020000F02DE9F04F2DED048BD24CD34F83
:104E0000DFF88CB3D24DD34E8BB002F0C3FBD4F895
:104E1000A030D4ED297AC4F8A000C31A08EE103AE5
:104E20003B681B78F8EE486A06EE103ACA4B0DF163
:104E3000040E002166EEA76AB3F800C004F1A800D2
:104E40000A469846F146F7EE005A3BF9123007EE53
:104E5000903AF8EEE77A16EE103A67EEA67A4FEA45
:104E6000420AEEEC017A002B45D0F8EEC67A35F90D
:104E7000123090ED005A85EEA77A07EE903AF8EEE0
:104E8000E77A67EE877A35EEC77AE5EE077AC0ED06
:104E9000007AFDEEE77A17EE903A26F812300132EA
:104EA00036F90A30032A03FB03F300F1040093FBF5
:104EB000FCF31944C9D1A94BA94864254D4395FB7E
:104EC000FCF51D60493D4946ADB204F00DFC3B2D9B
:104ED00014D9B4F9C030D4ED2F0A07EE903AF8EEA9
:104EE000E77AA04BF4EEE70AF1EE10FA23DC1A7829
:104EF00022F0080222E035F81230CEE73B68984AEB
:104F000093ED017AF7EE007A37EE276A0023C7EEB9
:104F1000866A36F913100133032B07EE901A92EDCF
:104F2000006AF8EEE77AE7EE067A67EEA67AE2EC38
:104F3000017AEED1CDE71A7842F0080294ED2E0AFC
:104F40001A7015F0F9FAF0EE409A84ED000A94ED2B
:104F50002F0AD4ED2E7AD4ED2D8A20EE000AF1EE40
:104F6000688AA7EEA70A15F065FBF0EE400AB0EEDE
:104F7000680A15F0E1FADFED7C8A84ED010AB0EEF3
:104F8000409A29EEA80A15F02FFA29EE280AA4F86B
:104F9000C20015F029FA754BB4F8C2201A8000B28D
:104FA0005880734BA4F8C4001B681A0740F1F280C4
:104FB0004946704804F098FB3B686E4A93ED027ACC
:104FC0006D49F7EE007A37EE276A0023C7EE866A4E
:104FD00031F913000133032B07EE900A92ED006ABA
:104FE000F8EEE77AE7EE067A67EEA67AE2EC017A67
:104FF000EED16048FFF7FCF8604BD4ED007A1880E2
:105000005F4A5E4BB2F90C20B3F900309FED5D7A38
:10501000F1EE677ACDED047AD4ED017A9B1AF1EEC8
:10502000677ACDED057A07EE903AF8EEE77AB6F9B1
:10503000003067EE877A04A9CDED067A07EE903A44
:10504000B6F90230F8EEE77A07A8CDED077A07EE59
:10505000903AB6F90430F8EEE77ACDED087A07EE2B
:10506000903AF8EEE77ACDED097A04F03DFB3B6823
:105070009DED097A5B78012B40F0B880424B1B789C
:105080005B0715D4D4F8D42092B1D4F8D8300821D5
:1050900093FBF1F15B1A07EE903AF8EEE77A013AEA
:1050A00077EE877AC4F8D420FDEEE77AC4ED367A3D
:1050B000D4F8D830082293FBF2F307EE903AF8EEDA
:1050C000E77A324D9DED070A37EE677A8DED097A62
:1050D00015F08AF92B68197804F036FAD4F8DC3028
:1050E0009DED080A1844C4F8DC0015F07DF92B6822
:1050F000197804F029FAD4F8E0309DED090A184433
:10510000C4F8E00015F070F92B68597804F01CFA27
:10511000D4F8E43018EE102A1844D4F8E830C4F873
:10512000E4001344C4F8E830D4F8EC300133C4F898
:10513000EC30D4F8F0300133C4F8F0300BB0BDECF3
:10514000048BBDE8F08F00BF901500202C170020C5
:10515000B41400200E10002018000020081F0020AA
:1051600044160020201F00204C3D0F443210002028
:10517000141F002058160020E41E0020181F0020D5
:105180005000002035FA8E3C041F0020301700200C
:1051900014100020174D4946284604F0A5FA95ED55
:1051A000010A95ED007AD5ED027A20EE000AA7EE0D
:1051B000070AA7EEA70A15F03DFAB5EE400AF1EE90
:1051C00010FA11D095ED007AC7EE007A95ED017ACC
:1051D000C5ED007AC7EE007A95ED027AC5ED017A49
:1051E000C7EE007AC5ED027A024803E7B8F800304E
:1051F00063E700BF5000002001380A4B042804D8A0
:10520000DFE800F006080A0C0E00074A1A61704732
:10521000064AFBE7064AF9E7064AF7E7064AF5E7D2
:10522000064AF3E750000020B57F0008AD420008B1
:1052300041820008F17C00084145000859480008F7
:105240008C4665492DE9F04F1E464B890C89B1F813
:1052500004804FEA032AB6EB0A0A4FF0000786469D
:105260004FF0000067EB000BA4FB0A6704FB0B7711
:1052700087B0F40944EA47644FEA08460592A21948
:10528000CC88B1F802804FEAE715A4FB0A6704FB5B
:105290000B774FEA162444EA07644FEAC83645EB19
:1052A000000314EB06084FEA272545EB000988891F
:1052B000A0FB0A4500FB0B55E00D40EA4520CDE977
:1052C0000223E91510F5FA6341F10004B3F5FA6F12
:1052D000CDE9003474F100035DDA0523A0FB03453A
:1052E00003FB015504FB01F300FB0533A4FB004560
:1052F0001D44DDE902236F104FEA3406921B63EB75
:105300000703A608CDE90223DDE9002346EA8576F6
:10531000324CAF10B8EB060869EB07094FF0FF35C8
:10532000A242AB4124DA40F6AC5400194FF000051C
:10533000694100FB01F3A0FB000101EB4301DDE942
:105340000223CD00C400041B45EA507561EB05053E
:1053500012196B41CDE902230B23A0FB034503FB8C
:1053600001556D104FEA3404B8EB040869EB0509E8
:105370000AFB0BF3AAFB0AAB0BEB430BDDE9003492
:105380004FEADA7040EA4B001B1A4FEAEB7164EB0C
:105390000104CDE90034059BA3FB080103FB0911BF
:1053A000DDE90234460D46EAC126F31A4FEA615799
:1053B00067EB0404DB0B43EA4443BEF1000F01D06A
:1053C000CEF80030BCF1000F02D0009BCCF80030CA
:1053D00007B0BDE8F08F00BF8416002024FAFFFF5D
:1053E000012248217720FDF79FBB01225821772019
:1053F000FDF79ABB07B5032201AB00217720FDF72B
:105400000BFB9DF805309DF804001B0243EA0043A6
:105410009DF80600184303B05DF804FBEAE7E9E7EE
:1054200038B50F4C206901F011FE143454F8040C07
:1054300000221925072A0ED002FB02F3A3F119015D
:10544000037A4B4303F6C413534393FBF5F324F859
:1054500012300132EEE70349BDE8384001F0B6BD35
:10546000841600203C1A002010B5104B1A786A2AC6
:105470001AD1598840F22C52914215D11A79BE2A7C
:1054800012D193F82A25EF2A0ED1094C002213F8E5
:10549000010B80EA0201A342C9B203D1831A584228
:1054A000584110BD0A46F2E7002010BD00F0030885
:1054B0002CF503082DE9F041FFF7D6FF10B90320C2
:1054C00002F093F8944D954E954C03F0AFFB40F2EB
:1054D0002C52944928460BF0BBF895F80435022B62
:1054E000C4BF002385F8043595F804254FF48E7168
:1054F00001FB02F303F5D8702B442844306093F885
:1055000004020228C8BF002001FB0252C8BF83F872
:10551000040292F8043284F822300C2202FB035376
:1055200003F206532361AB6846F209021A4200F007
:10553000EA80AB68D80703D54FF4005004F042F975
:10554000AB68590409D5082004F03CF94FF4005029
:1055500004F038F9012004F035F9AB681A0706D5D4
:105560004FF4005004F02EF9012004F02BF9AB6841
:105570009B0402D5402004F025F9012385F8A131D0
:1055800095F872312BB195F8763113B1002385F877
:105590007631654F6762002002464FF0FF0E2B18F0
:1055A000B3F880114B1003F077334FEAA10808F0ED
:1055B0003338CB1AA3EB08034FEAE10808F011389F
:1055C000A3EB080303EB231311F0010C03F00F33DB
:1055D00093FBFEF8C8EB082818BF0132A3EB0803C1
:1055E00018BFD2B2012B0ADD022B40F09180BCF132
:1055F000000F00F08D8011F0BC0F00F089800830A2
:105600002028CCD1013A012A00F28280FFF708FF5E
:10561000302200214548DFF8288111F0B7F83168C1
:1056200001F1790000F038FD3368C4F8588018782B
:10563000FFF7E2FD95F86A11DFED3D6AC4F894705A
:1056400008F17403E365C822642313FB0123636636
:105650000023A366E36623676367A367E36784F8B1
:10566000803084F8813008F10603C4F88430A8F152
:105670001E03C4F8883008F18003C4F89030B5F8F0
:10568000F23007EE903AB5F8F430F8EE677AA8F108
:105690002602C4ED277A07EE903A3368C4F88C20CE
:1056A00093F85C1084F8981093F8781084F89910A7
:1056B00095F8751184F8A410B3F81611C4F8B43035
:1056C00007EE101AF8EE677AB8EEC77AC4ED287ABA
:1056D000C6EE877A1749C4F8A81003F16401C4F82C
:1056E000AC1003F211119FED147A67EE877AC4EDC6
:1056F0002C7AC4F8B810C4F8BC20104ABDE8F041B8
:10570000136003F07DBA4FF4005004F063F810E723
:1057100000F0E0FC7AE700BF6C190020241F002095
:105720008416002000F00308881A0020AC16002020
:10573000000061441C1700204C3D0F44CC1E00208B
:10574000621A00202DE9F74FEA4CEB4E002140F29F
:105750002C52204611F01AF804F5D8733360E74B49
:10576000002504F206521A6183F822506A2323703E
:105770004FF480400323637104F02CF84FF4006071
:1057800004F028F8802004F025F8022004F022F824
:105790004FF4807004F01EF84FF41673A4F8F23042
:1057A000FA23A4F8F4302A23A4F8F030C823A4F88C
:1057B000FA30012384F8EE30202384F8F6301923E0
:1057C00084F80E310A2384F80F3184F810312B232A
:1057D00084F81131232384F81231242384F81331FF
:1057E0001023A4F816311E23A4F814314FF4AF731C
:1057F000A4F81A31022384F81831002384F80455E0
:10580000A4F8FE50A4F8FC50A4F8005184F8E45029
:1058100084F8E55084F8E650A4F8E850A4F8EA507B
:10582000A4F8EC5084F8EF5084F8F75084F8F8505E
:1058300084F8A15184F8A051C4F8A431C4F8A83167
:10584000052384F8AF3140F2DC53A4F82A3140F24A
:105850004C43A4F82C3140F26C73A4F82E3140F282
:105860007533A4F8303140F6430384F8AC5184F822
:10587000AD5184F8AE5184F8245184F82551A4F830
:105880003231B2462B462546032BCCBF01220022E3
:1058900003F1010384F8342114BF1E220522122BC8
:1058A00084F8352104F10204EED14FF47A73A5F89F
:1058B0005831A5F85C31A5F86031A5F86431A5F838
:1058C000D43040F27E53C820A5F8D83040F2EA53D5
:1058D000A5F87801A5F8DA3040F24C4040F2B45314
:1058E000002601274FF4FA624FF01E084FF0050919
:1058F00019214FF0320BA5F8D000A5F8DC3040F2AA
:10590000DC5044F25063A5F85A21A5F85E21A5F8B1
:105910006221A5F8662185F875110191A5F8D220BC
:10592000A5F8D6000090A5F8E03085F8278185F825
:10593000297185F8737185F8749185F8767185F809
:10594000777185F87A7185F8266185F8286185F880
:10595000686185F87261A5F8DEB0A5F8E2B000F0E4
:10596000B9FBDAF80040AE7340F6AC535022AB817D
:10597000E270462262736422019922716271227779
:105980007822E171A27221212D2228234FF00A0EE4
:105990004FF0020C6174227553214FF4FA72277094
:1059A000637084F80BE084F81580A37084F80CE031
:1059B00084F8168084F8179084F8188084F806809C
:1059C00084F81A90E17623724D4984F812E06372EC
:1059D000A673E673667684F810C0A777A4F84E2005
:1059E000484AE162A2632163E2634749474AA262EF
:1059F000A1644FF07E524B21626384F84C104FF04B
:105A00007F5EDFF81C81C4F820E000225A21C4F830
:105A100024E0C4F8448084F8506084F8516084F82D
:105A20005260226484F8536085F80615412185F898
:105A300007154FF0030E10210098A5F8100585F802
:105A400008B585F8096585F80D6585F80E6585F852
:105A50000A6585F80B6585F80C6584F87AE0A4F88A
:105A60005860A4F85A6084F8796084F87B1084F850
:105A7000643084F86530152384F86830244B84F84A
:105A80007D70E36684F87870224B234F84F87EE0C3
:105A900020204FF0300A84F881E0C4F860804FF095
:105AA000040E2367DFF87C801C4B84F880A084F808
:105AB000899084F87C0084F87F6084F882C084F840
:105AC000831084F8840084F885E084F8866084F884
:105AD000876084F8881084F88A6084F88B1084F8D2
:105AE0008C00A4F8566084F85CE06367924607F186
:105AF000080919E06C190020241F002084160020DA
:105B0000CDCCCC3E8FC2F53C000040400000204090
