:020000040800F2
:1000000000A0002041020108A9020108A90201087C
:10001000A9020108A9020108A902010800000000C4
:10002000000000000000000000000000A90201081C
:10003000A902010800000000A9020108FD5F0008F4
:10004000A9020108A9020108A9020108A9020108E0
:10005000A9020108A9020108A9020108A9020108D0
:10006000A90201080D600008A9020108A9020108FF
:10007000A9020108A9020108F1A40008A9020108C7
:10008000A9020108A9020108A9020108A9020108A0
:10009000A9020108A9020108A9020108A902010890
:1000A000A9020108A9020108A9020108A902010880
:1000B000A9020108A9020108A9020108A902010870
:1000C000A9020108A9020108A9020108A902010860
:1000D000A9020108499B00083D9B0008A9020108EC
:1000E00011600008A9020108A9020108A90201087B
:1000F000A9020108A9020108A9020108A902010830
:10010000000000000000000000000000A90201083B
:10011000A9020108A9020108A9020108A90201080F
:10012000A9020108A9020108A9020108A9020108FF
:10013000A9020108A9020108000000000000000057
:10014000A9020108A9020108A90201080000000093
:10015000000000000000000000000000000000009F
:100160000000000000000000A9020108A902010827
:10017000A9020108000000000000000000000000CB
:0801800000000000A9020108C3
:1001C0002DE9F04FB3B008F07DFF18B909F0E4F85D
:1001D0000BF02EFDBF4DC04C08F09AFF2B7843F07A
:1001E00001032B70BD4B4FF47002C3F8882000232D
:1001F000089309930A93236843F4803323602368A8
:1002000003F400330993089B01330893099B1BB93E
:10021000089BB3F5A04FF2D1236813F4003318BF45
:1002200001230993099B012B40F0778202230A9353
:10023000AB4B12221A606368636063686360636833
:1002400043F480636360636823F47C1363606368D2
:1002500043F4E8136360236843F0807323602368EA
:100260009901FCD5636823F003036360636843F07E
:1002700002036360636803F00C03082BFAD10A9B46
:10028000964F6B60974BFB60636A636ADFF89C82F2
:10029000DFF89CB2DFF89CA243F08073636263696D
:1002A00043F4FC0332AE636103238DF87A3041F6E8
:1002B000FF7326F8503D4FF09040314605F0EEF9BF
:1002C0004FF6FF7331468848ADF8783005F0E6F90F
:1002D0003146404605F0E2F93146844805F0DEF942
:1002E0003146834805F0DAF93146824805F0D6F9FF
:1002F000304604F075FE1E9B7F4AB3FBF2F37F4A43
:10030000DFF834E213607E4B7E4A4FF0000CC3F8F6
:1003100000C0C3F804C07C4B5A60F02287F8232049
:100320000722C3F808C01A60DBF80830CAF80030AA
:10033000BEE80F0037460FC7BEE80F000FC79EE8A4
:100340000F0087E80F00636943F40023636163696A
:1003500043F400236361636943F4002363616369C9
:1003600043F4003363614FF0904310221A8520223A
:100370001A8540221A854FF40043C8F818304FF40C
:100380008043C8F818304FF40053C8F81830674657
:10039000CDF80CA0391DF0593144083705F07EF92D
:1003A000302FF7D1039B594AD3F80090584BDFF810
:1003B0008C811A60574B04221A7000213A4640463D
:1003C00011F0D4FC0127002188F8001088F80C7087
:1003D00088F8181088F824101C2217A811F0C6FC01
:1003E00019F4802F08BF4C4BDFF8FC8008BF1F704A
:1003F0002B784A4FDFF8489143F004032B70484BA9
:100400001F60636943F480236361E36943F400136D
:10041000E361236B23F010032363236B43F010038A
:100420002363D8F8243023F00F03C8F82430D8F819
:10043000243043F00403C8F82430D8F8243023F0E3
:10044000F003C8F82430D8F8243043F04003C8F84B
:10045000243002234FF0000A4FF480728DF87C3074
:10046000049331464FF0030340468DF87D301E92D1
:100470008DF87EA08DF87FA00BF07AFA4FF4007211
:10048000314640461E920BF073FA3A68039B22F005
:1004900001023A603968234A0A403A60224A3A61C6
:1004A0003A6842F001023A60C7F808A0C7F80CA009
:1004B000C7F808A0BA6842F40042BA603A683A60E5
:1004C0007A6822F0784222F400427A603A6842F078
:1004D000010237E0C40F00200010024000ED00E0F0
:1004E000002002400005FA0500040048000C004806
:1004F000001000480014004840420F00C8140020BB
:100500006C1400203F19010010E000E0CC16002020
:10051000D026002078120020E40C00200054004077
:1005200068140020FFE0CF007A25E00000080048B2
:1005300050150020A41A0020C01F01087C120020C2
:10054000FC2500203A601F6810225146484611F0F1
:100550000DFC049B8DF851304FF6FF724FF00303F2
:1005600007F0020713928DF852A08DF853A08DF872
:10057000503087B132A9012741F87C7D40460BF00D
:10058000F7F90C2389F80030072389F801A089F8CE
:10059000033089F802704FF4D87004F011FD6369DC
:1005A0005F4843F0805343F00203636104F008FDA9
:1005B000636943F0005343F002036361594C2046E2
:1005C0000BF0EDF830460BF0BFF84FF48072564B4D
:1005D00024924FF480621E932592544B1F93202245
:1005E00000232046269231464FF400522093229356
:1005F000239327922893ADF884700BF0B2F8236808
:1006000043F0010323604A4CA36823F04053A360E6
:10061000A36843F08053A3600A2005F081FCA3681F
:1006200023F08043A360A368A360A36843F0004362
:10063000A360A368002BFCDBA3683E4ADFF8F080D0
:1006400023F04053A360A36843F00053A360916874
:10065000394B0B4043F468339360E268374B1340E7
:1006600043F40053E360236B013F23F00F031F4368
:1006700027630122002409EB0403997841B1571C38
:10068000FFB2DB7819F8041040460BF015F93A4632
:100690000434102CEFD1264B9A6842F001029A6084
:1006A0001A68D207FCD5DA6822F00202DA60DA684A
:1006B00042F00202DA60DA6842F00102DA609A6817
:1006C00042F004029A60BBF9E830002B3ED007EEFE
:1006D000903ADFED1B6ABBF9EA301A4AF8EEE77A86
:1006E00007EE103A67EEA67ABBF9EC30CDED1E7A34
:1006F00007EE903AB8EEC77AF8EEE77A002127EED7
:10070000267A67EEA67A117030460F498DED1F7A72
:10071000CDED207A0BF0EAF920E001230A93AEE553
:100720000036001058040240400400500C260020FF
:100730000004005000070050E010FCFF07C0FFFD60
:1007400035FA8E3C3B030020D4250020BBF9EA207B
:10075000002ABCD1BBF9EC20002AB8D1DFF85883BD
:10076000BBF8F030DFF854A3059300249BF8EF307A
:10077000C8F8004010222146C8F80440C8F80840D4
:10078000BE4804932C729BF8F77011F0EFFABC4B43
:10079000A5F809402320CAF80040CAF80440CAF866
:1007A00008401C6005F0BCFB0BAA0121752004F079
:1007B00098F8D146F0B1B34BCAF80430B24BCAF83E
:1007C00008300FAA4323012120468AF8003004F0A4
:1007D00088F89DF83C3003F07E038DF83C3000280B
:1007E00000F0F480682B40F0F18001236B721D2330
:1007F0008AF800306A7AA54B06930021042A197002
:1008000041F01A809D4BA24AA24C1A60A24A5A603B
:10081000A24ADA602268079142F0010020609A46FD
:100820004FF0010940F2022040F2FD1E049B0A2B0A
:1008300028BF002309FA03F111EA000C41F00280FD
:1008400011EA0E0F00F0FE87954B83F800C0954B20
:10085000C8F8003042F00302934BC8F8043022601D
:1008600023689B0702D5D8F800309847DAF80030A3
:100870000598DFF84C8298474FF00009CA4688F87F
:1008800000A01FB1BB1E022B00F2E1803346012203
:1008900000210C208DF8789005F040F8002800F039
:1008A000D6809DF87830482B40F0D1807F4B804A2D
:1008B0001A60804A5A60062388F80030236843F0A3
:1008C000080323609BF8E4300BB1069A13709BF881
:1008D000E5300BB1724A13709BF8E6300BB188F823
:1008E00000309BF8F830042B00F2B880012404FAA1
:1008F00003F212F0160F64D112F0090F00F0AC8071
:100900000A2005F00DFB13AB2246A021772005F04D
:1009100005F80746002854D022461E21772005F00E
:1009200085F805F0E1FA044605F0DEFA001BB0F5A3
:100930002F6FF9D3DFF88C810024A246C146A4F1C1
:10094000600133460222C9B277208DF878A08DF875
:1009500079A004F0E3FF9DF878209DF8793043EA10
:10096000022324F808300234102CE8D1B8F80E2005
:10097000002302F00F0402F47F42A8F80E2019466B
:10098000481039F81000002818BF0027CE0746BFCE
:10099000C0B2434083EA102308201E0448BF83F4FA
:1009A000C05301384FEA4303F7D101311029E7D191
:1009B0002243A9F80E2027B9C3F303339C4200F069
:1009C0004C872B7A43F020032B724CE09DF82C309F
:1009D00003F07E03682B8DF82C3033D102230621DF
:1009E0006B723246D9F80430084698479DF87D303E
:1009F0009DF87B209B00520002F0020203F00403EA
:100A000013439DF8792002F001021343DAB25BB17F
:100A1000012A02D10023AB72ECE6022A01D10123A4
:100A2000F9E7022005F08BFAD9F8043013AA012166
:100A30000C2098479DF84C3013F00F03F1D0042B95
:100A4000EDD1E7E7702B04BF04236B72D2E6012FD0
:100A50007FF638AF002712E7012BB2D00D4A13689A
:100A600043F0040313606B68012B02BF2B7A43F041
:100A700040032B722C7A3CB32046D3E79C1C002009
:100A8000DC120020E3480008D94800089007002045
:100A900031490008141200205148000890C1793DE6
:100AA000F0070020D9490008954800081C1B0020C9
:100AB000055B0008415A0008E4070020CC12002022
:100AC000241B0020501D00202B7843F002032B70C4
:100AD000AD4D4FF480432B854FF40043AB6110269E
:100AE000013E15D0AB8A9BB283F48043AB82AB8AC4
:100AF0009BB283F40043AB82AB8A9BB283F4005376
:100B0000AB82192005F00CFA192005F009FAE7E785
:100B10004FF40043AB614FF48043AB619B4E4FF405
:100B20000053AB613268100705D5994B1B68984795
:100B3000984B01221A70984BDFED986A1B68984D0C
:100B40001A7B984B1A80984B1B8807EE103AB8EE28
:100B5000C77A964BC6EE877A1B22FF2128469FED67
:100B6000947A67EE877AC3ED007A11F0FFF80022DD
:100B70002A7032688F4B012112F0020F197028463B
:100B800004D06970032119700221A970510704D59E
:100B900019784D1C1D700325455412F00A0F40F0C2
:100BA0006D86039A11688A0604D51A78551C1D7043
:100BB000072585549BF80560082E01D00E2E04D120
:100BC0001A78551C1D700B2585541A780C278754EC
:100BD000551C4F0748BF0232EDB21D7042BF1A705C
:100BE000102242551A781227551CEDB287544F0532
:100BF0001D7004D59BF8A071002F40F04E868D0526
:100C000004D51A78551C1D7015258554182E0BD146
:100C10001A7816258554551CEDB217274755D51C53
:100C20000232D2B21D708654CA0504D51A78511CFE
:100C300019701A238354982200215F485E4DDFF813
:100C4000A4A111F093F8012005F07CF84C2758B3CB
:100C5000012C29DC07FB04F905EB090898F84A6028
:100C600016B10134E4B2F2E7037990F9000001967D
:100C70000AEB8303032200921B6B3246012105F02D
:100C800003F8834660B104FB07504C22314611F053
:100C90006DF801231C4445F809B088F84A30E4B2E5
:100CA000012005F02DF8D2E7444B2A681A60444B26
:100CB000444E454A1E60002313809370434A444DBE
:100CC00013605360434ADFF820811468424ADFF81A
:100CD0001CC11660414AF0891370A6F58E76B6F8ED
:100CE0002C21643204F17D010FFA80FE12B2A3F1CF
:100CF0000807FFB2022FD8F8007098BF25F813201C
:100D000007F5167788BF25F813E04CF823700133F8
:100D1000122BECD1324B1F6817F4805F08BFB6F975
:100D200030E1A5F806E09846CD34A1421CD00B78FE
:100D300083B98A78CB789A420CDA6AB1013A02EB2D
:100D4000820202EB820202F561734A7804329BB29E
:100D500025F812300431E8E7013303EB830303EB9A
:100D6000830303F56173F0E73B074ED596F8242122
:100D7000062A44D8DFE812F03C0091009400BF003E
:100D8000DA00F500F50000BF00080048141200204A
:100D90001C1B0020401B0020081E00200AE81C41EC
:100DA000191200204808002004010020381D0020EE
:100DB0000000C842181200207C0800207414002093
:100DC000AC1100206C160020B81D0020DC1D002096
:100DD000A81A0020741D00207C1D00202F11002067
:100DE000A41A0020C01F0108541E0020C8110020B2
:100DF00045F2F052794B1A8005F060FE28B90820C0
:100E00000AF006FF764B774A1A60D8F80020764B36
:100E100012F4804F04D01221197071497348086090
:100E200042F20100024202F4005140F03C851A787F
:100E30006F4CDFF808B2DFF808A2043A5A7005F0E8
:100E400053F86C4B18607379052B02BF6A4B4FF453
:100E5000C8721A8007F0AAFD684B4FF47A721A80A4
:100E6000674B002222601A6099462368002B40F0ED
:100E7000EF80232705F038F808F012FD0A2005F06E
:100E80004FF8013FF6D108F0DFFCDBF800302360BB
:100E9000DAF80030C9F80030E7E742F6F822A9E7AF
:100EA0004E4B42F6F8221A80564A0A23000190FB64
:100EB000F3F00023A0F5B06042F823000133122BB9
:100EC000FAD1474A50491160474A4020137004F054
:100ED00039FF002893D001234FF0070990F9000053
:100EE0004A4A8DE808024A4B402104F0CDFE00300A
:100EF00018BF012082E7394B42F6F8221A80384B9E
:100F0000444A1A60384B10221A70402004F01AFF2D
:100F100000283FF474AF01234FF0000C90F900005B
:100F20003D4A8DE808104FF4E133DDE72B4B42F6E4
:100F3000F8221A802A4B394A1A602B4B08221A7061
:100F4000402004F0FFFE00283FF459AF01234FF08A
:100F5000000E90F90000324A8DE808404FF4E1336A
:100F6000C2E71E4B2F4F304C3048DFF8D890DFF8E7
:100F7000D8C0DFF8D8E042F6F82119801A4B0C21CE
:100F80001970062A4FF000033B70237003701BD0CA
:100F90001B2389F8003005238CF800108EF80030F0
:100FA0004FF4E1340E4B224A1A60402004F0CAFE8E
:100FB00000283FF424AF0123002790F900001D4AC8
:100FC0008DE8880023468FE7212389F800308CF8CC
:100FD00000108EF80020184CE4E700BF160900202E
:100FE00070010020E9A900084C150020C1A90008E3
:100FF000D81C00204C080020CE260020BC11002068
:10100000D41C0020D42400208DA90008E9AB0008DE
:10101000A086010079A9000845AB000861A9000875
:10102000FDAA000862240020452500204425002058
:101030008DA80008EDA9000890D00300381E0020FC
:10104000341E002046250020612400204725002072
:101050000023DFF8BCB3DFF8BCA32360C9F800307D
:101060000F270523039304F03FFF08F019FC0A2023
:1010700004F056FF039B013BF4D108F0E5FB236825
:10108000DBF80020D9F800101A44DAF800302260AA
:101090000B44013FC9F80030E3D10F2192FBF1F27C
:1010A0002260C64A93FBF1F3C9F80030137843F08D
:1010B00008031370C24A137823F002031370D8F8A0
:1010C000003040F602021A4209D0BE4BBE4A1A60F6
:1010D000BE4B03221A70BE4B1F80BE4B1F80BE4CFE
:1010E000B368BE4AC8F80030012313702278DFF8D5
:1010F00028B3A14662F07F0209F80C2B4FF49662E8
:101100006A81B74A137053709BE80F000BAD85E8F6
:101110000F000BF110030FCB0DF13C0E8EE80F000A
:101120000BF120030FCB0DF14C0A8AE80F000BF1F5
:1011300030030FCB0DF1780C8CE80F009AE80F000C
:1011400089E80F009CE80F0004F11C0989E80F00F2
:101150009EE80F0004F12C0C8CE80F0095E80F00BE
:1011600004F13C0E8EE80F009E4D4FF4967004F093
:10117000D7FE00214FF48C729B4810F0F7FDEB690D
:1011800043F00703EB61AB6943F4A523AB616B69E3
:1011900043F4C0236B6104F1100104F1600E4FF0C1
:1011A0000F0910318E4540F0028273790E2B40F00A
:1011B000178201238DF86C308C4B1A68042F00F0D5
:1011C00018827B1C02EBC30111F9061C022940F0B6
:1011D0000E82FF00BB1CD31804D01744BB88003319
:1011E00018BF01238DF86130D8F80030C3F34002F6
:1011F0008DF86220C3F380128DF86420C3F340326F
:101200008DF85C20C3F3C0328DF85F2013F40062C8
:1012100004D096F81821911E4A424A418DF8602068
:10122000C3F300428DF86520C3F3C0028DF85E2041
:1012300000228DF86620C3F300528DF86720B6F8BF
:10124000D620ADF86A20B6F8E220ADF86820C3F3E6
:10125000804203F0010003F008018DF86320DB04F5
:10126000B6F8E02048BFB6F8DC30B6F8D470ADF878
:10127000707048BFADF87030B2F5FA7FC4BF00237C
:10128000ADF870305A4BADF86E2096F868211A70A0
:101290000023A4F84C309DF86C308DF85D00002BD5
:1012A00014BF0222002200B901B10132514B03EBFD
:1012B00082034FF0000BD3F890309A1E063303924E
:1012C0000493039A32F8023F03924FF6FF7293425F
:1012D00040F09181484BDFF844E1484F04221A70F6
:1012E0000024E3190FCB04EB0E061034402C86E8E3
:1012F0000F00F6D1424BD8F800201E68414B4248FF
:101300001C6802F480520023002A00F09082B4F995
:10131000041020F8131001330C2BF5D102244FF0E8
:1013200001088DF87A808DF87B406B69374F102665
:1013300043F48023ADF878601EA96B61384604F051
:10134000ADF93E858DF87A808DF87B406B694FF062
:1013500090464FF0800943F40033ADF878901EA911
:101360006B614FF0904004F099F9C6F818908DF831
:101370007A808DF87B406B69ADF8784043F4802328
:101380006B611EA9384604F089F93C858DF87A8096
:101390008DF87B406B694FF4004943F40033ADF89E
:1013A000789030466B611EA904F078F9C6F8189061
:1013B0000B4E3378002B48D032E000BF251B0020B5
:1013C000411B0020F82500205E1600206008002048
:1013D0006208002064080020C40F0020E40C0020F4
:1013E0003F09002000100240641E0020D02600208B
:1013F000A0130020C01F0108CE14002060200108A7
:10140000EC1D0020E81D0020B42600200004004848
:10141000381E0020341E002010200108240C00205B
:101420000A2004F07DFD8DF87A808DF87B406B6991
:101430004FF4005943F48023ADF878901EA96B61F6
:10144000384604F02BF9A7F828907378BBB10A202E
:1014500004F066FD01238DF87A3002238DF87B308D
:101460006B69102443F40033ADF878401EA96B611A
:101470004FF0904004F012F94FF090431C85B37880
:10148000C3B10A2004F04CFD01238DF87A30022309
:101490008DF87B306B694FF4807443F40033ADF802
:1014A00078401EA96B614FF0904004F0F7F84FF0C0
:1014B00090431C85F378ABB10A2004F031FD012381
:1014C0008DF87A3002238DF87B306B69BB4C08278E
:1014D00043F48023ADF878701EA96B61204604F0B8
:1014E000DDF827853378002B00F0A4811E2004F05E
:1014F00017FDB24B4FF400529A611E2004F010FD0C
:10150000AF4800F0FDF91E2004F00AFD2A21AC4886
:101510000AF01CFD2B247378ABB11E2004F000FDF3
:101520004FF0904310229A611E2004F0F9FCA54868
:1015300000F0E6F91E2004F0F3FC2146A1480AF071
:1015400005FD0134E4B2B378B3B11E2004F0E8FC29
:101550004FF090434FF480729A611E2004F0E0FC3B
:10156000994800F0CDF91E2004F0DAFC2146964897
:101570000AF0ECFC0134E4B2F37893B11E2004F0DD
:10158000CFFC8E4B08229A611E2004F0C9FC8F48C4
:1015900000F0B6F91E2004F0C3FC21468B480AF087
:1015A000D5FC1E2004F0BCFC33B0BDE8F08F11F870
:1015B000063C51F8100C11F805CC03F00702DB08CB
:1015C00000EB83039200186A0CFA02FC09FA02F29B
:1015D00020EA02021A621A6A4CEA02021A62E0E582
:1015E00003F0EF03082B3FF4E4AD0023E2E51F46D0
:1015F000E4E50023F6E59DF86220DEB21B0A42B165
:1016000004EB06126D481169814202D1928A012AC7
:1016100051D0022B55D19DF85C20002A4BD06C4F45
:101620009DF8672007EB061732B19DF86C201AB9B8
:10163000321F032A40F2E980012BDAB246D1654B12
:10164000E76504EB06164FF00009FF2283F84420FB
:1016500083F8452083F80090B28AC3F80490C3F859
:101660000890C3F80C90C3F8409083F8469083F834
:1016700047904FF0020A737E306984F850901EA99B
:101680008DF87A30ADF878208DF87BA004F006F85C
:101690005246B17DF06803F051FF384605F0E2F99B
:1016A0004D4B4E4A23664E4B6366C4F86890111F3B
:1016B000384608F0EBF9049B039A93427FF401AE9D
:1016C00008E6012BABD19DF85D20A6E7022A41D1A7
:1016D0005FFA8BF14FF01C0A0AFB01FA04EB0A09CE
:1016E00004EB061601210023B08A89F85010717EA0
:1016F00089F8523089F85A3089F851B0ADF878003D
:101700008DF87A103069C9F85C701EA905938DF8C0
:101710007B2003F0C3FF059BB17DF0681A4603F000
:101720000DFF384605F09EF92E4AC9F860202E4973
:101730002E4AC9F86420059BC9F868300AF11402E2
:101740000AF1100A0A443846514408F09FF90BF197
:10175000010BB0E7032A55D19DF86330244E63B1E5
:1017600094F84D9000234FF6FF720821384603F09D
:10177000BFFF204B46F8290013E0BDF86E2094F817
:101780004D90BDF87030B2F5FA7F11DD1A49B1FB0A
:10179000F2F2384692B2482103F0AAFF174B46F8FE
:1017A0002900C36094F84D30013384F84D3082E74E
:1017B0001349B1FBF2F2012192B2D7E700040048CD
:1017C00044090020AC0A0020580E0020F00C002034
:1017D000D00F002024130020F95200082810002008
:1017E000D15300084556000814100020D1520008BB
:1017F00070130020E153000800A24A04F5530008CA
:1018000040420F00042A7FF456AFBDF86830304ADA
:1018100092FBF3F20121BDF86A3092B2384603F030
:1018200067FF94F84C30013384F84C3043E7B6F945
:1018300004106EE52A246EE62B7A43F002032B7225
:10184000FFF74FB80021012B04913EF6EFAF214B7B
:101850009DF81C201A70FFF703B81F4B42F210725C
:101860001A805A801D4A5A601D4A9A601D4ADA60E1
:101870001D4A1A611D4A5A61FFF7F0B81A7804210F
:101880008154511CC9B205254554D11C0232D2B233
:10189000197006218154FFF784B902321A7013229D
:1018A0004255FFF7ACB9124844F62064048021B1D8
:1018B000082119700F4910480860D0077FF5B7AAB2
:1018C0000C221A700B4A0D491160FFF7B0BA00BF25
:1018D00040420F00F00700203C1E00204790000807
:1018E0007B9000083D900008799000089D8E0008CC
:1018F0001609002070010020DDA90008D1A9000808
:101900002DE9F04F292380F860314FF4C876012388
:10191000041D05469DB080F86131A0F86261002287
:101920008821204605F045FB4FF47A72A5F8562130
:10193000714AC5F85C210023704AA5F8586185F802
:10194000F430C5F8D8206B620CA9204602F086FE60
:101950000646A0B98DF830008DF831000DF1300E3B
:10196000BEE80F0005F114070FC7BEE80F000FC750
:10197000BEE80F000FC79EE80F0087E80F00642342
:10198000A5F838314FF46173A5F83A314FF4FA7382
:101990000127A5F83C314FF42063A5F840313A46C1
:1019A000802185F85471204605F003FB3A468046B5
:1019B000FF21204605F0FDFA002248EA000011460A
:1019C0000643204605F0F5FA76B20DF128080643E5
:1019D00042469121204605F0ADFA76B29DF82830B6
:1019E00085F83E3106433A460021204605F0E1FAEB
:1019F00076B206430022FF21204605F0DAFA76B2DD
:101A0000064300228021204605F0D3FA76B2304307
:101A100040B20026002840F0DD81B3B2013B042B28
:101A200004D8DFE803F00B595C5F660085F82C7082
:101A3000AB194FF0000A83F82C700BE005EB86031E
:101A400044219A6B2046C2F34F2205F09EFA82464B
:101A50000028EDD00136062E5046DBD1BAF1000F3A
:101A600056D185F82EA085F82FA00223FE226021F2
:101A7000204605F06CFA8246002849D185F83000EE
:101A80001023EF226021204605F061FA82460028EB
:101A90003ED14FF49013AB6395F82D3085F83100AB
:101AA00073BB4FF48043EB634FF40C132B6495F836
:101AB0002F30002B40F08C81FF226B6485F834219D
:101AC0000121204605F075FA012385F8363182465A
:101AD000F0B985F819A11BE085F82E70A8E785F804
:101AE0002F70A5E70023FE226021204605F02FFA83
:101AF000ADE70023EF22F7E7856B0100A470090032
:101B000020224421204605F040FA82460028C8D011
:101B1000B44F87F800A0BAF1000F40F01A814022BC
:101B200051460CA810F022F995F8F490ADF81EA0DB
:101B3000B9F1070F8DF81BA08DF81CA0CDF820A0DF
:101B400000F0F28001228021204605F032FA0122C5
:101B50000646FF21204605F02CFA52460643514620
:101B6000204605F026FA76B206430622FF212046DB
:101B700005F01FFA76B206430DF11D0283212046BF
:101B800005F0D8F99DF81D2076B2064342F0040214
:101B90008321204605F00DFA76B206430722FF2185
:101BA000204605F006FA76B201228121064320463E
:101BB00005F0FFF976B206430A2004F0B1F90122DC
:101BC0008021204605F0F5F976B2064319F0010BA5
:101BD00076B240F001816B229421204605F0E9F9AC
:101BE0008246204608F0BFF94AEA0000064309AAE7
:101BF0009021204605F046F9099B76B2C3F30622F0
:101C000094210643059220462422C3F3C03A05F0EE
:101C1000D0F976B20643204608F0A5F976B206431D
:101C200009AA9021204605F02DF9099A8DF82B205C
:101C3000110E8DF82810110C8DF8291076B2110AAA
:101C4000064325228DF82A102046942105F0B1F98B
:101C500076B20643204608F086F976B2064309AA12
:101C60009021204605F00EF9099A76B2110E06432E
:101C7000120C76B28DF82C108DF82D2000228121C7
:101C8000204605F096F906220643FF21204605F07E
:101C900090F976B206430DF11D028321204605F02E
:101CA00049F99DF81D2076B2064302F0FB0283211C
:101CB000204605F07EF976B206430122FF21204638
:101CC00005F077F976B2064301220021204605F09F
:101CD00070F976B206430022FF21204605F069F92B
:101CE00076B2064300228021204605F062F976B2E2
:101CF000304310F0FF0F17D1BBF1000F10D19DF84A
:101D0000143085F8173185F818A105F5977318F880
:101D10000B2003F8012B0BF1010BBBF1060FF6D1E1
:101D200049F0010985F8F49095F81891B9F1010F7F
:101D300005D895F817A152D1BAF1200F54D907AAA6
:101D400008A9204608F0D8F90646002800F09A8035
:101D50003E7097F900302BB908AA09A9204608F06F
:101D6000CBF9387097F9003043B901230DF11D020A
:101D70000DF11E01204608F077F9387097F9003010
:101D800013B901222A753B7097F900301BB9012263
:101D900085F82C203B7097F900305BB9EA6B442141
:101DA000C2F34F22204605F0F0F810B9012385F860
:101DB0002D30387097F90030002B40F06C8195F889
:101DC0002D00002840F05E8141F69913EB6361E13C
:101DD000002371E682469BE6CDF814A04EE7BAF1E7
:101DE0000C0FABE7AC1200200122FF21204605F0CA
:101DF000E0F80246A8B94F21204605F0DAF880B98C
:101E00002C224E21204605F0D4F8024648B9FF2185
:101E1000204605F0CEF820B9B422B621204605F0C0
:101E2000C8F8002385F8283185F8293185F82A314A
:101E300085F82B3185F82C3185F82D31B9F1000F5B
:101E400000F01B818E4903F1B402920951F822205F
:101E5000002A00F0DE818DE80804CDF8088005F541
:101E6000947305F597724946204604F07FFD0646B7
:101E700000287FF46DAF012385F8193185F817A18B
:101E800085F8189195F85431002B40F0C781D5F8AA
:101E90005011204607F06DFE064600287FF458AF2B
:101EA00032460A21204605F084F8064600287FF4D1
:101EB0004FAF0346EF228421204605F048F806463E
:101EC00000287FF445AF85F8DE00204605F0CBF80A
:101ED000064600287FF43CAF0122FF21204605F092
:101EE00068F80DF11E0281468421204604F0DCFFD3
:101EF000324649EA0009FF21204605F05AF84FFA18
:101F000089F949EA000046B2002E7FF421AFBDF8FE
:101F10001E301B01C5F8D8300CA9204602F09EFBEC
:101F2000064600287FF414AF0DF11B02092120465C
:101F300005F000F8064600287FF40AAF9DF81B3034
:101F40000DF1300E03F0010385F835318DF81B30AB
:101F5000BEE80F0005F114060FC6BEE80F000FC65D
:101F6000BEE80F000FC69EE80F0086E80F000DF1D7
:101F70001B020121204604F0DDFF064600287FF405
:101F8000E7AE9DF81B308DF8280085F834314246C5
:101F90000121204604F0CEFF064600287FF4D8AE8B
:101FA0009DF8283003F0EF094B450ED04A46012139
:101FB000204604F0FEFF064600287FF4C9AE85F8EF
:101FC0003491A969204607F06DFF002342460121A4
:101FD00020468DF8283004F0ADFF064600287FF437
:101FE000B7AE9DF8283003F0FB094B450ED04A46AA
:101FF0000121204604F0DDFF064600287FF4A8AE4C
:1020000085F83491A969204607F04CFF4FF0030989
:1020100085F8369109AA0021204607F003FE0646FE
:1020200000287FF495AE9DF8243085F8EC3009AA9D
:102030000121204607F0F6FD064600287FF488AE11
:102040009DF8243085F8E43042464946204607F0A2
:1020500087FE064600287FF47BAE0A9BC5F8E83071
:1020600042460421204607F07BFE064600287FF406
:102070006FAE0A9BC5F8E0306AE64B46EBE600BF60
:102080005C2201080C224421204604F07EFF002837
:102090003FF49AAE387097F9003043B94FF470139B
:1020A000AB6344F62061204607F0FCFE387097F9D8
:1020B0000030002B46D150225721204604F079FFF2
:1020C00008225621204604F074FFD0BB424603216B
:1020D000204607F045FEB0B90CAA0221204607F0C1
:1020E0003FFE80B908225021204604F062FF50B91B
:1020F0000A9A0321204607F0AEFD20B90C9A02216E
:10210000204607F0A8FD122385F8EC30C8B9A9696C
:10211000204607F0C7FEA0B902220121204695F80B
:10212000346104F046FF60B90146204607F084FFA1
:1021300038B932460121204604F03BFF08B985F842
:102140003461387097F90080B8F1000F5ED14822F1
:102150001146204604F02DFF08224721204604F0B6
:1021600028FF032206463221204604F022FF0722E0
:1021700006433021204604F01CFF76B206430122BC
:10218000FF21204604F015FF76B2064320223021BD
:10219000204604F00EFF76B206434246FF21204659
:1021A00004F007FF76B2304340B270BB0CAA0421A2
:1021B000204607F0D5FD50B906227021204604F0D4
:1021C000F8FE20B90C9A0421204607F044FD0E23A6
:1021D00085F8E430C8B9A969204607F063FEA0B9C4
:1021E00002220121204695F8346104F0E2FE60B934
:1021F0000146204607F020FF38B93246012120462B
:1022000004F0D7FE08B985F8346138701DB0BDE818
:10221000F08F2C2B3FF41FAE013314E6004938E653
:102220000E000020A9490A682DE9F04F02F59C43F1
:10223000A74C20332360A74B8BB01D780591002D50
:102240003AD1A54FDFF8A082DFF8CCA297F8009032
:10225000E9B249450E4680F2A4800729D8BFD8F8D4
:1022600000303846D8BF595CDAF800309847032E62
:102270001DDCD8F8003006F10F0B03EB8B0133F8AF
:102280002B204B8898B1811A4FF47A709B1A4843DF
:1022900090FBF3F040F2EE2300F57A709842B8BF5D
:1022A000184640F6CA039842A8BF184680B204EB0D
:1022B00046060135B080C9E7884909688A4201D9D4
:1022C000013D1D70864B00931A6812F4805F05D0A3
:1022D000844B1B68DD0701D409F096FD059B196846
:1022E000814B1A68937A002B00F03481013B7F48C0
:1022F000127B30F913301AB1C3F53B6308331BB2BC
:10230000A3F57A73B3F57A7FA8BF4FF47A7323EA03
:10231000E37307EE903ADFED766AF8EEE77A87EE40
:10232000A67A744ADFED747A67EE277AFCEEE77AD4
:1023300017EE903A1380009BDFF8E0911B6813F4CE
:10234000807F00F054816D4B6D4D994203D9AB787D
:10235000002B00F04787AB78002B00F04881614FDD
:1023600095F821603B6899F800B00297012E03F0C0
:102370008063DFF894A1634F01930BF0040B14BF4B
:102380004FF003084FF0000895F82010052900F2DF
:102390002881DFE811F01B0193019901BC01D401F0
:1023A000F1014F4B1A68584B029342F20101186831
:1023B00000900A40039206D094F8293084F828301F
:1023C000524B5A781A7094F828601EB14F4B1E7801
:1023D00086F001060F2384F82A30434B94F82BA093
:1023E0001B6801930323BAFBF3F303EB4303AAEB4C
:1023F0000303DBB25B000493009B454FDFF8ECB0B6
:1024000003F51673002507F1C002069307F1720861
:102410004D4542DA690086B137F91500019B9B8A68
:1024200080B29842C0F2C686019BDB8A984200F3D4
:10243000C186069B42F8253003E03046EEE73BF8C4
:102440000100039B1BB92BF815000135E0E7314B68
:10245000062101FB053E049B2EF8030094F874301E
:1024600033B9BAF1020FEEDD4FF0010384F8743096
:102470004FF0000128F815106B0000203EF81010F6
:1024800033F808C001306144032823F80810F5D15F
:102490000BB293FBF0F080B2D5E794F82A300F2B03
:1024A000174B3DD10F4A1268560139D4029AD968A8
:1024B00012689A60521AC82A02D9012283F8212090
:1024C00094F82B30013384F82B30FBE6081B0020F6
:1024D00004110020A82600204C150020A42600206E
:1024E000A41A0020F41200207C1D0020A81A00204D
:1024F00000007A447012002000C07F44404B4C0022
:10250000B81D0020B41D0020541E00200101002031
:10251000081100203011002070010020411B002014
:10252000B74AB84E012151701170029A9968126829
:10253000DA60521A59688A4284BF002283F8212047
:1025400000254D45BCDAE8B208F02AFD26F8150052
:102550000135F6E70098006800047FF5ECAED4F88A
:102560009000081A0028FFF6E6AE01F59C402030E6
:10257000C4F89000A448D27A4579A448A44E30F813
:10258000150080B290FBF2F094F89420013202F032
:102590000F0284F89420224482F8950018461A46C7
:1025A000855D01302A44102812B2F9D192FBF0F275
:1025B00012B2002A03DB642A1346A8BF642307EE85
:1025C000903ADFED946AF8EEE77AA8E6BBF1000FE7
:1025D00068D0012E05D0052009F0F2FA8E4B0222B8
:1025E0001A70B8F1000F02D0404603F03BFC8B4D4F
:1025F000B5F8DE0004F02AFBAA46064618B906F034
:10260000BDF906F0ABF999F800305B0708D5009BDF
:102610001B68DF0604D5824B1B78DD0640F1EE8592
:1026200000239AF872819AF87311BAF82C71BAF8EB
:102630002EE174481A4630F912509B08BD42C4BFBF
:1026400063F07F03DBB201327545B8BF43F040034E
:10265000042AF0D194F8B1209A4240F0C18094F855
:10266000B220F92A02DC013284F8B2206D4F84F8DE
:10267000B1303B786C4D002B40F0E5802B68D807DB
:1026800040F1D880002E40F0AD8099F80030DA0794
:1026900040F1D9805B0702D4012384F8B33009F0FC
:1026A00069FBD0E0019B4FF4806023B109F0A2FAEE
:1026B00000232B6195E709F08DFAF9E7012E7FF4ED
:1026C00063AE052100F096BD012E04BF052185F8FB
:1026D0002010BBF1000F0CD0D4F8A810B1F90E00F7
:1026E000484908804880888038684088C8804FF012
:1026F0000208DAF8000069698142C0F07785BBF111
:10270000000F00F07385012E3FF43EAE69E799F8A3
:10271000001041F0020189F8001009F075FBDAF8A9
:102720000000E9690144A961042185F820104FF4F3
:10273000806009F04FFA052009F036FA24E6012EF0
:1027400014D1DAF80000A9698142BFF44AAF354BD1
:10275000197821B9029B1968CA073FF542AF99F869
:10276000001021F0020189F80010AAE7DAF8002031
:10277000EB691344AB6134E73868DAF80030C1889C
:10278000642000FB01312961002185F82010E970E7
:10279000CDE79AF874317EB9002B00F03785234BD2
:1027A0001A68D4F8AC309B1A002B80F22F8509F000
:1027B0002BFB84F8B06033E73BB11C4A12684FF43E
:1027C0007A7101FB0323C4F8AC3094F8B030002BCD
:1027D0003FF426AF03F03CFB002384F8B0301FE742
:1027E000002241E7D4F8B4300A2B2CDC104B1B88B4
:1027F0005E0728D406F0C2F806F0B0F84FE700BF35
:1028000001010020A81A0020FC2500200C26002031
:10281000991100200000C842CD260020501500204C
:10282000251B002074010020F4120020541E0020FB
:10283000D626002099F80030580704D594F828309F
:10284000002B40F0E98494F8B2309B4E142B2ED12B
:102850003B78C3B194F8B1305F2B06D199F80030C2
:1028600013F0040B6DD009F0CFFAB8F1000F0AD0C5
:1028700094F8B1307D2B06D199F8003013F0040B99
:1028800065D009F0C1FA99F8003013F004020ED1B6
:1028900094F8B130572B60D14FF47A73A4F8B83064
:1028A000864B1B6813F0080301D1854A1380009BF7
:1028B0001B68580726D594F8BC309BB199F80030B6
:1028C00059070FD57F4BB3F90620BAF82C319A423D
:1028D00008DD2B6813F0010302BF3222A4F8BE20EA
:1028E00084F8BC302B68DA0340F1A28094F8C03041
:1028F0002BB994F8BA3013B93223A4F8BE300123AF
:1029000084F8C030366800232B6006F17F0706F19B
:10291000CF084FF0010BB84500F09A803A787B78E9
:102920009A420CDA394617F8010C03F06DFA30B10F
:1029300017F8023C2A680BFA03F313432B600437A1
:10294000E9E70B2003F08EFA84F8B2B08DE70B2094
:1029500003F088FA84F8B2B095E70099096849074E
:1029600040F162845A2B40F05F8494F8BA302BB166
:10297000012384F8BA2084F8BB3098E794F8BC307F
:1029800083F0010384F8BC301BB10C2003F06AFA19
:102990008DE70D20FAE75B2B00F05C845E2B40F0A6
:1029A0004884032000F057BCB8F1000F02D07E2B02
:1029B00000F04C8494F8B130972B04D1424B4FF483
:1029C000C8721A8073E7A72B05D1404A137843F0E9
:1029D000040313706BE70022BB2B099217D102236B
:1029E000ADF826303368BDF82410B3F85C200A44F3
:1029F000A3F85C20BDF82610B3F85E200A44A3F8C3
:102A00005E2009F0ADF9002384F8B2304FE7B72B10
:102A100002D14FF6FE73E3E7BE2B03D10223ADF8DC
:102A20002430DFE7BD2B7FF442AF4FF6FE73F6E7AD
:102A300094F8BA30002B3FF465AF99F8003013F0EA
:102A4000040302BF84F8BA30012384F8BB3059E78D
:102A50001F4F06F1CD054FF00C0806F215164FF08A
:102A6000010BB54238D06A78AB789A4221DA691CFA
:102A7000287803F0C9F9E0B16979EB78154A95F83F
:102A800004C008FB01FE013B07EB0E0003EB430310
:102A90001344426893420CD043600023836094F84F
:102AA000C13007F80EC00BFA01F123EA010184F8E6
:102AB000C1100635D5E700BF741D00201412002098
:102AC00060120020A81A0020CE260020251B00201E
:102AD000801D0020CE200108C84AC94994F828303A
:102AE000D2F800800F68C74D019300260292042E91
:102AF00000F0C0826968002962D00A78002A5FD09D
:102B0000A868381A00280BDB07F5FA70A8600120C6
:102B100000FA06FE94F8C10020EA0E0084F8C10015
:102B2000019B002B4CD028784B780430C0B2002B8E
:102B300040F06982B44B33F910E0BAF82A0100F191
:102B4000C80CE64528DD91F802B094F8C110314177
:102B5000CB0735D4BBF1000FCCBF0220012003927C
:102B600003F0A6F9039A511E13293BD8DFE811F0B0
:102B70002B0042004F0061007A008200E500560100
:102B8000BA01EB011A023A0061006D008200E50013
:102B90005601DC003C01B101C838864504DA91F8E1
:102BA00002B0CBF1000BD0E7012202FA06F194F853
:102BB000C12022EA010284F8C12007F5FA72AA6056
:102BC00001360C3593E798F800209344BBF1FA0FD7
:102BD000A8BF4FF0FA0B2BEAEB7B88F800B0404619
:102BE00003F0F6F894F8C1100122B2400A4384F8C9
:102BF000C120E5E798F801209344BBF1640FA8BF1A
:102C00004FF0640B2BEAEB7B88F801B0E7E798F80C
:102C100003209344BBF1640FA8BF4FF0640B2BEA71
:102C2000EB7B7A4A88F803B01168404603F090F8CD
:102C3000D8E798F8051059446429A8BF642121EA0F
:102C4000E1710D2A88F80510CCD098F8042093443F
:102C5000BBF1640FA8BF4FF0640B2BEAEB7B88F845
:102C600004B0BFE798F8062093448BF3080B88F86C
:102C700006B0B7E766490968087802283DD107EE33
:102C800090BAF8EEE76AB2EE047AC6EE877A91ED72
:102C90000A7A77EE877AF5EEC07AF1EE10FA29D447
:102CA0009FED5C7AF4EE477AF1EE10FAC8BFF0EED1
:102CB000477A0F2AC1ED0A7A94D007EE90BAF8EE5F
:102CC000E76AB2EE047AC6EE877A91ED097A77EE7A
:102CD000877AF5EEC07AF1EE10FA2BD49FED4D7A9B
:102CE000F4EE477AF1EE10FAC8BFF0EE477AC1ED84
:102CF000097A77E7DFED487ADBE788785844C82817
:102D0000A8BFC82020EAE0700F2A88703FF46AAF9D
:102D10004A789344BBF1C80FA8BF4FF0C80B2BEA09
:102D2000EB7B81F801B05DE7394A11680A78022A25
:102D3000C3D0EDE7DFED387AD9E73549096808787F
:102D400002283AD107EE90BA9FED327AF8EEE76AA0
:102D5000C6EE877AD1ED0D6A77EEA67AF5EEC07AE7
:102D6000F1EE10FA26D4F4EE477AF1EE10FAC8BF6D
:102D7000F0EE477A102AC1ED0D7A3FF433AF07EE3B
:102D800090BA9FED247AF8EEE76AC6EE877AD1ED25
:102D90000C6A77EEA67AF5EEC07AF1EE10FA29D435
:102DA000F4EE477AF1EE10FAC8BFF0EE477AC1EDC3
:102DB0000C7A17E7DFED187ADCE7487B5844C8281F
:102DC000A8BFC82020EAE070102A48733FF40AAF79
:102DD0000A7B9344BBF1C80FA8BF4FF0C80B2BEA86
:102DE000EB7B81F80CB0FDE6094A11680A78022AEB
:102DF000C5D0EDE7DFED087AD9E700BF601D002000
:102E0000541E0020801D0020A81A00208C1A0020CB
:102E1000901A00200000C84200000000C049096864
:102E2000087802283ED107EE90BA9FEDBE7AF8EE00
:102E3000E76AC6EE877A91ED107A77EE877AF5EE3B
:102E4000C07AF1EE10FA2AD49FEDB77AF4EE477A01
:102E5000F1EE10FAC8BFF0EE477A112AC1ED107AF0
:102E60003FF4C0AE07EE90BA9FEDAE7AF8EEE76A97
:102E7000C6EE877A91ED0F7A77EE877AF5EEC07A13
:102E8000F1EE10FA2BD49FEDA87AF4EE477AF1EE2A
:102E900010FAC8BFF0EE477AC1ED0F7AA2E6DFED77
:102EA000A37ADAE7087E5844C828A8BFC82020EAD9
:102EB000E070112A08763FF495AECA7D9344BBF1C9
:102EC000C80FA8BF4FF0C80B2BEAEB7B81F817B0F7
:102ED00088E6934A11680A78022AC3D0EDE7DFED4D
:102EE000937AD9E78E4A11680A78022A1FD107EE31
:102EF00090BAF8EEE76AB2EE047AC6EE877A91ED00
:102F00000B7A77EE877AF5EEC07AF1EE10FA0BD4F1
:102F10009FED857AF4EE477AF1EE10FAC8BFF0EE35
:102F2000477AC1ED0B7A5DE6DFED807AF9E7CA7882
:102F30009344BBF1C80FA8BF4FF0C80B2BEAEB7B43
:102F400081F803B04EE6764A11680A78022A1DD14C
:102F500007EE90BA9FED747AF8EEE76AC6EE877ACC
:102F6000D1ED0E6A77EEA67AF5EEC07AF1EE10FAA0
:102F700009D4F4EE477AF1EE10FAC8BFF0EE477AC2
:102F8000C1ED0E7A2EE6DFED697AF9E78A7B93448C
:102F9000BBF1C80FA8BF4FF0C80B2BEAEB7B81F841
:102FA0000EB01FE65E4A11680A78022A1FD107EEAA
:102FB00090BA9FED5C7AF8EEE76AC6EE877A91EDFB
:102FC000117A77EE877AF5EEC07AF1EE10FA0BD42B
:102FD0009FED557AF4EE477AF1EE10FAC8BFF0EEA5
:102FE000477AC1ED117AFDE5DFED507AF9E74A7EC7
:102FF0009344BBF1C80FA8BF4FF0C80B2BEAEB7B83
:1030000081F819B0EEE5012B7FF4ECAD0C2A7FF4CA
:10301000E9AD474B897833F910B0464B40F63300A1
:103020008345A8BF8346BBF5617FB8BF4FF4617B82
:103030004FF4966090FBF1F01978ABF5617B9BFB48
:10304000F0FB5FFA8BFB59453FF4CCADBBF1030FAE
:10305000D4BF59460221197002FB01A2029B02F261
:1030600012521A6006F00AF80BF10100C0B202F029
:103070001FFFB7E5304D314E2B6813F0020F06D11C
:10308000009B1B68DF0506D52D4BDB781BB1336831
:10309000980700F1ED80012008F09CFD012704E075
:1030A00005F06CFC012008F0A5FD2A68510732D517
:1030B0008FB3012008F08EFD224B1B889A0704D4A1
:1030C00005F05CFC022008F095FD99F800305B07E4
:1030D00008D41C4B1B8803F044031BB11A4B1A88FD
:1030E0001A4B1A80336813F00A0F40F0C9802B681E
:1030F0001A054FF480705AD508F07CFD9AF8053017
:10310000082B02D00E2B40F0C38040200BB0BDE84E
:10311000F04F08F05FBD022008F05CFDD5E700BF6E
:10312000901A002000007A440000C842000000000D
:10313000A81A0020781D0020F4120020141200208C
:10314000B81D0020D826002060120020B0260020E4
:10315000514B1B885F0706D4042008F04BFD4F4BF2
:103160001A884F4B1A802B689E061CD54A4B1B8829
:10317000580602D4402008F03DFD2B68590641BF97
:10318000464A1188474A118013F0080308D094F882
:10319000C230002BABD1414B1A88424B1A8001231D
:1031A00084F8C230A3E7402008F014FDE5E708F0FA
:1031B00011FDA3E752F82530009883423FF63FA95E
:1031C000E8B2079207F0ECFE032D079A3FF739A902
:1031D00094F82A100123AB4021EA030384F82A3033
:1031E000FFF72FB90123AB70FFF7B5B842F21071AA
:1031F000E961032185F82010FFF7C6B82A4B1B7838
:10320000002B7FF4C6AA002E7FF4DFAA102002F064
:1032100029FE0123FFF7E1BA11B9002E7FF413ABA9
:1032200008F0F2FDFFF70FBB5D2B7FF4B4AB01207C
:1032300011E0562B01D108F093FD3B78002B3FF4B1
:10324000B9AB94F8B1306F2B7FF4AEAB08F092FDC0
:10325000FFF72DBB0220C7B27B1E8AF8103508F09D
:10326000E7FC05F055FF384602F022FEFFF71FBBD2
:10327000094B1B8813F001073FF412AF002714E736
:103280002B68DB063FF564AF042008F0A3FC6AE777
:103290000BB0BDE8F08F00BFD826002060120020E0
:1032A000B02600202C0300207401002038B504460D
:1032B00024200D4602F0BCFC4D2002F0B9FC002C8D
:1032C000094C14BF21203E2002F0B2FC23680022EA
:1032D00028469A7102F0ACFC236893F84900BDE8D7
:1032E000384002F0A5BC00BFAC26002001460020FB
:1032F000DCE710B502F092FC044602F08FFC04EB10
:10330000004010BD2DE9F84F4B282DED048B00F047
:10331000118500F2F080322800F050856BD8222809
:1033200000F040842BD8032800F0CE8207D8012873
:1033300000F0AD82022800F0B7820020C0E204282D
:1033400000F0C9820528F8D11A20FFF7CFFFC84D39
:103350000024285D013402F06BFC0B2CF9D1C54D23
:103360000024285D013402F063FC082CF9D100240C
:103370000020013402F05CFC072CF9D19FE22828E0
:1033800000F0BF8413D8242800F0B0842628D4D1BC
:10339000B94C0620FFF7AAFFB4F8E80002F05AFC87
:1033A000B4F8EA0002F056FCB4F8EC004CE22A282B
:1033B00000F0BA842C28C0D1AF4C0C20FFF796FF48
:1033C00094F8240102F034FCB4F82E0102F042FC1F
:1033D000B4F82A0102F03EFCB4F82C0102F03AFCE9
:1033E00094F8250102F024FCB4F8300102F032FC1C
:1033F000B4F8320128E23D2800F0178344D8382879
:1034000000F07A8433D8342800F0EF83362894D142
:103410009A4D994C95F86400C0EBC000C0B2FFF71C
:1034200065FF04F12006683594F97E0100230C3312
:10343000EA1812F90C2C824240F0D584C0B202F096
:10344000F7FBB4F8800102F005FC94F8820102F069
:10345000EFFB94F8830102F0EBFB94F8850102F096
:10346000E7FB94F8840102F0E3FB00F0BFBC3A28CC
:1034700000F0D2823B287FF460AF0120FFF736FFD7
:103480007F4B1B6818780CE2452800F0C18426D8D1
:10349000402800F09A8442287FF44FAF764C1020E9
:1034A000FFF724FF607902F0C3FBA06802F0DBFBAA
:1034B00094F8240102F0BCFBB4F8E80002F0CAFB67
:1034C000B4F8EA0002F0C6FBB4F8EC0002F0C2FB6C
:1034D000B4F8140102F0BEFBB4F81601B4E14628BA
:1034E00000F0898449287FF428AF0220FFF7FEFE10
:1034F000614B9889A8E1732800F0C38300F25681DC
:103500006C2800F0518200F2D180662800F016820B
:1035100000F295804D2800F0318465287FF40DAFCE
:103520000B20FFF7E3FE574B544C188802F092FB38
:10353000554B1A68554B9A420CBF554B554B188842
:1035400080B202F087FB2068C0F3C003C0F38002A2
:103550009B0043EA4203C0F340021343C0F340120E
:1035600043EAC20300F01000184302F073FB4A4B19
:1035700026791A88494B1968494B1B7802F00100DB
:10358000C3F3800343EA4003C2F3400043EA8003ED
:1035900002F008000343C2F3800043EA0013C2F3C1
:1035A000801043EA401301F04000034301F0800023
:1035B000034301F480700343C2F3001043EA402345
:1035C000C2F3401043EA8023C2F3002043EAC02341
:1035D00001F48050034301F40050034301F48040A0
:1035E000034301F40040034301F48030034301F43A
:1035F0000030034301F48020034301F4002003431F
:1036000001F480100343C2F3402043EA405301F029
:103610000071C2F380220B43002043EA8263053429
:1036200002460125B24280F06681115D05FA01F182
:1036300019421CBF05FA02F108430132F2E768287B
:1036400000F0A68169287FF478AE164D164E2878D2
:10365000400000F0FE00FFF749FE00242B789C425A
:1036600080F02D8136F8140002F0F4FA0134F5E709
:1036700017240108232401085015002014120020EB
:10368000741D0020D626002068140020005400403D
:10369000E0120020E2120020D8260020F4120020C0
:1036A000411B00204C150020A81A00206F2800F0B4
:1036B000C78130D86D2800F086816E287FF43DAE3A
:1036C0000720FFF713FEC54BC54C1888FF28A8BF7D
:1036D000FF20C0B202F0ACFAA06D4FF6FF75A84211
:1036E000A8BF284620EAE07080B202F0B3FAB4F82E
:1036F0005C0002F0AFFABB4B93F81931002B00F0DD
:103700009081236E0A205843A842A8BF284620EA89
:10371000E07080B298E0702800F0BA8172287FF4DF
:103720000CAEB04C1620FFF7E1FDB4F82A0102F010
:1037300091FAB4F8D00002F08DFAB4F8D20002F099
:1037400089FAB4F8D40002F085FAB4F86C0102F0FA
:1037500081FA002002F06CFA002002F069FA0020E1
:1037600002F066FA94F8190102F062FA94F8260160
:1037700002F05EFA002002F05BFA9B4B1B68B3F983
:103780005A000A2390FBF3F080B202F063FA94F837
:103790000E0102F04DFA94F8120102F049FA94F881
:1037A000110102F045FA94F813017AE0A02800F024
:1037B0008D8222D8772800F049820FD8742846D00D
:1037C00075287FF4BAAD2F20FFF790FD874C14F8D1
:1037D000010F002873D002F02BFAF8E77B2800F0E5
:1037E00026837C287FF4A9AD0320FFF77FFD804B63
:1037F000187802F02FFA7F4B44E6F02800F0598247
:103800000AD8DD2800F01083DE287FF496ADFFF79C
:1038100070FDFFF76EFD52E0FE2800F03D82FF28AC
:103820007FF48BAD744A6E4C1188002323840122EF
:10383000114266D101339BB25200092B92B2F7D1EB
:103840000220FFF753FD208C02F004FA37E0644FAA
:1038500000264FF0010ADFF8BC914FF0000B3B79D6
:103860005B4540F3E981654B0C251BF803400023C1
:1038700005FB03F202EB090012F80920A24200F056
:10388000DC8201331C2BF3D10BF1010BE7E70320A2
:10389000FFF72CFD002002F0CBF9022002F0C8F95E
:1038A000002002F0C5F90AE00520FFF71FFD544D86
:1038B0000024285D013402F0BBF9052CF9D1012068
:1038C000BDEC048BBDE8F88FFFF710FD022002F07D
:1038D000AFF90020E2E70B20FFF708FD072002F018
:1038E000B9F9484D0024285D013402F0A1F9072CF4
:1038F000F9D10020A8E702F0B6F93A4B93F8100589
:10390000CFE7013B072B05D8DFE803F007090B0ED3
:10391000101214160123238492E70223FBE74023AD
:10392000F9E74FF48073F6E78023F4E72023F2E70A
:103930001023F0E70823EEE70423ECE71220FFF75B
:10394000D5FC314B264C1B88B3F5806FD4BF0126C4
:103950000826002504F1220737F9150090FBF6F040
:10396000013580B202F076F9032DF5D1208D02F0F9
:1039700071F9608D02F06EF9A08D244C02F06AF9A5
:10398000208802F067F9608802F064F9A0885BE79C
:103990001020FFF7ABFC1E4D0024285D013402F01F
:1039A00047F9102CF9D18AE70D4C0620FFF79EFC51
:1039B000B4F8460002F04EF9B4F8480002F04AF9B3
:1039C000B4F84C0040E7064C0620FFF78FFC206D52
:1039D00002F049F9B4F8540036E700BFA0260020F1
:1039E0001412002050150020741D00200921010828
:1039F000CD2600203C030020D626002019120020EE
:103A0000092401080F24010804010020141B0020D0
:103A100042120020AC2201080420FFF767FC0020BE
:103A200061E1206E00F30F0073E6CA4C0220FFF73D
:103A30005DFC94F8740102F0FBF894F8730130E730
:103A4000C54C0B20FFF752FC2368187802F0F0F801
:103A50002368587802F0ECF8002523682B440135E0
:103A6000187902F0E5F8032DF7D12368D87902F030
:103A7000DFF82368987802F0DBF82368D87802F042
:103A8000D7F82368588902F0E5F82368187A08E720
:103A9000B24C2120FFF72AFC23681B78022B4FF041
:103AA00000056CD19FEDAE9ADFEDAE8AB2EE048ACE
:103AB000236803EB850393ED090A20EE080A0CF056
:103AC0003DFC80F30800C0B202F0B2F8236803EBBB
:103AD000850393ED0C0A20EE090A0CF02FFC80F30D
:103AE0000800C0B202F0A4F8236803EB850393ED4D
:103AF0000F0A20EE280A0CF021FC80F30800C0B267
:103B0000013502F095F8032DD2D1072D236829D174
:103B100093ED120A20EE080A0CF010FC80F3080066
:103B2000C0B202F085F8236893ED130A20EE080A6C
:103B30000CF004FC80F30800C0B202F079F82368AE
:103B400093F8503000EE103AB8EE400A0CF0F6FB55
:103B5000FF28A8BFFF20C0B2013502F069F80B2D85
:103B6000D3D1ACE62B44587802F062F823682B449A
:103B7000187B02F05DF823682B44D87DECE72368BE
:103B80002B44587802F054F823682B44187B02F039
:103B90004FF823682B440135D87D02F049F80B2DEE
:103BA000EDD18CE65020FFF7A1FBDFF8B0816E4E1F
:103BB00000250C27D8F8004004EB8504013594F863
:103BC0007D3007FB0363187A02F032F894F87E0028
:103BD00002F02EF894F87F0002F02AF894F88000A2
:103BE00002F026F8142DE5D169E64820FFF77EFBA8
:103BF0005A4F002506263C6806FB0544013594F81B
:103C0000D20002F015F894F8CD0002F011F894F803
:103C1000CE0002F00DF894F8CF0002F009F894F805
:103C2000D00002F005F894F8D10002F001F80C2D54
:103C3000E1D144E6464427E6BAF1000F3FF43FAE37
:103C4000F0B2FFF753FB4FF0000A04E6474C464D35
:103C50002079FFF74BFB0026671D4FF00C082379F6
:103C60009E42BFF42CAEF05D002308FB03F2511915
:103C7000525D824200F0F48001331C2BF5D10136F5
:103C8000EDE70820FFF732FB0124E0B2013401F038
:103C9000CFFF092CF9D112E60820FFF727FB0020FF
:103CA00001F0D8FF002001F0D5FF002001F0D2FF85
:103CB0001FE62A4C0420FFF719FB2368B3F85E00C7
:103CC00001F0C8FF2368B3F85C00BDE50C20FFF7E6
:103CD0000DFB274B186801F0C6FF264B186801F052
:103CE000C2FF254B186801F0BEFFE8E50420FFF78E
:103CF000FDFA184B9868F6E70420FFF7F7FA154C21
:103D000045E5144C0720FFF7F1FAB4F8140101F06F
:103D1000A1FFB4F8160101F09DFF94F8180101F01D
:103D200087FFB4F81A018FE50120FFF7DFFA094B8E
:103D30005879B6E5074C0420FFF7D8FA94F86A01E1
:103D400001F076FF94F86B0101F072FFB4F86C019A
:103D50007AE500BF50150020601D0020741D002072
:103D60000000C84200007A44AC220108141200206E
:103D7000ACF7FF1FB0F7FF1FB4F7FF1F3A4D3B4CE6
:103D8000287800EB4000C0B2FFF7B0FA00262B788D
:103D90009E4204F10204BFF492AD14F8020C01F04B
:103DA00047FF14F8010C00EB800000EB800000F2EC
:103DB000EE2080B201F04EFF0136E8E70120FFF768
:103DC00095FA2B4B93F826016BE50820FFF78EFA46
:103DD000274D00246319013493F81C0101F028FFDA
:103DE000082CF7D16BE5302B7FF421AB0834A642C9
:103DF0007FF41AAB63E50D20FFF778FA002001F09D
:103E000017FF002001F02FFF002001F02CFF06E635
:103E10001320FFF76BFA174D0024285D013401F0E1
:103E200007FF0B2CF9D1EFE701F0F8FE47E5022080
:103E3000FFF75CFA104B188806E54568284608F03D
:103E40003FF98046BAF1000F7FF4F4AE2C46631BB5
:103E500098457FF719AD14F8010B01F0E9FEF6E77C
:103E6000087A01F0E5FE0AE74C15002084160020D0
:103E700050150020172401083E03002037B50446E2
:103E8000154605292CD8DFE801F0030717191B1B7D
:103E9000436B2B60002021E00DF10602442103F06A
:103EA00003F8D8B9BDF8062053029AB12B60A3637A
:103EB000012384F8293011E0C36BEAE7036CE8E7DB
:103EC0000DF10602642102F0EFFF38B9BDF80630AB
:103ED0005B02DEE7A36B2B6084F8290003B030BDE2
:103EE0006FF00300FAE72DE9F04F9DB004460D4650
:103EF00012AB0C22142190F85C0101F00FFD002898
:103F000040F0EC816FF013001DB0BDE8F08F049E0F
:103F100092B27243039E1212964205D159B948F6E5
:103F2000E0262E8100231EE2039E9BB27343B21A49
:103F3000B3FBF2F310E242F2B82611E282444FEAF8
:103F4000CA2A02FB0AF240F2776102F5FA72B2FB6A
:103F5000F9F24A430D9302F5FA730893B3FBF9F3B0
:103F600009930A9B2A69D348DFF858A3190A099BC9
:103F700059438031090A09FB02F208BF012102EA14
:103F80000A02B2FBF8F8804528BF80464FF416724B
:103F90000C2002FB08F348430B9306F006F809FBDC
:103FA00006F1B1F5481F0BEA0A0B28BF4FF4481180
:103FB0002A7E0D9BABEB41014FEA400801F5FA71F7
:103FC0000BF5FA7BB1FBF9F12889BBFBF9F9090282
:103FD000B1FBF9F1002A40F0C380B74A0902C1F5EC
:103FE0008031424341F25C20B2FBF0F24A4302F5D9
:103FF0000042120C02F5803252085243920B4FF4E9
:10400000487B0BFB02FB0D930B9B0BF5004B03F561
:10401000004A4FEA1B4B0BFB0BFB4FEA1A4A0AFB09
:104020000AB005F0C2FF0004642240F6B531323018
:10403000B0FBF2F041F28832B0FBF8F8069B01FBCE
:10404000082807990B444FF47A7942F210724FF422
:10405000FA61B8FBF2F803F5FA72B8F5704FB2FBEB
:10406000F9F0B2FBF1F101F5C811B1FBF0F028BF96
:104070004FF4704805F099FF000200F5FA70B0FBAC
:10408000F9F0404308FB080005F08FFF0D9BB4F8E2
:10409000546109FB00F9994528BF9946D4F8583175
:1040A000C4F8409103FB06F808F180084FEA18288D
:1040B00008FB06F86FB1814B0A9A03EA822303EBEF
:1040C0005703B3FBF7F707EB47077F4307F50047B5
:1040D0003F0C06220AF1030ABAFBF2FACAEBCA0A3B
:1040E000BAF5803F37BF0B9B754B0333B3FBF2F33D
:1040F0003FBFC3EBC30303F500431B0C5B434FF40B
:10410000FA6A089AB2FBFAF208F1200093445B4481
:10411000099AB3FBF2F380099B03FE227F33B3FBC2
:10412000F2F307FB03F605F040FF4FF47A7B06F548
:10413000FA76B6FBFBF6360106F5FA760746B6FBCD
:10414000FBFBBBF1000F04D0B6FBFAF6B044B8FBA2
:10415000FBFB584605F029FFB84228BF38464FE11F
:104160004FF480324BE7029F59E1464694F82B907A
:10417000B9F1000F71D0049B002B69D0039B4FEA6B
:10418000032A049BBAFBF3FA15AA03212046FFF782
:1041900075FE159B002B5ED0534594BF4FF0000A6F
:1041A0004FF0010A002859D04FF0000EA5F80AE0A0
:1041B000029B002B00F08E8007F00107019A94F813
:1041C000293084F82E70042A00F08680B3FA83F335
:1041D0005B09B8F1000F08BF0126B9F1000F08BF55
:1041E0004FF0010A06F001060AF0010A84F8306077
:1041F00084F82F3084F831A004F1500685F818E0D7
:104200000FCE15AF0FC796E80700EB7DB5F8089005
:10421000B5F80A80B5F814C087E80700E9682A698C
:104220006868169015AD189119928DF86B30ADF83D
:104230005C90ADF85E80ADF868C08DF86CE00FCD95
:1042400050340FC497E8070086E8070000205BE6BB
:10425000DDF810A098E79A46A4E7CA460C9B2BBB52
:10426000019B013B022B2FD9019B062B00F00781FC
:10427000092B00F00481059B03F00D03082B26D0C9
:10428000012E24D0019B042B00F01281BAF1010F02
:1042900000F00181012F00F00181BA463E4683E71C
:1042A0004FF00008C146C24646467DE74FF0FF0E7C
:1042B0007EE700BF666666009A9906000000FCFF74
:1042C0000000F0FF0000FFFF4FF0050E70E74FF019
:1042D000030E6DE7012771E701237AE79DF852602D
:1042E0009DF853309DF84800002203EB0623AA7581
:1042F0002A606A609EB29DF84E209DF84F3003EB15
:1043000002239BB25B02EB6003939DF851209DF862
:10431000503002EB032292B252022A619DF84B30D8
:104320009DF84A2003EB02239BB20493BDF81030A2
:10433000AB82B4F8523194F83111B3F57A7F0CD0D6
:104340007343267F4FF47A7203F5FA7393FBF2F30B
:10435000226A002E7FF4DBAD9EB200293FF4E1AD6E
:10436000B3082B81B301EB750023ADF83E30C308D1
:10437000059303F00F030193019A4FF2A103D34079
:1043800003F001030C9394F828300293002B3FF4C0
:10439000EAAE267FEF6826B1AB8A266A5E43803696
:1043A000360ABB194FF47A7994F8E020099309FB97
:1043B00003FBD4F8DC30089211461846069302F04D
:1043C0009BFAD4F8E43094F8E81007938246184634
:1043D00002F092FA089A099B0BF5004B082A03F1A8
:1043E00080034FEA1B480A930CBF02220322334B7F
:1043F000B8F1000F7FF4A2ADC4F8403140469946B1
:10440000688110AA00212046FFF738FD109F1FB1D8
:104410004F452CBF0027012700287FF441AF94F8B7
:104420002A80B8F1000F3FF4A0AE11AA0221204665
:10443000FFF724FD88B90122FF21204602F0B9FDD3
:1044400058B90DF13E02B621204602F02DFD20B9EB
:104450000246FF21204602F0ACFDBDF83E6073022B
:10446000119EC4F848311EB1B34294BF0026012604
:1044700000283FF47BAE4FF00009CA4694E64FF0A7
:10448000040E029B002B7FF497AE012294F8293092
:1044900084F82E209AE64FF0020EF2E75646BE460A
:1044A000EFE7012384F82E30029E4FF0020E90E6D3
:1044B000029B002BF5D04FF0020E7DE6AE878F02F7
:1044C00073B5012204468021057C02F072FD0122B1
:1044D000FF21204602F06DFD00221146204602F029
:1044E00068FD94F83A219121204602F062FD0122F4
:1044F0000021204602F05DFD0022FF21204602F04F
:1045000058FD00228021204602F053FD012D2AD0C3
:1045100004D3032D36D06FF0070016E001220021EE
:10452000204602F046FD01238DF8073068B90546A4
:1045300044F620669DF80730DB0705F101050DD52F
:1045400060B9B54203D16FF0060002B070BD0146FC
:104550000DF10702204602F0EDFCEBE7B54208BF83
:104560006FF00600F1E710B9204602F0B3FC02221A
:104570000021204602F01DFD0028E6D1042384F826
:104580003231E2E710B9204602F0A4FC0422EFE742
:1045900070B5C02288B00E460121044690F8305113
:1045A00002F007FD70BB20742046FFF789FF48BB6F
:1045B000204605F00FFD28BB032384F8323101A902
:1045C0002046FFF790FCE8B9204602F04CFDC8B940
:1045D0000122FF21204602F0ECFC98B93246B621B8
:1045E000204602F061FC68B90246FF21204602F035
:1045F000E0FC38B92A460121204602F0DAFC08B96D
:1046000084F8305108B070BD08B506220B4690F80A
:104610005C01B02100F0FEF900280CBF6FF0130020
:10462000002008BD13B502AA00230C4602F8013D84
:10463000012102F07FFC78B99DF80730C3F3001226
:104640002270C3F3C002A270C3F380026270C3F38E
:104650008012DB09E270237102B010BD2DE9F04732
:1046600086B0037C0B700C4603AAF821054602F0C5
:104670001BFC064628BB04AA0421284602F002FCC3
:104680000646F0B9BDF80C201AB1049BB3FBF2F357
:10469000A360A368AB610023237304AA20212846EA
:1046A00002F002FC064660B9BDF810306BB92A6A08
:1046B00022612B7704AA2821284602F0F5FB064642
:1046C00040B1304606B0BDE8F087DB0023612B62C5
:1046D0000123EEE7BDF81030C3F30B03B3F5006F11
:1046E0004FF0FA0226BFA3F5805313FB02F35343A6
:1046F000636104F1240805F1280A04F11809002770
:104700004246B9B22846FFF7B9FB06460028D8D181
:1047100001371AF8013B09F8013B062F08F104089C
:10472000EED104AA0121284602F004FC0646002826
:10473000C7D19DF8103085F830311B064ABF0123E0
:1047400084F83C0084F83C3094F83C3085F84C30D8
:104750004FF4FA6302930023039340F63633636009
:1047600004A92846FFF75EFF06460028A9D19DF858
:1047700010302BB99DF8113013B99DF81230CBB120
:1047800002AA0221284605F0EBFA00283ED19DF846
:1047900010302BB1029B03F24E2263681344636016
:1047A0009DF81230DBB1029B03F2B222636803EB87
:1047B000420363609DF813305BB103AA03212846CE
:1047C00005F0CEFA039B03F525726368134463601A
:1047D000E0B99DF8143063B963686B6171E79DF8C7
:1047E0001130002BE6D0029B03F525726368134459
:1047F000DFE701AA0421284605F0B2FA019B03F283
:1048000026226368134463600028E5D0064658E713
:1048100038B50D4C94F9003005461BB90430FFF74C
:104820004FFE207094F900305BB90849281DFFF74E
:104830005AFB237F207023B9A3892B80B5F9000090
:1048400038BD4FF69C73F8E7AC120020B012002080
:1048500037B50F4B04465D6818786A460621A847AD
:10486000A0B19DF800209DF8013043EA0223238087
:104870009DF802209DF8033043EA022363809DF8EF
:1048800004209DF8053043EA0223A38003B030BD25
:10489000CC12002013B50F4B04465B686A46062114
:1048A0003B209847A0B19DF800209DF8013043EAD5
:1048B000022323809DF802209DF8033043EA02235F
:1048C00063809DF804209DF8053043EA0223A3800D
:1048D00002B010BDCC1200200A460146682001F04B
:1048E000A5B813460A460146682001F017B813B56B
:1048F0000D4C237BB3B92369A3B11A681AB10B49D4
:10490000486902434A619A88ADF8042002228DF872
:1049100007209868002201A98DF8062000F0BEFE4D
:104920000123237302B010BDCC12002000100240FE
:1049300070B50446FFF7DBFFB4F5807F3DD0BB2C9C
:104940003DDC612C3DDC292C3DDC132C3DDC092CAD
:104950003DDC002C0CBF002506251E4C8021A368E1
:104960006B209847642001F0DBFAA36807216820D8
:104970009847642001F0D4FAA36800216B2098477F
:10498000642001F0CDFAA36818211B209847A36882
:1049900010211C209847A36829461A209847A3682D
:1049A00004211D209847A368002119209847A36877
:1049B00012213720BDE8704018470025CDE70125BA
:1049C000CBE70225C9E70325C7E70425C5E7052589
:1049D000C3E700BFCC12002008B5FFF788FF024BE9
:1049E0004FF480521A8008BD04010020074B084A8A
:1049F00098420BBF938AD38A013301330BBF9BB21A
:104A00009BB29382D3820020704700BF00540040C5
:104A1000CC1200204000F8B5C5B23C483C4C0068C0
:104A20004FF42046266087693F041AD5771E7EB171
:104A30003E46F8E700264FF420418769BF0759D565
:104A400006B1216013F8011B8162013AD2B238E04D
:104A50004FF0FF332360FFF7C9FF003018BF01207C
:104A6000F8BD476827F07F7727F4593727F47F7719
:104A700045F0807627F0030746F490363E434660C3
:104A80004FF4204626608769BF0728D581624FF41E
:104A900020412160002687693F0625D506B12160A7
:104AA000416821F07F7121F4593121F47F7145EA89
:104AB000024521F0030145F000750D4345604FF4B8
:104AC00020452560002AB5D14FF42043816989062D
:104AD00016D502B123602023C3610120F8BD771EE3
:104AE000002EB5D03E46CEE74F1E01260029AFD09E
:104AF0003946D0E74F1E01260029A9D039469CE748
:104B0000591E0122002BA3D00B46DFE768140020BA
:104B100064140020F8B50A4F05460026284607F021
:104B2000CFFAF4B2A04206F1010607D9285D01F0E0
:104B3000A3F82B5D3A7853403B70EFE7F8BD00BF18
:104B4000441500202DE9F0432A4C8BB0002706467F
:104B500024200D46277001F08FF8442001F08CF8D6
:104B6000BD42BABF6D424FF00108B8468DF82470BF
:104B70000DF123010A2095FBF0F200FB1253DBB28A
:104B8000092BD4BF30333733DBB20F46154601F85B
:104B90000139002AEFD1304607F092FA81463846B3
:104BA00007F08EFA08F101054D440544EDB22846A0
:104BB00001F062F82078454030462570FFF7AAFFE3
:104BC000092001F059F8237883F009032370B8F124
:104BD000000F06D02D2001F04FF8237883F02D032D
:104BE00023703846FFF796FF207801F045F80BB0A8
:104BF000BDE8F08344150020034B9A690AB1013ADD
:104C00009A6100221A777047CC120020054B9A69EE
:104C1000511CBCBF01329A6100221A77024B1A70F4
:104C2000704700BFCC120020421B0020F8B5A34CF7
:104C3000236A013B062B00F2D180DFE813F0070066
:104C400054008400E600FF00230199019C4D626A34
:104C50002B689B1A40F6980293420AD9A36A43F044
:104C60000803A362002323620120BDE8F84006F098
:104C7000C1BF944F944E012006F0BCFF3B684B220D
:104C80001A715A71A36A83F00803A362E36A632B63
:104C900003DC4FF4FA63F380F8BD012006F09AFFBD
:104CA00094F830206E2332B93A6853714FF47A7316
:104CB0007380022307E0012A09D13A6853714FF447
:104CC000FA637380052323622B686363F8BD032AAC
:104CD0003A68137103D14FF47A733380E9E74FF4E4
:104CE000FA633380EEE7A36A012083F00803A3622E
:104CF00006F070FF94F83020714B73494FF47A70CE
:104D00004AB9B4F93A204880B2F5E17F06DD0322C2
:104D100022621B68D9E7032A08800ED00222226291
:104D20001B68626B9B1AB3F5FA6F57D3002323629B
:104D30006363BDE8F84007F067B8B4F93810B1F51F
:104D4000E17FEBDDE4E794F830308BB9B4F93A3029
:104D5000B3F5E17F43DDA36A012083F00803A3627A
:104D600006F038FF584B40F27E425A80544BD7E74A
:104D7000032B33D1B4F93830B3F5E17F14DDA36AE6
:104D8000012083F00803A36206F024FF4E4B4FF48A
:104D900083621A804A4B626B1B689B1AB3F5FA6FE9
:104DA0001CD30023236290E79BB2B3F5E17F15D8B3
:104DB000638FFA339BB2B3F5FA7F0FD8A36A012051
:104DC00043F00803A36206F015FF3F4B4FF48362E4
:104DD0001A803B4B1B68636304232362F8BD9BB2BC
:104DE000B3F5E17FFAD8238FFA339BB2B3F5FA7F9C
:104DF000F4D8A36A012043F00803A36206F0FAFE88
:104E0000314B40F201425A80E3E7A36A012043F0AC
:104E10000803A36206F0EEFE2B4B4FF4FA62DA8031
:104E2000284B1B684B225A711A71254B626B1B6809
:104E30009B1A40F2DC529342B3D8CDE7012006F032
:104E4000C9FE94F830201E4B1F49012A09D14FF4A6
:104E5000FA624A80B4F93A2012F5E17F06DA0622B6
:104E600056E740F2B770022A088008D00522226275
:104E70001B68626B9B1AB3F5FA6F92D2F8BDB4F956
:104E80003820E9E794F8300001281FD1B4F93A300E
:104E900013F5E17F53DAA36A83F00803A36206F0F7
:104EA00099FE094B40F23A725A80054B626B1B68BF
:104EB0009B1AB3F5FA6FBFF474AFF8BDCC120020A3
:104EC000541E0020601D0020A81A0020022885D151
:104ED000B4F9383013F5E17F13DAA36A012083F0C7
:104EE0000803A36206F076FE324B40F2B7721A80D6
:104EF000314B626B1B689B1AB3F5FA6FBFF451AF6D
:104F0000F8BD03F5E1739BB2B3F5C87F3FF666AF1A
:104F1000638FFA339BB2B3F5FA7F3FF65FAFA36AB4
:104F2000012043F00803A36206F064FE214B40F227
:104F30003A721A80204B1B68636307234DE703F521
:104F4000E1739BB2B3F5C87F3FF648AF238FFA33C6
:104F50009BB2B3F5FA7F3FF641AFA36A43F0080373
:104F6000A36206F047FE134B40F2B7725A80E1E7A6
:104F7000A36A012043F00803A36206F03BFE94F805
:104F80003030012B0B4B4FF4FA621CBF4FF4AF6172
:104F90001980DA80094B1B684B221A715A71064B33
:104FA000626B1B689B1A40F2DC5293423FF6F9AEEB
:104FB000C3E700BFA81A0020541E0020601D002077
:104FC000030F064BDA6A14BF22F4785222F4F87207
:104FD000DA62DA6A1043D862704700BF00100240FC
:104FE000A84B5A6802F00C02042A2DE9F04100F0A7
:104FF000B880082A00F0B980A3490160002A40F077
:10500000B2805968A14FC1F3031139448E78016809
:10501000F6B221FA06F444605D68C5F302253D440A
:1050200095F802E024FA0EFEC0F808E05D68C5F3CA
:10503000C2253D44AD78EDB2EC40C460D3F82C807D
:105040004FEA181808F00F0C07EB4C0C18F0100F73
:10505000BCF812C01FFA8CFC00F09C80BCF1000F61
:1050600000F09880B2FBFCFCC0F810C0D3F82CC054
:105070004FEA5C2C0CF00F0807EB48071CF0100FF0
:105080007F8ABFB200F08880002F00F08580B2FBDD
:10509000F7F747611F6BFF065ABF7B4F876181613E
:1050A0001F6BBF065ABF784FC761C1611F6B7F0678
:1050B0005ABF754F076201621F6BFF056ED58A42AA
:1050C0006CD1AE426AD1570047621F6BFF0467D5AF
:1050D0008A4265D1AE4263D1570087621F6BBF051C
:1050E00060D58A425ED1AE425CD15700C7621F6B69
:1050F0007F0559D58A4257D1AE4255D157004764F2
:105100001F6B3F0552D58A4250D1AE424ED1570057
:1051100087641F6BBF044BD58A4249D1AE4247D149
:105120004A00C2641A6B920744D104631A6B12F4EA
:10513000403F56D1C0F834E01A6B12F4402F6AD1C8
:10514000C0F838E01A6B12F4401F7FD1C0F83CE081
:105150001A6B12F4400F40F09D80C0F840E0BDE8AB
:10516000F081494A026000224BE75A685968C90336
:1051700049BFD96A4649444C01F00F01C2F383424A
:1051800048BF013102F1020248BFB4FBF1F14A43CA
:10519000026036E7016169E741617BE7446294E7B9
:1051A00084629BE7C462A2E74464A9E78464B0E731
:1051B0008464B7E71A6B02F00302012A01D101638C
:1051C000B4E71A6B02F00302022A03D14FF4004243
:1051D0000263ABE71A6B02F00302032AA6D12A4A44
:1051E000F6E71A6B02F44032B2F5803F01D1416319
:1051F000A2E71A6B02F44032B2F5003F03D14FF43C
:105200000042426398E71A6B02F44032B2F5403F25
:1052100092D11D4AF5E71A6B02F44022B2F5802FB5
:1052200001D181638EE71A6B02F44022B2F5002FA0
:1052300003D14FF40042826384E71A6B02F44022E8
:10524000B2F5402F7FF47EAF0F4AF4E71A6B02F4F9
:105250004012B2F5801F01D1C16379E71A6B02F4E5
:105260004012B2F5001F03D14FF40042C2636FE752
:105270001A6B02F44012B2F5401F7FF469AF024A84
:10528000F4E700BF0010024000127A000401002081
:1052900000093D001A6B02F44002B2F5800F02D102
:1052A0000164BDE8F0811A6B02F44002B2F5000F10
:1052B00004D14FF400430364BDE8F0811B6B03F499
:1052C0004003B3F5400FF7D1004BF4E700127A002A
:1052D00010F80A3C0133DBB20A2B00F80A3C07D96C
:1052E00010F8131C034A002322F8113000F80A3C7E
:1052F000704700BF0C130020324A936D106A1944A6
:10530000081A40F68C23984230B513461162506259
:10531000D16138D9117E92F95D2091421ED10A1FC8
:10532000082A1BD893F85E20182A03DC013283F880
:105330005E2001E083F85C1093F95C2091421AD161
:1053400093F85F00B8B1204C0020824208DC0020B6
:105350000B2A0BDC23F812000132F9E70022E6E702
:1053600054F8045F23F810500130EEE793F8602002
:10537000013283F86020012283F85F20002283F845
:105380005D101A7630BD92F85F10C9B1A0F2EF241B
:1053900040F2DA518C4208D8117E0B2905DC02EB71
:1053A000810301311176986230BD0022074883F8ED
:1053B0005F2011461346C2180433302B1161FAD115
:1053C00030BD00BF0C130020301300202413002038
:1053D000024A936D01330B44936570470C13002010
:1053E000034B03EB8000436E1B681960704700BFDE
:1053F0000C130020074B03EB8000436EA1F57A707D
:105400001A6819894FF47A73414391FBF3F11160E3
:10541000704700BF0C130020F0B5046D8668236848
:1054200023F0010323608379054613F0020F4079CE
:1054300014BF4FF40052002213F0040F14BF4FF4B6
:105440008067002710F0010F14BF0421002183079B
:10545000206820F001002060606820F4405042EA9B
:1054600000026260236823F4B05323F00C0348BFAA
:1054700041F008013B430B432360A36895B023F43C
:105480004073A3606846FFF7ABFD284B9C4239D1BF
:105490000C9A23681F0448BF5200B2FBF6F306FBC8
:1054A0001322B2EB560F226828BF0133160406D52B
:1054B000C3F3420223F00F031B041B0C13439BB2E4
:1054C000A3816B79A87913F0020F0CBF00224FF46F
:1054D000003200F00101DC0748BF42F480322B6D3E
:1054E00001B359680A435A609A6801074CBF42F0F9
:1054F000080222F008029A601A6842F001021A605B
:1055000015B0F0BD0A4B9C4201D10D9AC1E7094B81
:105510009C4201D10E9ABCE7074B9C420CBF0F9AEC
:10552000109AB6E7596821EA0202DCE70038014028
:105530000044004000480040004C004030B5404B63
:1055400093F89430012B14BF00240324036AC1B9DB
:1055500023F0010303628169036A21F0F30123F060
:105560000A0341F0010142F001021A4341EA041129
:1055700081610262836923F00C0383618369836123
:1055800030BD04291BD123F010031B041B0C036244
:105590008169036A120123F0A00321F473411B0403
:1055A00042F010021B0C41F4807192B21A4341EA9E
:1055B000043181610262836923F44063DDE70829D5
:1055C00020D123F480731B041B0C0362C169056A9C
:1055D0004FF2FF532B4089B243EA022221F0F3013C
:1055E00041F0010142F4807241EA041192B2C161BA
:1055F0000262C36923F00C031B041B0CC361C36963
:10560000C36130BD23F480531B041B0C0362C169CA
:10561000036A23F4005321F440715B045B0C090519
:1056200043EA0232090D41F4807142F4805241EAAA
:10563000043192B2C1610262C36923F44063DBE7C3
:105640000C13002038B510F80E2C50F8043C04461A
:1056500052B9012200F80E2C20F80C1C997A186817
:105660000222BDE8384069E730F80C2C20F80A1C0B
:10567000891A89B220F8081C074A10F80F0C002577
:1056800022F8101004F80E5C2A46997A1868FFF781
:1056900055FF04F8065C38BD0C130020F7B506462C
:1056A0000D46002401272A8807FA04F31A421AD06B
:1056B000AA78009302F003038DF80430EB78022BF4
:1056C00003D0032B0CBF032301238DF8053069465B
:1056D000C2F301133046C2F381028DF806308DF813
:1056E000072006F045F90134102CDCD103B0F0BDE1
:1056F0002DE9F743DFF81C9299F8954007461546C7
:1057000000680A4698462946631C89F8953004F0DB
:1057100043F93B89ADF8043001A9022378688DF87C
:1057200006308DF80730FFF7B9FF97F80AE03A68BE
:1057300009F1980606EB04164946BEF10C0F36D85F
:10574000DFE80EF0073535355735353582353535D7
:10575000AC00136ADFF8C09123F001031362136AEF
:10576000D2F804C0906920F4803020F073004A45DC
:1057700040F0700034D009F500694A4530D009F591
:1057800040694A452CD009F580694A4528D009F579
:1057900080694A4524D043F00303C2F804C09061F5
:1057A000C2F834801362936943F0080393613B7B32
:1057B0001BB1536C43F40043536413889BB243F012
:1057C000010313802301BEF10C0F00F28E80DFE88D
:1057D0000EF0878C8C8C958C8C8C998C8C8C9D008D
:1057E00023F00E032CF4407C43F003034CF4807C44
:1057F000D3E7136ADFF8209123F010031362136AD2
:10580000D2F804C0906920F0807020F4E6404A4548
:1058100040F4E0400FD009F500694A450BD043F051
:105820003003C2F804C09061C2F8388013629369F3
:1058300043F40063BAE723F0E0032CF4406C43F038
:1058400030034CF4806CECE7136ADFF8CC9023F45F
:1058500080731362106AD2F804C0D3694A4523F0FA
:10586000730343F0700310D009F500694A450CD06A
:1058700040F44070C2F804C0D361C2F83C801062AA
:10588000D36943F00803D36191E720F460602CF4FE
:10589000405C40F440704CF4805CEBE7136ADFF846
:1058A000789023F480531362106AD2F804C0D3694D
:1058B0004A4523F4E64343F4E04340F4405003D028
:1058C00009F500694A4501D14CF4804CC2F804C086
:1058D000D361C2F840801062D36943F40063D2E719
:1058E000C81802F13404C0F8984019443046A1F8B1
:1058F000A050C1F89C2003B0BDE8F083C81802F1A5
:105900003804F0E7C81802F13C04ECE7C81802F1CB
:105910004004E8E70C130020002C0140F8B5414C8E
:105920004000C6B24FF42045D4F85C01C4F8585189
:1059300087693F041CD56F1E85B13D46F8E70026F8
:105940004FF4204187697F0760D50EB1C4F8581124
:10595000416A03F8011B013AD2B23AE04FF0FF333B
:10596000C4F85831FFF742F8003018BF0120F8BDE5
:10597000476827F07F7727F4593727F47F7727F098
:10598000030746F490353D4345604FF42045C4F885
:1059900058518769BF072ED54FF420458162C4F85E
:1059A0005851002187697F062AD509B1C4F858519A
:1059B00045681D4925F07F7525F4593525F47F7517
:1059C00041EA024125F003053143294341604FF488
:1059D0002045C4F85851D4F85C01002AAFD14FF4E7
:1059E00020438169890617D50AB1C4F858312023AC
:1059F000C3610120F8BD6F1E002DAFD03D46C8E742
:105A00006F1E0121002DA9D03D46CBE74F1E012678
:105A10000029A3D0394695E7591E0122002B9DD0BD
:105A20000B46DEE70C1300200024000207B502AB92
:105A300003F8012D0122FEF7EDFF03B05DF804FB32
:105A400013B5012204466B4602210C20FFF766FFC6
:105A500010B9002002B010BD9DF80030DA07F8D56B
:105A60006B46072203210C20FFF758FF0028F0D0D7
:105A70009DF806309B07ECD19DF801209DF8003081
:105A80009DF8031043EA02231BB21D4A07EE903A29
:105A900092ED007AF8EEE77A0C2067EE877A92EDC5
:105AA000017AFDEEE77A17EE903A23809DF80230F6
:105AB00043EA01231BB207EE903AF8EEE77A9DF82D
:105AC000051067EE877A92ED027AFDEEE77A012201
:105AD00017EE903A63809DF8043043EA01231BB22D
:105AE00007EE903AF8EEE77A0A2167EE877AFDEE44
:105AF000E77A17EE903AA380FFF798FFAAE700BF76
:105B00003801002007B500220A210C20FFF78EFF84
