:020000040800F2
:1000000000A000205DF80008C5F80008C5F8000849
:10001000C5F80008C5F80008C5F800080000000091
:10002000000000000000000000000000C5F800080B
:10003000C5F8000800000000C5F800086D4A000877
:10004000C5F80008C5F80008C5F80008C5F800089C
:10005000C5F80008C5F80008C5F80008C5F800088C
:10006000C5F800087D4A0008C5F80008C5F8000872
:10007000C5F80008C5F80008B59B0008C5F80008D9
:10008000C5F80008C5F80008C5F80008C5F800085C
:10009000C5F80008C5F80008C5F80008C5F800084C
:1000A000C5F80008C5F80008C5F80008C5F800083C
:1000B000C5F80008C5F80008C5F80008C5F800082C
:1000C000C5F80008C5F80008C5F80008C5F800081C
:1000D000C5F80008E9850008DD850008C5F80008B6
:1000E000814A0008C5F80008C5F80008C5F80008EE
:1000F000C5F80008C5F80008C5F80008C5F80008EC
:10010000000000000000000000000000C5F800082A
:10011000C5F80008C5F80008C5F80008C5F80008CB
:10012000C5F80008C5F80008C5F80008C5F80008BB
:10013000C5F80008C5F80008000000000000000035
:10014000C5F80008C5F80008C5F800080000000060
:10015000000000000000000000000000000000009F
:100160000000000000000000C5F80008C5F8000805
:10017000C5F80008000000000000000000000000BA
:0801800000000000C5F80008B2
:1001C0002DE9F04FB3B007F0CDFC18B907F034FEBD
:1001D0000BF008F8BF4DC04C07F0EAFC2B7843F059
:1001E00001032B70BD4B4FF47002C3F8882000232D
:1001F000089309930A93236843F4803323602368A8
:1002000003F400330993089B01330893099B1BB93E
:10021000089BB3F5A04FF2D1236813F4003318BF45
:1002200001230993099B012B40F0778202230A9353
:10023000AB4B12221A606368636063686360636833
:1002400043F480636360636823F47C1363606368D2
:1002500043F4E8136360236843F0807323602368EA
:100260009901FCD5636823F003036360636843F07E
:1002700002036360636803F00C03082BFAD10A9B46
:10028000964F6B60974BFB60636A636ADFF89C82F2
:10029000DFF89CB2DFF89CA243F08073636263696D
:1002A00043F4FC0332AE636103238DF87A3041F6E8
:1002B000FF7326F8503D4FF09040314603F062FA4C
:1002C0004FF6FF7331468848ADF8783003F05AFA9C
:1002D0003146404603F056FA3146844803F052FA5C
:1002E0003146834803F04EFA3146824803F04AFA19
:1002F000304609F021F81E9B7F4AB3FBF2F37F4A98
:10030000DFF834E213607E4B7E4A4FF0000CC3F8F6
:1003100000C0C3F804C07C4B5A60F02287F8232049
:100320000722C3F808C01A60DBF80830CAF80030AA
:10033000BEE80F0037460FC7BEE80F000FC79EE8A4
:100340000F0087E80F00636943F40023636163696A
:1003500043F400236361636943F4002363616369C9
:1003600043F4003363614FF0904310221A8520223A
:100370001A8540221A854FF40043C8F818304FF40C
:100380008043C8F818304FF40053C8F81830674657
:10039000CDF80CA0391DF0593144083703F0F2F9BB
:1003A000302FF7D1039B594AD3F80090584BDFF810
:1003B0008C811A60574B04221A7000213A4640463D
:1003C00010F0E0FF0127002188F8001088F80C7079
:1003D00088F8181088F824101C2217A810F0D2FFF3
:1003E00019F4802F08BF4C4BDFF8FC8008BF1F704A
:1003F0002B784A4FDFF8489143F004032B70484BA9
:100400001F60636943F480236361E36943F400136D
:10041000E361236B23F010032363236B43F010038A
:100420002363D8F8243023F00F03C8F82430D8F819
:10043000243043F00403C8F82430D8F8243023F0E3
:10044000F003C8F82430D8F8243043F04003C8F84B
:10045000243002234FF0000A4FF480728DF87C3074
:10046000049331464FF0030340468DF87D301E92D1
:100470008DF87EA08DF87FA00AF054FD4FF4007235
:10048000314640461E920AF04DFD3A68039B22F029
:1004900001023A603968234A0A403A60224A3A61C6
:1004A0003A6842F001023A60C7F808A0C7F80CA009
:1004B000C7F808A0BA6842F40042BA603A683A60E5
:1004C0007A6822F0784222F400427A603A6842F078
:1004D000010237E0880700200010024000ED00E034
:1004E000002002400005FA0500040048000C004806
:1004F000001000480014004840420F002C0C00205F
:10050000D00B00203F19010010E000E01C0F00207C
:10051000601E00203C0A00207C07002000540040A0
:10052000CC0B0020FFE0CF007A25E0000008004857
:10053000A00D0020F4120020D8150108400A002068
:100540008C1900203A601F6810225146484610F06E
:1005500019FF049B8DF851304FF6FF724FF00303E3
:1005600007F0020713928DF852A08DF853A08DF872
:10057000503087B132A9012741F87C7D40460AF00E
:10058000D1FC0C2389F80030072389F801A089F8F1
:10059000033089F802704FF4D87008F0E9FC636901
:1005A0005F4843F0805343F00203636108F0E0FCCE
:1005B000636943F0005343F002036361594C2046E2
:1005C0000AF0C7FB30460AF099FB4FF48072564B95
:1005D00024924FF480621E932592544B1F93202245
:1005E00000232046269231464FF400522093229356
:1005F000239327922893ADF884700AF08CFB23682C
:1006000043F0010323604A4CA36823F04053A360E6
:10061000A36843F08053A3600A2004F0B9F9A368EB
:1006200023F08043A360A368A360A36843F0004362
:10063000A360A368002BFCDBA3683E4ADFF8F080D0
:1006400023F04053A360A36843F00053A360916874
:10065000394B0B4043F468339360E268374B1340E7
:1006600043F40053E360236B013F23F00F031F4368
:1006700027630122002409EB0403997841B1571C38
:10068000FFB2DB7819F8041040460AF0EFFB3A4657
:100690000434102CEFD1264B9A6842F001029A6084
:1006A0001A68D207FCD5DA6822F00202DA60DA684A
:1006B00042F00202DA60DA6842F00102DA609A6817
:1006C00042F004029A60BBF9E830002B3ED007EEFE
:1006D000903ADFED1B6ABBF9EA301A4AF8EEE77A86
:1006E00007EE103A67EEA67ABBF9EC30CDED1E7A34
:1006F00007EE903AB8EEC77AF8EEE77A002127EED7
:10070000267A67EEA67A117030460F498DED1F7A72
:10071000CDED207A0AF0C4FC20E001230A93AEE577
:100720000036001058040240400400509C1900207C
:100730000004005000070050E010FCFF07C0FFFD60
:1007400035FA8E3C9600002064190020BBF9EA209F
:10075000002ABCD1BBF9EC20002AB8D1DFF85883BD
:10076000BBF8F030DFF854A3059300249BF8EF307A
:10077000C8F8004010222146C8F80440C8F80840D4
:10078000BE4804932C729BF8F77010F0FBFDBC4B35
:10079000A5F809402320CAF80040CAF80440CAF866
:1007A00008401C6004F0F4F80BAA0121752007F042
:1007B0006AFFD146F0B1B34BCAF80430B24BCAF865
:1007C00008300FAA4323012120468AF8003007F0A1
:1007D0005AFF9DF83C3003F07E038DF83C30002832
:1007E00000F0F480682B40F0F18001236B721D2330
:1007F0008AF800306A7AA54B06930021042A197002
:1008000040F031879D4BA24AA24C1A60A24A5A601E
:10081000A24ADA602268079142F0010020609A46FD
:100820004FF0010940F2022040F2FD1E049B0A2B0A
:1008300028BF002309FA03F111EA000C40F01987E0
:1008400011EA0E0F00F01587954B83F800C0954B09
:10085000C8F8003042F00302934BC8F8043022601D
:1008600023689B0702D5D8F800309847DAF80030A3
:100870000598DFF84C8298474FF00009CA4688F87F
:1008800000A01FB1BB1E022B00F2E1803346012203
:1008900000210C208DF8789003F0B4F8002800F0C7
:1008A000D6809DF87830482B40F0D1807F4B804A2D
:1008B0001A60804A5A60062388F80030236843F0A3
:1008C000080323609BF8E4300BB1069A13709BF881
:1008D000E5300BB1724A13709BF8E6300BB188F823
:1008E00000309BF8F830042B00F2B880012404FAA1
:1008F00003F212F0160F64D112F0090F00F0AC8071
:100900000A2004F045F813AB2246A021772003F01B
:1009100079F80746002854D022461E21772003F09C
:10092000F9F804F019F8044604F016F8001BB0F5C5
:100930002F6FF9D3DFF88C810024A246C146A4F1C1
:10094000600133460222C9B277208DF878A08DF875
:1009500079A003F057F89DF878209DF8793043EAA4
:10096000022324F808300234102CE8D1B8F80E2005
:10097000002302F00F0402F47F42A8F80E2019466B
:10098000481039F81000002818BF0027CE0746BFCE
:10099000C0B2434083EA102308201E0448BF83F4FA
:1009A000C05301384FEA4303F7D101311029E7D191
:1009B0002243A9F80E2027B9C3F303339C4200F069
:1009C00063862B7A43F020032B724CE09DF82C3089
:1009D00003F07E03682B8DF82C3033D102230621DF
:1009E0006B723246D9F80430084698479DF87D303E
:1009F0009DF87B209B00520002F0020203F00403EA
:100A000013439DF8792002F001021343DAB25BB17F
:100A1000012A02D10023AB72ECE6022A01D10123A4
:100A2000F9E7022003F0C3FFD9F8043013AA01212B
:100A30000C2098479DF84C3013F00F03F1D0042B95
:100A4000EDD1E7E7702B04BF04236B72D2E6012FD0
:100A50007FF638AF002712E7012BB2D00D4A13689A
:100A600043F0040313606B68012B02BF2B7A43F041
:100A700040032B722C7A3CB32046D3E7EC130020C2
:100A800084170020878600087D860008F004002077
:100A9000D5860008D8090020F585000890C1793D69
:100AA000500500207D870008398600086C1300205F
:100AB000ED3B0008293B0008440500207417002086
:100AC00074130020A01400202B7843F002032B7035
:100AD000AD4D4FF480432B854FF40043AB6110269E
:100AE000013E15D0AB8A9BB283F48043AB82AB8AC4
:100AF0009BB283F40043AB82AB8A9BB283F4005376
:100B0000AB82192003F044FF192003F041FFE7E70F
:100B10004FF40043AB614FF48043AB619B4E4FF405
:100B20000053AB613268100705D5994B1B68984795
:100B3000984B01221A70984BDFED986A1B68984D0C
:100B40001A7B984B1A80984B1B8807EE103AB8EE28
:100B5000C77A964BC6EE877A1B22FF2128469FED67
:100B6000947A67EE877AC3ED007A10F00BFC0022CE
:100B70002A7032688F4B012112F0020F197028463B
:100B800004D06970032119700221A970510704D59E
:100B900019784D1C1D700325455412F00A0F40F0C2
:100BA0008485039A11688A0604D51A78551C1D702D
:100BB000072585549BF80560082E01D00E2E04D120
:100BC0001A78551C1D700B2585541A780C278754EC
:100BD000551C4F0748BF0232EDB21D7042BF1A705C
:100BE000102242551A781227551CEDB287544F0532
:100BF0001D7004D59BF8A071002F40F065858D0510
:100C000004D51A78551C1D7015258554182E0BD146
:100C10001A7816258554551CEDB217274755D51C53
:100C20000232D2B21D708654CA0504D51A78511CFE
:100C300019701A238354982200215F485E4DDFF813
:100C4000A4A110F09FFB012003F0B4FD4C2758B382
:100C5000012C29DC07FB04F905EB090898F84A6028
:100C600016B10134E4B2F2E7037990F9000001967D
:100C70000AEB8303032200921B6B3246012103F02F
:100C80003BFD834660B104FB07504C22314610F017
:100C900079FB01231C4445F809B088F84A30E4B2D6
:100CA000012003F065FDD2E7444B2A681A60444BEB
:100CB000444D454A1D60002313809370434A444EBF
:100CC00013605360434ADFF820811468424ADFF81A
:100CD0001CC11560414AE8891370A5F58E75B5F8F9
:100CE0002C21643204F17D010FFA80FE12B2A3F1CF
:100CF0000807FFB2022FD8F8007098BF26F813201B
:100D000007F5167788BF26F813E04CF823700133F7
:100D1000122BECD1324B1F6817F4805F08BFB5F976
:100D200030E1A6F806E09846CD34A1421CD00B78FD
:100D300083B98A78CB789A420CDA6AB1013A02EB2D
:100D4000820202EB820202F561734A7804329BB29E
:100D500026F812300431E8E7013303EB830303EB99
:100D6000830303F56173F0E73B074ED595F8242123
:100D7000062A44D8DFE812F03C0091009400BF003E
:100D8000DA00F500F50000BF00080048D80900208F
:100D90006C13002090130020581500200AE81C4115
:100DA000DD090020A8050020640000208814002030
:100DB0000000C842DC090020DC050020D80B002020
:100DC00070090020BC0E0020081500202C15002002
:100DD000F8120020C4140020CC140020F3080020D6
:100DE000F4120020D8150108A41500208C09002059
:100DF00045F2F052794B1A8005F07EFB28B90820A5
:100E00000AF0E0F9764B774A1A60D8F80020764B62
:100E100012F4804F04D01221197071497348086090
:100E200042F20100024202F4005140F053841A7869
:100E30006F4CDFF808B2DFF808A2043A5A7003F0EA
:100E40008BFD6C4B18606B79052B02BF6A4B4FF41E
:100E5000C8721A8006F0FAFA684B4FF47A721A8058
:100E6000674B002222601A6099462368002B40F0ED
:100E7000EF80232703F070FD07F062FA0A2003F0E9
:100E800087FD013FF6D107F02FFADBF80030236031
:100E9000DAF80030C9F80030E7E742F6F822A9E7AF
:100EA0004E4B42F6F8221A80564A0A23000190FB64
:100EB000F3F00023A0F5B06042F823000133122BB9
:100EC000FAD1474A50491160474A4020137003F055
:100ED00071FC002893D001234FF0070990F900001E
:100EE0004A4A8DE808024A4B402103F005FC0030D5
:100EF00018BF012082E7394B42F6F8221A80384B9E
:100F0000444A1A60384B10221A70402003F052FCF9
:100F100000283FF474AF01234FF0000C90F900005B
:100F20003D4A8DE808104FF4E133DDE72B4B42F6E4
:100F3000F8221A802A4B394A1A602B4B08221A7061
:100F4000402003F037FC00283FF459AF01234FF055
:100F5000000E90F90000324A8DE808404FF4E1336A
:100F6000C2E71E4B2F4F304C3048DFF8D890DFF8E7
:100F7000D8C0DFF8D8E042F6F82119801A4B0C21CE
:100F80001970062A4FF000033B70237003701BD0CA
:100F90001B2389F8003005238CF800108EF80030F0
:100FA0004FF4E1340E4B224A1A60402003F002FC59
:100FB00000283FF424AF0123002790F900001D4AC8
:100FC0008DE8880023468FE7212389F800308CF8CC
:100FD00000108EF80020184CE4E700BF76060020D1
:100FE00054000020ED9000089C0D0020C5900008E2
:100FF00028140020AC0500205E1E0020800900207F
:10100000241400206418002091900008ED9200083C
:10101000A08601007D9000084992000865900008B4
:1010200001920008F2170020D5180020D4180020E3
:10103000918F0008F190000890D0030088150020DF
:1010400084150020D6180020F1170020D7180020A2
:101050000023DFF8C4B3DFF8C4A32360C9F800306D
:101060000F270523039303F077FC07F069F90A20A3
:1010700003F08EFC039B013BF4D107F035F92368A4
:10108000DBF80020D9F800101A44DAF800302260AA
:101090000B44013FC9F80030E3D10F2192FBF1F27C
:1010A0002260C74A93FBF1F3C9F80030137843F08C
:1010B00008031370C34A137823F002031370D8F89F
:1010C000003040F602021A4209D0BF4BBF4A1A60F4
:1010D000BF4B03221A70BF4B1F80BF4B1F80AB68F2
:1010E000BE4CC8F80030BE4BDFF834B301221A7092
:1010F0002378BC4AA14663F07F0309F80C3B4FF408
:1011000096637381B84B1A609BE80F000BAE86E8BC
:101110000F000BF110030FCB0DF13C0E8EE80F000A
:101120000BF120030FCB0DF14C0A8AE80F000BF1F5
:1011300030030FCB0DF1780C8CE80F009AE80F000C
:1011400089E80F009CE80F0004F11C0989E80F00F2
:101150009EE80F0004F12C0C8CE80F0096E80F00BD
:1011600004F13C0E8EE80F00A04E4FF4967003F091
:101170000FFC00214FF48C729D4810F003F9F369C5
:1011800043F00703F361B36943F4A523B3617369C3
:1011900043F4C023736104F1100104F1600E4FF0B9
:1011A0000F0910318E4540F03F816B790E2B40F0D6
:1011B000548101238DF86C308E4B1A68042F00F097
:1011C00055817B1C02EBC30111F9061C022940F07A
:1011D0004B81FF00BB1CD31804D01744BB880033DD
:1011E00018BF01238DF86130D8F80030C3F34002F6
:1011F0008DF86220C3F380128DF86420C3F340326F
:101200008DF85C20C3F3C0328DF85F2013F40062C8
:1012100004D095F81821911E4A424A418DF8602069
:10122000C3F300428DF86520C3F3C0028DF85E2041
:1012300000228DF86620C3F300528DF86720B5F8C0
:10124000D620ADF86A20B5F8E220ADF86820C3F3E7
:10125000804203F0010003F008018DF86320DB04F5
:10126000B5F8E02048BFB5F8DC30B5F8D470ADF87B
:10127000707048BFADF87030B2F5FA7FC4BF00237C
:10128000ADF870305C4BADF86E2095F868211A709F
:101290000023A4F84C309DF86C308DF85D00002BD5
:1012A00014BF0222002200B901B10132534B03EBFB
:1012B00082034FF0000BD3F890309A1E063303924E
:1012C0000493039A32F8023F03924FF6FF7293425F
:1012D00040F0CE804A4BDFF84CE14A4F04221A70AE
:1012E0000024E3190FCB04EB0E051034402C85E8E5
:1012F0000F00F6D1444BD8F800201D68434B4448FA
:101300001C6802F480520023002A00F0A981B4F97D
:10131000041020F8131001330C2BF5D10225012401
:101320008DF87A408DF87B5073693A4F4FF0100872
:1013300043F48023ADF878801EA97361384602F02B
:1013400021FAA7F828808DF87A408DF87B507369D0
:101350004FF090484FF0800943F40033ADF8789097
:101360001EA973614FF0904002F00CFAC8F8189073
:101370008DF87A408DF87B507369ADF8785043F45E
:10138000802373611EA9384602F0FCF93D858DF873
:101390007A408DF87B5073694FF4004743F4003373
:1013A000ADF878701EA97361404602F0EBF9C8F8F9
:1013B00018701E2003F0ECFA33B0BDE8F08F00BFC8
:1013C000751300209113002088190020AE0E002014
:1013D000C0050020C2050020C405002088070020A9
:1013E0007C07002040420F000C000020001002404B
:1013F000B4150020601E0020040B0020D815010841
:10140000320C0020781601083C1500203815002009
:10141000441E002000040048881500208415002088
:1014200028160108BC06002011F8063C51F8100CE3
:1014300011F805CC03F00702DB0800EB83039200F0
:10144000186A0CFA02FC09FA02F220EA02021A6295
:101450001A6A4CEA02021A62A3E603F0EF03082BB1
:101460003FF4A7AE0023A5E61F46A7E60023B9E692
:101470009DF86220DDB21B0A42B104EB05129F48C1
:101480001169814202D1928A012A51D0022B55D191
:101490009DF85C20002A4BD0994F9DF8672007EB00
:1014A000051732B19DF86C201AB92A1F032A40F2A1
:1014B000C580012BDAB246D1924BE76504EB0515E6
:1014C0004FF00009FF2283F8442083F8452083F879
:1014D0000090AA8AC3F80490C3F80890C3F80C904F
:1014E000C3F8409083F8469083F847904FF0020A83
:1014F0006B7E286984F850901EA98DF87A30ADF87B
:1015000078208DF87BA002F03DF95246A97DE8686D
:1015100002F088F8384604F0C3FF7B4B7B4A236611
:101520007B4B6366C4F86890111F384606F0FEFFD7
:10153000049B039A93427FF4C4AECBE6012BABD15C
:101540009DF85D20A6E7022A41D15FFA8BF14FF0AA
:101550001C0A0AFB01FA04EB0A0904EB0515012138
:101560000023A88A89F85010697E89F8523089F8DA
:101570005A3089F851B0ADF878008DF87A102869A2
:10158000C9F85C701EA905938DF87B2002F0FAF86B
:10159000059BA97DE8681A4602F044F8384604F035
:1015A0007FFF5C4AC9F860205B495C4AC9F8642047
:1015B000059BC9F868300AF114020AF1100A0A44BE
:1015C0003846514406F0B2FF0BF1010BB0E7032A95
:1015D00031D19DF86330524D63B194F84D900023A2
:1015E0004FF6FF720821384602F0F6F84D4B45F8E9
:1015F000290013E0BDF86E2094F84D90BDF87030CE
:10160000B2F5FA7F11DD4849B1FBF2F2384692B2E9
:10161000482102F0E1F8454B45F82900C36094F8F1
:101620004D30013384F84D3082E74149B1FBF2F28D
:10163000012192B2D7E7042A7FF47AAFBDF868306F
:101640003B4A92FBF3F20121BDF86A3092B2384670
:1016500002F0C2F894F84C30013384F84C3067E75C
:10166000B5F9041055E62B7A43F002032B72FFF70D
:1016700038B90021012B04913FF6D8A82D4B9DF8D5
:101680001C201A70FFF7ECB82B4B42F210721A8034
:101690005A802A4A5A602A4A9A602A4ADA602A4AB2
:1016A0001A612A4A5A61FFF7D9B91A78042181547C
:1016B000511CC9B205254554D11C0232D2B2197051
:1016C00006218154FFF76DBA02321A701322425577
:1016D000FFF795BA1E4844F62064048021B1082122
:1016E00019701C491C480860D0077FF5A0AB0C227C
:1016F0001A70184A19491160FFF799BB0004004895
:1017000094070020880A0020E1330008EC0700203D
:10171000B93400082D370008D8070020B933000875
:10172000D40A0020C934000800A24A04DD340008AD
:1017300040420F00500500208C150020E77A000879
:101740001B7B0008DD7A0008197B00083D79000842
:101750007606002054000020E1900008D590000893
:10176000A9490A682DE9F04F02F59C43A74C2033A4
:101770002360A74B8BB01D780591002D3AD1A54F62
:10178000DFF8A082DFF8CCA297F80090E9B24945D3
:101790000E4680F2A4800729D8BFD8F8003038461A
:1017A000D8BF595CDAF800309847032E1DDCD8F812
:1017B000003006F10F0B03EB8B0133F82B204B8825
:1017C00098B1811A4FF47A709B1A484390FBF3F05A
:1017D00040F2EE2300F57A709842B8BF184640F602
:1017E000CA039842A8BF184680B204EB46060135EA
:1017F000B080C9E7884909688A4201D9013D1D7056
:10180000864B00931A6812F4805F05D0844B1B68E6
:10181000DD0701D409F0D2FD059B1968814B1A68D8
:10182000937A002B00F03481013B7F48127B30F922
:1018300013301AB1C3F53B6308331BB2A3F57A73B7
:10184000B3F57A7FA8BF4FF47A7323EAE37307EE08
:10185000903ADFED766AF8EEE77A87EEA67A744A78
:10186000DFED747A67EE277AFCEEE77A17EE903AAE
:101870001380009BDFF8E0911B6813F4807F00F079
:1018800054816D4B6D4D994203D9AB78002B00F01C
:101890004787AB78002B00F04881614F95F82160B5
:1018A0003B6899F800B00297012E03F08063DFF8DF
:1018B00094A1634F01930BF0040B14BF4FF0030886
:1018C0004FF0000895F82010052900F22881DFE884
:1018D00011F01B0193019901BC01D401F1014F4B9F
:1018E0001A68584B029342F20101186800900A40AE
:1018F000039206D094F8293084F82830524B5A7855
:101900001A7094F828601EB14F4B1E7886F00106BD
:101910000F2384F82A30434B94F82BA01B680193C3
:101920000323BAFBF3F303EB4303AAEB0303DBB29A
:101930005B000493009B454FDFF8ECB003F5167392
:10194000002507F1C002069307F172084D4542DAFF
:10195000690086B137F91500019B9B8A80B29842D5
:10196000C0F2C686019BDB8A984200F3C186069BC3
:1019700042F8253003E03046EEE73BF80100039BD8
:101980001BB92BF815000135E0E7314B062101FBAF
:10199000053E049B2EF8030094F8743033B9BAF175
:1019A000020FEEDD4FF0010384F874304FF00001B8
:1019B00028F815106B0000203EF8101033F808C00E
:1019C00001306144032823F80810F5D10BB293FBD2
:1019D000F0F080B2D5E794F82A300F2B174B3DD1A9
:1019E0000F4A1268560139D4029AD96812689A606F
:1019F000521AC82A02D9012283F8212094F82B30E8
:101A0000013384F82B30FBE658130020C80800206F
:101A1000381A00209C0D0020341A0020F4120020F7
:101A20009C170020CC140020F812002000007A44FB
:101A3000340A002000C07F44404B4C0008150020B1
:101A400004150020A415002011000020CC0800205F
:101A5000F40800205400002091130020B74AB84E2B
:101A6000012151701170029A99681268DA60521A55
:101A700059688A4284BF002283F8212000254D4501
:101A8000BCDAE8B207F082FF26F815000135F6E768
:101A90000098006800047FF5ECAED4F89000081AB6
:101AA0000028FFF6E6AE01F59C402030C4F8900017
:101AB000A448D27A4579A448A44E30F8150080B2E3
:101AC00090FBF2F094F89420013202F00F0284F8B7
:101AD0009420224482F8950018461A46855D01300C
:101AE0002A44102812B2F9D192FBF0F212B2002A65
:101AF00003DB642A1346A8BF642307EE903ADFEDA8
:101B0000946AF8EEE77AA8E6BBF1000F68D0012EE0
:101B100005D0052009F02EFB8E4B02221A70B8F179
:101B2000000F02D0404602F0D5FE8B4DB5F8DE0026
:101B300004F0AAFDAA46064618B905F06FFC05F0A8
:101B40005DFC99F800305B0708D5009B1B68DF0639
:101B500004D5824B1B78DD0640F1EE8500239AF810
:101B600072819AF87311BAF82C71BAF82EE17448A0
:101B70001A4630F912509B08BD42C4BF63F07F0380
:101B8000DBB201327545B8BF43F04003042AF0D1FF
:101B900094F8B1209A4240F0C18094F8B220F92A1A
:101BA00002DC013284F8B2206D4F84F8B1303B780A
:101BB0006C4D002B40F0E5802B68D80740F1D880B1
:101BC000002E40F0AD8099F80030DA0740F1D9805E
:101BD0005B0702D4012384F8B33009F0A5FBD0E001
:101BE000019B4FF4806023B109F0DEFA00232B61E2
:101BF00095E709F0C9FAF9E7012E7FF463AE0521F4
:101C000000F096BD012E04BF052185F82010BBF120
:101C1000000F0CD0D4F8A810B1F90E004849088084
:101C20004880888038684088C8804FF00208DAF819
:101C3000000069698142C0F07785BBF1000F00F0B8
:101C40007385012E3FF43EAE69E799F8001041F02C
:101C5000020189F8001009F0B1FBDAF80000E96927
:101C60000144A961042185F820104FF4806009F037
:101C70008BFA052009F072FA24E6012E14D1DAF865
:101C80000000A9698142BFF44AAF354B197821B9E8
:101C9000029B1968CA073FF542AF99F8001021F07E
:101CA000020189F80010AAE7DAF80020EB69134472
:101CB000AB6134E73868DAF80030C188642000FB93
:101CC00001312961002185F82010E970CDE79AF8EB
:101CD00074317EB9002B00F03785234B1A68D4F895
:101CE000AC309B1A002B80F22F8509F067FB84F83B
:101CF000B06033E73BB11C4A12684FF47A7101FBC4
:101D00000323C4F8AC3094F8B030002B3FF426AF76
:101D100002F0D6FD002384F8B0301FE7002241E72F
:101D2000D4F8B4300A2B2CDC104B1B885E0728D467
:101D300005F074FB05F062FB4FE700BF11000020C7
:101D4000F81200208C1900209C1900205D09002049
:101D50000000C8425D1E0020A00D00207513002069
:101D6000580000209C170020A4150020661E0020AB
:101D700099F80030580704D594F82830002B40F02B
:101D8000E98494F8B2309B4E142B2ED13B78C3B12A
:101D900094F8B1305F2B06D199F8003013F0040BA2
:101DA0006DD009F00BFBB8F1000F0AD094F8B130F8
:101DB0007D2B06D199F8003013F0040B65D009F0A3
:101DC000FDFA99F8003013F004020ED194F8B13006
:101DD000572B60D14FF47A73A4F8B830864B1B6848
:101DE00013F0080301D1854A1380009B1B68580734
:101DF00026D594F8BC309BB199F8003059070FD51F
:101E00007F4BB3F90620BAF82C319A4208DD2B68D3
:101E100013F0010302BF3222A4F8BE2084F8BC30C4
:101E20002B68DA0340F1A28094F8C0302BB994F803
:101E3000BA3013B93223A4F8BE30012384F8C0307D
:101E4000366800232B6006F17F0706F1CF084FF0BC
:101E5000010BB84500F09A803A787B789A420CDA08
:101E6000394617F8010C02F007FD30B117F8023CB3
:101E70002A680BFA03F313432B600437E9E70B20BE
:101E800002F028FD84F8B2B08DE70B2002F022FDAD
:101E900084F8B2B095E700990968490740F1628477
:101EA0005A2B40F05F8494F8BA302BB1012384F8A8
:101EB000BA2084F8BB3098E794F8BC3083F0010373
:101EC00084F8BC301BB10C2002F004FD8DE70D201E
:101ED000FAE75B2B00F05C845E2B40F04884032023
:101EE00000F057BCB8F1000F02D07E2B00F04C84FC
:101EF00094F8B130972B04D1424B4FF4C8721A803A
:101F000073E7A72B05D1404A137843F004031370FD
:101F10006BE70022BB2B099217D10223ADF82630C4
:101F20003368BDF82410B3F85C200A44A3F85C20A1
:101F3000BDF82610B3F85E200A44A3F85E2009F02D
:101F4000E9F9002384F8B2304FE7B72B02D14FF6FE
:101F5000FE73E3E7BE2B03D10223ADF82430DFE7A5
:101F6000BD2B7FF442AF4FF6FE73F6E794F8BA301C
:101F7000002B3FF465AF99F8003013F0040302BF63
:101F800084F8BA30012384F8BB3059E71F4F06F1BB
:101F9000CD054FF00C0806F215164FF0010BB542B7
:101FA00038D06A78AB789A4221DA691C287802F036
:101FB00063FCE0B16979EB78154A95F804C008FB39
:101FC00001FE013B07EB0E0003EB430313444268A1
:101FD00093420CD043600023836094F8C13007F82B
:101FE0000EC00BFA01F123EA010184F8C110063595
:101FF000D5E700BFC4140020D8090020240A00201F
:10200000F81200205E1E002075130020D01400205E
:10201000E6160108C84AC94994F82830D2F8008069
:102020000F68C74D019300260292042E00F0C08273
:102030006968002962D00A78002A5FD0A868381A37
:1020400000280BDB07F5FA70A860012000FA06FEF5
:1020500094F8C10020EA0E0084F8C100019B002B17
:102060004CD028784B780430C0B2002B40F0698205
:10207000B44B33F910E0BAF82A0100F1C80CE64578
:1020800028DD91F802B094F8C1103141CB0735D466
:10209000BBF1000FCCBF02200120039202F040FCF4
:1020A000039A511E13293BD8DFE811F02B004200A0
:1020B0004F0061007A008200E5005601BA01EB0191
:1020C0001A023A0061006D008200E5005601DC0052
:1020D0003C01B101C838864504DA91F802B0CBF171
:1020E000000BD0E7012202FA06F194F8C12022EA9F
:1020F000010284F8C12007F5FA72AA6001360C3596
:1021000093E798F800209344BBF1FA0FA8BF4FF073
:10211000FA0B2BEAEB7B88F800B0404602F090FB0C
:1021200094F8C1100122B2400A4384F8C120E5E7C7
:1021300098F801209344BBF1640FA8BF4FF0640BE3
:102140002BEAEB7B88F801B0E7E798F8032093448B
:10215000BBF1640FA8BF4FF0640B2BEAEB7B7A4A0C
:1021600088F803B01168404602F02AFBD8E798F8D7
:10217000051059446429A8BF642121EAE1710D2AA0
:1021800088F80510CCD098F804209344BBF1640F74
:10219000A8BF4FF0640B2BEAEB7B88F804B0BFE7D5
:1021A00098F8062093448BF3080B88F806B0B7E73D
:1021B00066490968087802283DD107EE90BAF8EE22
:1021C000E76AB2EE047AC6EE877A91ED0A7A77EE84
:1021D000877AF5EEC07AF1EE10FA29D49FED5C7A99
:1021E000F4EE477AF1EE10FAC8BFF0EE477A0F2A04
:1021F000C1ED0A7A94D007EE90BAF8EEE76AB2EE33
:10220000047AC6EE877A91ED097A77EE877AF5EE51
:10221000C07AF1EE10FA2BD49FED4D7AF4EE477AA6
:10222000F1EE10FAC8BFF0EE477AC1ED097A77E710
:10223000DFED487ADBE788785844C828A8BFC82073
:1022400020EAE0700F2A88703FF46AAF4A7893441E
:10225000BBF1C80FA8BF4FF0C80B2BEAEB7B81F88E
:1022600001B05DE7394A11680A78022AC3D0EDE768
:10227000DFED387AD9E735490968087802283AD17C
:1022800007EE90BA9FED327AF8EEE76AC6EE877AEB
:10229000D1ED0D6A77EEA67AF5EEC07AF1EE10FA7E
:1022A00026D4F4EE477AF1EE10FAC8BFF0EE477A82
:1022B000102AC1ED0D7A3FF433AF07EE90BA9FEDCF
:1022C000247AF8EEE76AC6EE877AD1ED0C6A77EEEB
:1022D000A67AF5EEC07AF1EE10FA29D4F4EE477A38
:1022E000F1EE10FAC8BFF0EE477AC1ED0C7A17E7AD
:1022F000DFED187ADCE7487B5844C828A8BFC8201F
:1023000020EAE070102A48733FF40AAF0A7B934436
:10231000BBF1C80FA8BF4FF0C80B2BEAEB7B81F8CD
:102320000CB0FDE6094A11680A78022AC5D0EDE72B
:10233000DFED087AD9E700BFB0140020A415002013
:10234000D0140020F8120020DC120020E01200203F
:102350000000C84200000000C0490968087802284F
:102360003ED107EE90BA9FEDBE7AF8EEE76AC6EE70
:10237000877A91ED107A77EE877AF5EEC07AF1EEF2
:1023800010FA2AD49FEDB77AF4EE477AF1EE10FAFC
:10239000C8BFF0EE477A112AC1ED107A3FF4C0AE03
:1023A00007EE90BA9FEDAE7AF8EEE76AC6EE877A4E
:1023B00091ED0F7A77EE877AF5EEC07AF1EE10FAAA
:1023C0002BD49FEDA87AF4EE477AF1EE10FAC8BF4D
:1023D000F0EE477AC1ED0F7AA2E6DFEDA37ADAE7F5
:1023E000087E5844C828A8BFC82020EAE070112AF7
:1023F00008763FF495AECA7D9344BBF1C80FA8BFE1
:102400004FF0C80B2BEAEB7B81F817B088E6934AB4
:1024100011680A78022AC3D0EDE7DFED937AD9E795
:102420008E4A11680A78022A1FD107EE90BAF8EE98
:10243000E76AB2EE047AC6EE877A91ED0B7A77EE10
:10244000877AF5EEC07AF1EE10FA0BD49FED857A1B
:10245000F4EE477AF1EE10FAC8BFF0EE477AC1ED1C
:102460000B7A5DE6DFED807AF9E7CA789344BBF139
:10247000C80FA8BF4FF0C80B2BEAEB7B81F803B065
:102480004EE6764A11680A78022A1DD107EE90BA04
:102490009FED747AF8EEE76AC6EE877AD1ED0E6AA0
:1024A00077EEA67AF5EEC07AF1EE10FA09D4F4EEE2
:1024B000477AF1EE10FAC8BFF0EE477AC1ED0E7A16
:1024C0002EE6DFED697AF9E78A7B9344BBF1C80F0A
:1024D000A8BF4FF0C80B2BEAEB7B81F80EB01FE6CC
:1024E0005E4A11680A78022A1FD107EE90BA9FED62
:1024F0005C7AF8EEE76AC6EE877A91ED117A77EEAC
:10250000877AF5EEC07AF1EE10FA0BD49FED557A8A
:10251000F4EE477AF1EE10FAC8BFF0EE477AC1ED5B
:10252000117AFDE5DFED507AF9E74A7E9344BBF17D
:10253000C80FA8BF4FF0C80B2BEAEB7B81F819B08E
:10254000EEE5012B7FF4ECAD0C2A7FF4E9AD474BAF
:10255000897833F910B0464B40F633008345A8BF65
:102560008346BBF5617FB8BF4FF4617B4FF4966043
:1025700090FBF1F01978ABF5617B9BFBF0FB5FFA08
:102580008BFB59453FF4CCADBBF1030FD4BF59468B
:102590000221197002FB01A2029B02F212521A6080
:1025A00005F0BCFA0BF10100C0B202F0B9F9B7E5D1
:1025B000304D314E2B6813F0020F06D1009B1B6883
:1025C000DF0506D52D4BDB781BB13368980700F18A
:1025D000ED80012008F0D8FD012704E004F01EFF83
:1025E000012008F0E1FD2A68510732D58FB30120A0
:1025F00008F0CAFD224B1B889A0704D404F00EFF92
:10260000022008F0D1FD99F800305B0708D41C4B7C
:102610001B8803F044031BB11A4B1A881A4B1A800B
:10262000336813F00A0F40F0C9802B681A054FF485
:1026300080705AD508F0B8FD9AF80530082B02D002
:102640000E2B40F0C38040200BB0BDE8F04F08F0E7
:102650009BBD022008F098FDD5E700BFE0120020E6
:1026600000007A440000C84200000000F812002078
:10267000C81400209C170020D8090020081500204D
:10268000681E0020240A0020401E0020514B1B8899
:102690005F0706D4042008F087FD4F4B1A884F4B84
:1026A0001A802B689E061CD54A4B1B88580602D4FC
:1026B000402008F079FD2B68590641BF464A118831
:1026C000474A118013F0080308D094F8C230002B59
:1026D000ABD1414B1A88424B1A80012384F8C23097
:1026E000A3E7402008F050FDE5E708F04DFDA3E723
:1026F00052F82530009883423FF63FA9E8B207928E
:1027000007F044F9032D079A3FF739A994F82A10E6
:102710000123AB4021EA030384F82A30FFF72FB9E5
:102720000123AB70FFF7B5B842F21071E9610321E4
:1027300085F82010FFF7C6B82A4B1B78002B7FF4D2
:10274000C6AA002E7FF4DFAA102002F0C3F80123EE
:10275000FFF7E1BA11B9002E7FF413AB08F02EFE9B
:10276000FFF70FBB5D2B7FF4B4AB012011E0562BBC
:1027700001D108F0CFFD3B78002B3FF4B9AB94F8C2
:10278000B1306F2B7FF4AEAB08F0CEFDFFF72DBB61
:102790000220C7B27B1E8AF8103508F023FD05F031
:1027A00007FA384602F0BCF8FFF71FBB094B1B883D
:1027B00013F001073FF412AF002714E72B68DB0684
:1027C0003FF564AF042008F0DFFC6AE70BB0BDE81A
:1027D000F08F00BF681E0020240A0020401E002049
:1027E0004C0000205800002038B5044624200D4637
:1027F00001F056FF4D2001F053FF002C094C14BF8F
:1028000021203E2001F04CFF2368002228469A71C7
:1028100001F046FF236893F84900BDE8384001F015
:102820003FBF00BF3C1E002001460020DCE710B582
:1028300001F02CFF044601F029FF04EB004010BD1D
:102840002DE9F84F4B282DED048B00F0118500F297
:10285000F080322800F050856BD8222800F04084A8
:102860002BD8032800F0CE8207D8012800F0AD82D3
:10287000022800F0B7820020C0E2042800F0C982DC
:102880000528F8D11A20FFF7CFFFC84D0024285D96
:10289000013401F005FF0B2CF9D1C54D0024285D52
:1028A000013401F0FDFE082CF9D100240020013490
:1028B00001F0F6FE072CF9D19FE2282800F0BF8432
:1028C00013D8242800F0B0842628D4D1B94C06208F
:1028D000FFF7AAFFB4F8E80001F0F4FEB4F8EA004C
:1028E00001F0F0FEB4F8EC004CE22A2800F0BA84C3
:1028F0002C28C0D1AF4C0C20FFF796FF94F8240190
:1029000001F0CEFEB4F82E0101F0DCFEB4F82A018D
:1029100001F0D8FEB4F82C0101F0D4FE94F82501A2
:1029200001F0BEFEB4F8300101F0CCFEB4F8320183
:1029300028E23D2800F0178344D8382800F07A8434
:1029400033D8342800F0EF83362894D19A4D994C2F
:1029500095F86400C0EBC000C0B2FFF765FF04F15A
:102960002006683594F97E0100230C33EA1812F929
:102970000C2C824240F0D584C0B201F091FEB4F834
:10298000800101F09FFE94F8820101F089FE94F825
:10299000830101F085FE94F8850101F081FE94F831
:1029A000840101F07DFE00F0BFBC3A2800F0D28225
:1029B0003B287FF460AF0120FFF736FF7F4B1B6899
:1029C00018780CE2452800F0C18426D8402800F091
:1029D0009A8442287FF44FAF764C1020FFF724FFF3
:1029E000607901F05DFEA06801F075FE94F82401A5
:1029F00001F056FEB4F8E80001F064FEB4F8EA0015
:102A000001F060FEB4F8EC0001F05CFEB4F81401D3
:102A100001F058FEB4F81601B4E1462800F08984AC
:102A200049287FF428AF0220FFF7FEFE614B98890A
:102A3000A8E1732800F0C38300F256816C2800F0EF
:102A4000518200F2D180662800F0168200F2958053
:102A50004D2800F0318465287FF40DAF0B20FFF77F
:102A6000E3FE574B544C188801F02CFE554B1A6866
:102A7000554B9A420CBF554B554B188880B201F00C
:102A800021FE2068C0F3C003C0F380029B0043EA2C
:102A90004203C0F340021343C0F3401243EAC203AF
:102AA00000F01000184301F00DFE4A4B26791A88F9
:102AB000494B1968494B1B7802F00100C3F38003AE
:102AC00043EA4003C2F3400043EA800302F00800F7
:102AD0000343C2F3800043EA0013C2F3801043EAC9
:102AE000401301F04000034301F08000034301F470
:102AF00080700343C2F3001043EA4023C2F3401046
:102B000043EA8023C2F3002043EAC02301F480504B
:102B1000034301F40050034301F48040034301F4F4
:102B20000040034301F48030034301F400300343C9
:102B300001F48020034301F40020034301F48010DA
:102B40000343C2F3402043EA405301F00071C2F353
:102B500080220B43002043EA8263053402460125AC
:102B6000B24280F06681115D05FA01F119421CBF85
:102B700005FA02F108430132F2E7682800F0A68165
:102B800069287FF478AE164D164E2878400000F084
:102B9000FE00FFF749FE00242B789C4280F02D8137
:102BA00036F8140001F08EFD0134F5E73F1A0108F4
:102BB0004B1A0108A00D0020D8090020C4140020E1
:102BC000661E0020CC0B0020005400408817002017
:102BD0008A170020681E00209C17002091130020F7
:102BE0009C0D0020F81200206F2800F0C78130D81B
:102BF0006D2800F086816E287FF43DAE0720FFF738
:102C000013FEC54BC54C1888FF28A8BFFF20C0B2D3
:102C100001F046FDA06D4FF6FF75A842A8BF2846FB
:102C200020EAE07080B201F04DFDB4F85C0001F0E4
:102C300049FDBB4B93F81931002B00F09081236EB6
:102C40000A205843A842A8BF284620EAE07080B274
:102C500098E0702800F0BA8172287FF40CAEB04C76
:102C60001620FFF7E1FDB4F82A0101F02BFDB4F8BE
:102C7000D00001F027FDB4F8D20001F023FDB4F834
:102C8000D40001F01FFDB4F86C0101F01BFD002021
:102C900001F006FD002001F003FD002001F000FD21
:102CA00094F8190101F0FCFC94F8260101F0F8FCFD
:102CB000002001F0F5FC9B4B1B68B3F95A000A2376
:102CC00090FBF3F080B201F0FDFC94F80E0101F0EE
:102CD000E7FC94F8120101F0E3FC94F8110101F013
:102CE000DFFC94F813017AE0A02800F08D8222D84E
:102CF000772800F049820FD8742846D075287FF4D1
:102D0000BAAD2F20FFF790FD874C14F8010F002873
:102D100073D001F0C5FCF8E77B2800F026837C28FF
:102D20007FF4A9AD0320FFF77FFD804B187801F0F9
:102D3000C9FC7F4B44E6F02800F059820AD8DD2810
:102D400000F01083DE287FF496ADFFF770FDFFF7EB
:102D50006EFD52E0FE2800F03D82FF287FF48BAD2F
:102D6000744A6E4C1188002323840122114266D1DB
:102D700001339BB25200092B92B2F7D10220FFF728
:102D800053FD208C01F09EFC37E0644F00264FF08D
:102D9000010ADFF8BC914FF0000B3B795B4540F333
:102DA000E981654B0C251BF80340002305FB03F26A
:102DB00002EB090012F80920A24200F0DC82013384
:102DC0001C2BF3D10BF1010BE7E70320FFF72CFDE0
:102DD000002001F065FC022001F062FC002001F0FF
:102DE0005FFC0AE00520FFF71FFD544D0024285D1D
:102DF000013401F055FC052CF9D10120BDEC048B08
:102E0000BDE8F88FFFF710FD022001F049FC00201B
:102E1000E2E70B20FFF708FD072001F053FC484DC7
:102E20000024285D013401F03BFC072CF9D100207F
:102E3000A8E701F050FC3A4B93F81005CFE7013BAF
:102E4000072B05D8DFE803F007090B0E1012141644
:102E50000123238492E70223FBE74023F9E74FF4A1
:102E60008073F6E78023F4E72023F2E71023F0E7EE
:102E70000823EEE70423ECE71220FFF7D5FC314BE3
:102E8000264C1B88B3F5806FD4BF01260826002589
:102E900004F1220737F9150090FBF6F0013580B2F6
:102EA00001F010FC032DF5D1208D01F00BFC608D9D
:102EB00001F008FCA08D244C01F004FC208801F0F6
:102EC00001FC608801F0FEFBA0885BE71020FFF7A3
:102ED000ABFC1E4D0024285D013401F0E1FB102CF9
:102EE000F9D18AE70D4C0620FFF79EFCB4F84600A6
:102EF00001F0E8FBB4F8480001F0E4FBB4F84C0042
:102F000040E7064C0620FFF78FFC206D01F0E3FB45
:102F1000B4F8540036E700BF301A0020D80900206A
:102F2000A00D0020C4140020211701085D1E002000
:102F300098000020661E0020DD090020311A0108DB
:102F4000371A01086400002064130020060A0020DC
:102F5000C41801080420FFF767FC002061E1206E1F
:102F600000F30F0073E6CA4C0220FFF75DFC94F8F3
:102F7000740101F095FB94F8730130E7C54C0B2008
:102F8000FFF752FC2368187801F08AFB2368587811
:102F900001F086FB002523682B440135187901F0E8
:102FA0007FFB032DF7D12368D87901F079FB2368E3
:102FB000987801F075FB2368D87801F071FB2368DD
:102FC000588901F07FFB2368187A08E7B24C21206A
:102FD000FFF72AFC23681B78022B4FF000056CD109
:102FE0009FEDAE9ADFEDAE8AB2EE048A236803EB62
:102FF000850393ED090A20EE080A0CF0ADFC80F37E
:103000000800C0B201F04CFB236803EB850393ED8D
:103010000C0A20EE090A0CF09FFC80F30800C0B2F5
:1030200001F03EFB236803EB850393ED0F0A20EECE
:10303000280A0CF091FC80F30800C0B2013501F0C1
:103040002FFB032DD2D1072D236829D193ED120A2E
:1030500020EE080A0CF080FC80F30800C0B201F0FA
:103060001FFB236893ED130A20EE080A0CF074FC92
:1030700080F30800C0B201F013FB236893F85030CE
:1030800000EE103AB8EE400A0CF066FCFF28A8BF2C
:10309000FF20C0B2013501F003FB0B2DD3D1ACE60C
:1030A0002B44587801F0FCFA23682B44187B01F07C
:1030B000F7FA23682B44D87DECE723682B44587833
:1030C00001F0EEFA23682B44187B01F0E9FA23683B
:1030D0002B440135D87D01F0E3FA0B2DEDD18CE6C0
:1030E0005020FFF7A1FBDFF8B0816E4E00250C27C2
:1030F000D8F8004004EB8504013594F87D3007FBD7
:103100000363187A01F0CCFA94F87E0001F0C8FA53
:1031100094F87F0001F0C4FA94F8800001F0C0FA3E
:10312000142DE5D169E64820FFF77EFB5A4F0025B4
:1031300006263C6806FB0544013594F8D20001F0F0
:10314000AFFA94F8CD0001F0ABFA94F8CE0001F09C
:10315000A7FA94F8CF0001F0A3FA94F8D00001F098
:103160009FFA94F8D10001F09BFA0C2DE1D144E6CE
:10317000464427E6BAF1000F3FF43FAEF0B2FFF746
:1031800053FB4FF0000A04E6474C464D2079FFF709
:103190004BFB0026671D4FF00C0823799E42BFF4BD
:1031A0002CAEF05D002308FB03F25119525D824200
:1031B00000F0F48001331C2BF5D10136EDE7082037
:1031C000FFF732FB0124E0B2013401F069FA092C67
:1031D000F9D112E60820FFF727FB002001F072FA70
:1031E000002001F06FFA002001F06CFA1FE62A4C73
:1031F0000420FFF719FB2368B3F85E0001F062FAC0
:103200002368B3F85C00BDE50C20FFF70DFB274BEE
:10321000186801F060FA264B186801F05CFA254B3B
:10322000186801F058FAE8E50420FFF7FDFA184B9A
:103230009868F6E70420FFF7F7FA154C45E5144CBB
:103240000720FFF7F1FAB4F8140101F03BFAB4F8E3
:10325000160101F037FA94F8180101F021FAB4F8D8
:103260001A018FE50120FFF7DFFA094B5879B6E51F
:10327000074C0420FFF7D8FA94F86A0101F010FA1D
:1032800094F86B0101F00CFAB4F86C017AE500BF18
:10329000A00D0020B0140020C41400200000C8427B
:1032A00000007A44C4180108D8090020ACF7FF1FB9
:1032B000B0F7FF1FB4F7FF1F3A4D3B4C287800EBE7
:1032C0004000C0B2FFF7B0FA00262B789E4204F10E
:1032D0000204BFF492AD14F8020C01F0E1F914F805
:1032E000010C00EB800000EB800000F2EE2080B2C9
:1032F00001F0E8F90136E8E70120FFF795FA2B4BDA
:1033000093F826016BE50820FFF78EFA274D00247D
:103310006319013493F81C0101F0C2F9082CF7D1AC
:103320006BE5302B7FF421AB0834A6427FF41AAB57
:1033300063E50D20FFF778FA002001F0B1F90020D5
:1033400001F0C9F9002001F0C6F906E61320FFF7E5
:103350006BFA174D0024285D013401F0A1F90B2C04
:10336000F9D1EFE701F092F947E50220FFF75CFAA7
:10337000104B188806E54568284608F061F9804634
:10338000BAF1000F7FF4F4AE2C46631B98457FF72B
:1033900019AD14F8010B01F083F9F6E7087A01F092
:1033A0007FF90AE79C0D0020D40E0020A00D00201C
:1033B0003F1A01089A00002010F80A3C0133DBB2E2
:1033C0000A2B00F80A3C07D910F8131C034A002303
:1033D00022F8113000F80A3C704700BF700A002044
:1033E000324A936D106A1944081A40F68C239842A9
:1033F00030B5134611625062D16138D9117E92F90D
:103400005D2091421ED10A1F082A1BD893F85E2026
:10341000182A03DC013283F85E2001E083F85C1097
:1034200093F95C2091421AD193F85F00B8B1204C17
:103430000020824208DC00200B2A0BDC23F812005B
:103440000132F9E70022E6E754F8045F23F8105050
:103450000130EEE793F86020013283F8602001220A
:1034600083F85F20002283F85D101A7630BD92F851
:103470005F10C9B1A0F2EF2440F2DA518C4208D8B3
:10348000117E0B2905DC02EB810301311176986274
:1034900030BD0022074883F85F2011461346C2184A
:1034A0000433302B1161FAD130BD00BF700A002007
:1034B000940A0020880A0020024A936D01330B44CD
:1034C00093657047700A0020034B03EB8000436E46
:1034D0001B681960704700BF700A0020074B03EBA0
:1034E0008000436EA1F57A701A6819894FF47A73D7
:1034F000414391FBF3F11160704700BF700A002057
:10350000F0B5046D8668236823F001032360837996
:10351000054613F0020F407914BF4FF40052002209
:1035200013F0040F14BF4FF48067002710F0010F51
:1035300014BF042100218307206820F001002060CF
:10354000606820F4405042EA00026260236823F47D
:10355000B05323F00C0348BF41F008013B430B4339
:103560002360A36895B023F44073A360684605F018
:10357000E3FE284B9C4239D10C9A23681F0448BFB4
:103580005200B2FBF6F306FB1322B2EB560F226891
:1035900028BF0133160406D5C3F3420223F00F03FC
:1035A0001B041B0C13439BB2A3816B79A87913F006
:1035B000020F0CBF00224FF4003200F00101DC07C3
:1035C00048BF42F480322B6D01B359680A435A60F8
:1035D0009A6801074CBF42F0080222F008029A6084
:1035E0001A6842F001021A6015B0F0BD0A4B9C4205
:1035F00001D10D9AC1E7094B9C4201D10E9ABCE75B
:10360000074B9C420CBF0F9A109AB6E7596821EA03
:103610000202DCE70038014000440040004800405E
:10362000004C004030B5404B93F89430012B14BF50
:1036300000240324036AC1B923F0010303628169F2
:10364000036A21F0F30123F00A0341F0010142F083
:1036500001021A4341EA041181610262836923F085
:103660000C0383618369836130BD04291BD123F07E
:1036700010031B041B0C03628169036A120123F00F
:10368000A00321F473411B0442F010021B0C41F40F
:10369000807192B21A4341EA043181610262836906
:1036A00023F44063DDE7082920D123F480731B0451
:1036B0001B0C0362C169056A4FF2FF532B4089B2AC
:1036C00043EA022221F0F30141F0010142F4807249
:1036D00041EA041192B2C1610262C36923F00C0392
:1036E0001B041B0CC361C369C36130BD23F4805349
:1036F0001B041B0C0362C169036A23F4005321F409
:1037000040715B045B0C090543EA0232090D41F488
:10371000807142F4805241EA043192B2C161026286
:10372000C36923F44063DBE7700A002038B510F862
:103730000E2C50F8043C044652B9012200F80E2C1D
:1037400020F80C1C997A18680222BDE8384069E715
:1037500030F80C2C20F80A1C891A89B220F8081CB1
:10376000074A10F80F0C002522F8101004F80E5C20
:103770002A46997A1868FFF755FF04F8065C38BDA9
:10378000700A0020F7B506460D46002401272A8856
:1037900007FA04F31A421AD0AA78009302F003033E
:1037A0008DF80430EB78022B03D0032B0CBF0323DE
:1037B00001238DF805306946C2F301133046C2F388
:1037C00081028DF806308DF8072007F0ABFB01343D
:1037D000102CDCD103B0F0BD2DE9F743DFF81C92CB
:1037E00099F895400746154600680A4698462946C6
:1037F000631C89F8953004F01FFE3B89ADF8043056
:1038000001A9022378688DF806308DF80730FFF79C
:10381000B9FF97F80AE03A6809F1980606EB041632
:103820004946BEF10C0F36D8DFE80EF007353535C6
:103830005735353582353535AC00136ADFF8C09120
:1038400023F001031362136AD2F804C0906920F4D4
:10385000803020F073004A4540F0700034D009F504
:1038600000694A4530D009F540694A452CD009F530
:1038700080694A4528D009F580694A4524D043F03B
:103880000303C2F804C09061C2F8348013629369E4
:1038900043F0080393613B7B1BB1536C43F400433B
:1038A000536413889BB243F0010313802301BEF1DC
:1038B0000C0F00F28E80DFE80EF0878C8C8C958CDC
:1038C0008C8C998C8C8C9D0023F00E032CF4407C06
:1038D00043F003034CF4807CD3E7136ADFF82091B4
:1038E00023F010031362136AD2F804C0906920F029
:1038F000807020F4E6404A4540F4E0400FD009F5DE
:1039000000694A450BD043F03003C2F804C090610F
:10391000C2F838801362936943F40063BAE723F076
:10392000E0032CF4406C43F030034CF4806CECE783
:10393000136ADFF8CC9023F480731362106AD2F814
:1039400004C0D3694A4523F0730343F0700310D0D9
:1039500009F500694A450CD040F44070C2F804C033
:10396000D361C2F83C801062D36943F00803D3618D
:1039700091E720F460602CF4405C40F440704CF41B
:10398000805CEBE7136ADFF8789023F480531362CE
:10399000106AD2F804C0D3694A4523F4E64343F4DD
:1039A000E04340F4405003D009F500694A4501D195
:1039B0004CF4804CC2F804C0D361C2F8408010625D
:1039C000D36943F40063D2E7C81802F13404C0F8A5
:1039D000984019443046A1F8A050C1F89C2003B08B
:1039E000BDE8F083C81802F13804F0E7C81802F106
:1039F0003C04ECE7C81802F14004E8E7700A002034
:103A0000002C0140F8B5414C4000C6B24FF42045AF
:103A1000D4F85C01C4F8585187693F041CD56F1E67
:103A200085B13D46F8E700264FF4204187697F07BE
:103A300060D50EB1C4F85811416A03F8011B013A70
:103A4000D2B23AE04FF0FF33C4F8583104F0A0FE90
:103A5000003018BF0120F8BD476827F07F7727F4B2
:103A6000593727F47F7727F0030746F490353D4315
:103A700045604FF42045C4F858518769BF072ED5DB
:103A80004FF420458162C4F85851002187697F06B0
:103A90002AD509B1C4F8585145681D4925F07F75EC
:103AA00025F4593525F47F7541EA024125F00305D7
:103AB0003143294341604FF42045C4F85851D4F8AC
:103AC0005C01002AAFD14FF420438169890617D5E4
:103AD0000AB1C4F858312023C3610120F8BD6F1E1C
:103AE000002DAFD03D46C8E76F1E0121002DA9D0A3
:103AF0003D46CBE74F1E01260029A3D0394695E766
:103B0000591E0122002B9DD00B46DEE7700A0020D3
:103B10000024000207B502AB03F8012D012204F0D6
:103B20004BFE03B05DF804FB13B5012204466B465F
:103B300002210C20FFF766FF10B9002002B010BD73
:103B40009DF80030DA07F8D56B46072203210C20D8
:103B5000FFF758FF0028F0D09DF806309B07ECD106
:103B60009DF801209DF800309DF8031043EA0223E0
:103B70001BB21D4A07EE903A92ED007AF8EEE77A12
:103B80000C2067EE877A92ED017AFDEEE77A17EE68
:103B9000903A23809DF8023043EA01231BB207EEDE
:103BA000903AF8EEE77A9DF8051067EE877A92ED85
:103BB000027AFDEEE77A012217EE903A63809DF8D3
:103BC000043043EA01231BB207EE903AF8EEE77A9D
:103BD0000A2167EE877AFDEEE77A17EE903AA38026
:103BE000FFF798FFAAE700BF1400002007B50022E6
:103BF0000A210C20FFF78EFF142000F0C9FE0F22CF
:103C00000A210C20FFF786FF0A2000F0C1FE01AB5D
:103C1000032210210C20FFF7F5FE0A2000F0B8FE69
:103C20009DF904209FED295ADFED295A294B06EE14
:103C3000902AF8EEE66AF7EE007A76EEC56A9DF90C
:103C40000520B0EE677AA6EEA57A0A210C2006EED2
:103C5000902AB3EE0E6AF8EEE66A27EE067A76EE62
:103C6000C56A83ED007AB0EE677AA6EEA57A9DF973
:103C7000062027EE067A83ED017A07EE102AB8EEC9
:103C8000C77A002237EE457AE7EE257A67EE867A24
:103C9000C3ED027AFFF73EFF0A2000F079FE0DF136
:103CA0000303012202210C20FFF7ACFE0DF10303F8
:103CB000012209210C20FFF7A5FE01220A210C2078
:103CC000FFF728FF012003B05DF804FB000000436C
:103CD0000000803B1400002037B504461546052936
:103CE0002CD8DFE801F0030717191B1B436B2B606F
:103CF000002021E00DF10602442102F0F3FDD8B9C5
:103D0000BDF8062053029AB12B60A363012384F807
:103D1000293011E0C36BEAE7036CE8E70DF1060216
:103D2000642102F0DFFD38B9BDF806305B02DEE742
:103D3000A36B2B6084F8290003B030BD6FF0030043
:103D4000FAE72DE9F04F9FB090F830310C91C02286
:103D500001210446059302F01AFE0546002840F0B2
:103D6000E982207401228021204602F010FE012207
:103D7000FF21204602F00BFE2A462946204602F08B
:103D800006FE94F83A219121204602F000FE2946D1
:103D90000122204602F0FBFD2A46FF21204602F0C8
:103DA000F6FD2A468021204602F0F1FD2946012237
:103DB000204602F0ECFD01238DF85C30054600281A
:103DC00040F0B882074644F620689DF85C30DB0777
:103DD00007F101070ED5002D40F00E83474502D1B3
:103DE0006FF00605A6E2294617AA204602F090FDCC
:103DF0000546EAE74745F3D0002D40F09B82204678
:103E000006F02DFA0546002840F09482032384F83A
:103E100032310C2214AB142194F85C01FFF7F2FD4F
:103E2000002800F0C1829DF85A209DF85B30B4F85C
:103E3000520194F8311103EB02231FFA83FB9DF822
:103E400056209DF8573003EB02239BB25B029DF88E
:103E5000582000939DF8593003EB02239BB25B027C
:103E60009DF8522006939DF8533003EB02239DF8F2
:103E700050209BB2B0F57A7F02934FEAE2020ED057
:103E8000257F0BFB00F04FF47A7300F5FA7090FB7E
:103E9000F3F0236A002D40F094801FFA80FB002984
:103EA00000F099804FEA8B13DBB209930023ADF841
:103EB0004630D3B2049303F00F0301934FEA9B0BF8
:103EC000019A4FF2A103D34003F001030B9394F83E
:103ED00028300393002B00F0AC81257F236A25B1A5
:103EE000029A03FB02F580352D0A94F8E020009B2E
:103EF000D4F8DC7008922B4411464FF47A78384697
:103F000008FB03FA0A9302F015FAD4F8E43094F8A7
:103F1000E81007938146184602F00CFA089A0A9BAB
:103F20000AF5004A082A4FEA1A4603F180020CBF3C
:103F300002210321C04B002E63D1C4F840311F463B
:103F400012AA00212046FFF7C7FE129BB6B2002B33
:103F500000F06D81BB422CBF00270127002840F0F4
:103F6000108294F82A90B9F1000F00F0718113AA21
:103F700002212046FFF7B0FE88B90122FF2120462A
:103F800002F005FD58B90DF14602B621204602F0B7
:103F9000A9FC20B90246FF21204602F0F8FCBDF83A
:103FA00046506B02139DC4F848311DB1AB4294BF1B
:103FB00000250125002800F04C814FF00008C24682
:103FC00065E1029D9BB26B43009D1B129D420CD18B
:103FD000A1B948F6E02BD2B20023049202F00F02FE
:103FE000ADF84630019209936AE7009D80B26843BC
:103FF000EB1AB0FBF3F31FFA83FB50E742F2B82B46
:1040000050E781444FEAC92901FB09F140F277608A
:104010004FEA122E01F5FA71B1FBF8F1414301F5B7
:10402000FA710F93B1FBF8F3089303FB0EFE069BA6
:10403000DFF818920E9108FB03F000EA09000EF178
:10404000800EB0FBF6F67D480D925FEA1E2E08BF8B
:104050004FF0010E864228BF06464FF4167000FB53
:1040600006F30C2000FB0EF00A9306F0E3F846007E
:1040700008FB05F0B0F5481F0AEA090A28BF4FF40B
:104080004810AAEB400000F5FA700AF5FA7AB0FB86
:10409000F8F0BAFBF8F80002B0FBF8F868480A9BA1
:1040A0004FEA0828C8F5803841F25C2500FB0BF088
:1040B000B0FBF5F000FB08F000F50040000C00F547
:1040C000803040084043800B4FF4487808FB00F8EC
:1040D00008F5004803F500454FEA184808FB08F8C2
:1040E0002D0C05FB058006F0A5F8079B00041F4476
:1040F0004FF0640E3230B0FBFEF040F6B53EB0FB40
:10410000F6F641F288304FF47A790EFB060607F591
:10411000FA7742F210704FF4FA6EB6FBF0F6B7FB86
:10412000FEFEB6F5704F0EF5C81EB7FBF9F7BEFBE5
:10413000F7F028BF4FF4704606F07CF8000200F557
:10414000FA70B0FBF9F0404306FB060006F072F887
:104150000F9B0E9909FB00F79F4228BF1F46B4F83A
:104160005401D4F85831C4F8407103FB00F909F147
:104170008009009B4FEA192909FB00F9002B54D054
:104180000D9A304B03EA8223009A03EB5203B3FBF0
:10419000F2F303EB43035B4303F500431B0C0620E0
:1041A0000335B5FBF0F5C5EBC505B5F5803F37BF69
:1041B0000A9A254A0332B2FBF0F23FBFC2EBC202B9
:1041C00002F50042120C52434FF4FA6509F1200047
:1041D000B1FBF5F1884442440899B2FBF1F2800941
:1041E0009203FE217F32B2FBF1F203FB02F806F0EC
:1041F00021F84FF47A7A08F5FA78B8FBFAF84FEA22
:10420000081808F5FA780646B8FBFAFABAF1000F72
:1042100004D0B8FBF5F5A944B9FBFAFA504606F00C
:1042200009F8864228BF06468AE6009BB7E71F4684
:1042300094E6039F95E600BFAE878F026666660030
:104240009A9906000000FCFF0000F0FF0000FFFF4D
:104250004D4694F82B80B8F1000F74D0029B002BD0
:104260006CD0009B4FEA032A029BBAFBF3FA17AA11
:1042700003212046FFF730FD179B002B61D05345EB
:1042800094BF4FF0000A4FF0010A00285CD00026CE
:10429000B646039B002B00F0838007F00107019ACC
:1042A00094F8293084F82E70042A7BD0B3FA83F373
:1042B0005B09B9F1000F08BF0125B8F1000F08BF75
:1042C0004FF0010A05F001050AF0010A84F83050A8
:1042D00084F82F3084F831A004F150050FCD17AFCA
:1042E0000FC795E80700002387E807001893009B95
:1042F0001A93069B1B93BDF80830ADF870309DF8FB
:104300002430ADF866608DF874E0ADF864B08DF8D7
:1043100073300DF15C0EBEE80F0004F150060FC6BD
:1043200097E8070085E80700204602F08AFB05466B
:1043300000283CD028461FB0BDE8F08FDDF808A06B
:1043400095E79A46A1E7C2460B9B03BB019B013B45
:10435000022B1FD9019B062B53D0092B51D0049B54
:1043600003F00D03082B18D0012D16D0019B042B50
:1043700060D0BAF1010F50D0012F51D0BA463D465E
:1043800085E74FF00008C146C24645467FE74FF03B
:10439000FF0E7EE74FF0050E7BE74FF0030E78E748
:1043A00001277CE7012384E76FF01305C2E70122B0
:1043B000FF21204602F0EBFA05460028BAD10C9AFC
:1043C000B621204602F08EFA05460028B2D10246F8
:1043D000FF21204602F0DBFA05460028AAD1059A03
:1043E0000121204602F0D3FA05460028A2D19DF80B
:1043F000143084F830319DE7474508BF6FF006055B
:1044000098E74FF0040E039B002B7FF446AF012288
:1044100094F8293084F82E2048E74FF0020EF2E796
:104420005546BE46EFE7012384F82E30039D4FF03A
:10443000020E3EE7039B002BF5D04FF0020E2CE757
:1044400008B506220B4690F85C01B02104F0B4F9DF
:1044500000280CBF6FF01300002008BD13B502AA9E
:1044600000230C4602F8013D012102F051FA78B90F
:104470009DF80730C3F300122270C3F3C002A2708C
:10448000C3F380026270C3F38012DB09E270237110
:1044900002B010BD2DE9F04786B0037C0B700C46CE
:1044A00003AAF821054602F01DFA064628BB04AA15
:1044B0000421284602F004FA0646F0B9BDF80C20A3
:1044C0001AB1049BB3FBF2F3A360A368AB610023B2
:1044D000237304AA2021284602F004FA064660B994
:1044E000BDF810306BB92A6A22612B7704AA282103
:1044F000284602F0F7F9064640B1304606B0BDE85E
:10450000F087DB0023612B620123EEE7BDF810305A
:10451000C3F30B03B3F5006F4FF0FA0226BFA3F508
:10452000805313FB02F35343636104F1240805F144
:10453000280A04F1180900274246B9B22846FFF7B5
:10454000CBFB06460028D8D101371AF8013B09F801
:10455000013B062F08F10408EED104AA01212846E8
:1045600002F0D6F906460028C7D19DF8103085F82C
:1045700030311B064ABF012384F83C0084F83C30EC
:1045800094F83C3085F84C304FF4FA6302930023E2
:10459000039340F63633636004A92846FFF75EFFB5
:1045A00006460028A9D19DF810302BB99DF811308E
:1045B00013B99DF81230CBB102AA0221284605F0AA
:1045C00074FD00283ED19DF810302BB1029B03F200
:1045D0004E226368134463609DF81230DBB1029B86
:1045E00003F2B222636803EB420363609DF8133069
:1045F0005BB103AA0321284605F057FD039B03F591
:104600002572636813446360E0B99DF8143063B9A0
:1046100063686B6171E79DF81130002BE6D0029B57
:1046200003F5257263681344DFE701AA04212846D5
:1046300005F03BFD019B03F226226368134463608F
:104640000028E5D0064658E738B504460D4601F087
:104650007F0204308A2102F09AF984F8605138BD53
:10466000044A536823B192F90020824200D11847CE
:10467000704700BFD00B0020034B1B68DA79511C38
:10468000D9711344187A70473C1E002010B5FFF70B
:10469000F3FF84B2FFF7F0FF04EB002080B210BDFF
:1046A000064B10B501460446986806F082FC044BA0
:1046B0001B689A7954409C7110BD00BFD00B00203C
:1046C0003C1E002010B50446C0B2FFF7E9FF200AE7
:1046D000BDE81040E4E710B5044680B2FFF7F2FFF2
:1046E000200CBDE81040EDE7024B0146986806F04B
:1046F00060BC00BFD00B00202DE9F34188469DF837
:1047000024E0184E11461A469DF8203005460C2428
:104710000020042807460AD0013004FB006C1CF975
:104720000CCCAC45F5D104FB0764208908B100200E
:1047300002E025B1012D11D002B0BDE8F0810A4898
:10474000CDF800E005F052FA0028F5D00C2303FB69
:1047500007660571A6F808807060EDE7CDF800E007
:104760000248EFE7400A00200038014000440040C2
:1047700070B50E490E4A0B7B12680025032B05DD30
:1047800005B10B73002070BD2346F7E702EBC306AB
:104790005C1CB6883042E4B24FF00105F4D00C73D3
:1047A0000820022110FB0310104470BDD00B002024
:1047B000601E0020014B00221A73D9E7D00B0020A5
:1047C0002DE9F0411D4D00240A274FF47A768278B6
:1047D0001FFA82FEA4EB0E031BB2002B2ADDC2F1EE
:1047E0006402D2B290F8038003FB03FC08FB0CFCCC
:1047F000C8F164080EEB8E0E12FB02F29CFBF2F283
:104800004244534393FBF7F303EB4E031BB26B801D
:104810000A88B1F802E00A34AEEB020EA4B203FB40
:104820000EF3782C93FBF6F3134425F8023FCED118
:10483000BDE8F08108BF0122D4E700BFDC0B0020F7
:1048400030B50C4C002340F6C415072B10D003FBE9
:1048500003F2A2F1190142784A4302F6C412017828
:104860005A434A4392FBF5F224F813200133ECE754
:1048700030BD00BFF60B00200430104B10B533F9EB
:1048800010200C7840F633039A42A8BF1A46B2F5BE
:10489000617F4FF0190340F28330B8BF4FF461726B
:1048A00013FB0404944207DA497813FB0100904299
:1048B000B4BF0020012010BD002010BDF812002060
:1048C000034B002283F834209A639A871A64704756
:1048D000D00B002070B408B970BCF1E70E4A002379
:1048E0000C25114605FB03F4A65C864209D10B4B4F
:1048F000186C50B1224455784278954205DB70BC63
:1049000070470133102BEDD1F9E7002221441964DF
:104910009A879A63F3E700BF54170108D00B002071
:1049200040000C4A142870B4A8BF1420002302F1E0
:104930004401022614255E540233CC18984204F830
:10494000015CF8DC1344FF2283F844200F2070BC84
:10495000C0E700BFD00B002010B50A490A480A681A
:10496000846800BF0B689A42F9D1084BD96D4FF4A7
:104970007A7000FB01F31B1BB3FBF1F300FB023069
:1049800010BD00BFA415002010E000E0D00B0020F7
:1049900038B5044604B938BDFFF7DEFF0546FFF71A
:1049A000DBFF401BB0F57A7FF9D3013CF2E72DE93C
:1049B00087482D4C06460B27013FFCD04FF01E0BBD
:1049C00005254FF0020806F0400906F0200A00E035
:1049D0000025B9F1000F04D0A38A9BB283F4804371
:1049E000A382BAF1000F04D0A38A9BB283F40043E0
:1049F000A38216F002021FBFA38A9BB283F4005366
:104A0000A38258460192FFF7C3FF019AB9F1000F44
:104A100004D0A38A9BB283F48043A382BAF1000F2F
:104A200004D0A38A9BB283F40043A38222B1A38A59
:104A30009BB283F40053A3825846FFF7A9FF7DB1D0
:104A4000013DC6D14FF4FA70FFF7A2FF4FF0960B6D
:104A5000B8F1000FBCD14FF47A70FFF799FFABE7C4
:104A600008F1FF38F4E700BF00080048024A136865
:104A700001331360704700BFA41500200920EFE543
:104A80002820EDE506EE901AB8EEE66ADFED106A32
:104A9000104B9FED117AB3F8603026EE266AF7EEE0
:104AA000005AC5EE866A07EE903AF8EE677A67EE2E
:104AB000877A90ED007A76EEA76A30EE470A87EEA5
:104AC000A66AA6EE007AB0EE470A80ED007A70473B
:104AD000DB0FC940D00B0020BD3786352DE9F74FDD
:104AE000244D254E254F002495F86280E0B24045C4
:104AF0000ADA56F820302BB10B2803DCDB6837F8D4
:104B0000101098470134EFE71D4B1B685B032DD550
:104B10000025194FDFF86CB029464FF0500A4FF0CE
:104B200028092A46EEB2B04520DD57F826305C68E9
:104B30008C4214D02046019203F0CCFCEFF3128398
:104B40008AF31288616A09FB00B001314162616930
:104B500041F001016161DBB283F31188019A57F8DA
:104B600026301B6801351A602146DBE703B0BDE83B
:104B7000F08F00BFD00B0020D40A0020060A0020CE
:104B8000F4120020B41500202DE9F04FF34BF44C43
:104B9000D3F80090D4F868A0F24DDFF80884F24F03
:104BA000F24E2DED0A8BD14583B0B0EE40BADFED69
:104BB000F08ADFEDF09A9FEDF09A9FEDF0AA00F0F9
:104BC0001083EF4BC4F868901A780193DFF8D8B3DC
:104BD000002A4ED1BBF90230D5ED085AD5ED060AB0
:104BE00007EE903ABBF9043000EE103AB8EEC07A06
:104BF000F8EEE77A95ED070ABBF9003065EE876AB3
:104C0000B7EE006AE7EE806A20EE470AA0EEE06A9F
:104C1000A7EEA50A60EEE60A06EE903AF8EEE66A1E
:104C2000B1EE400AE6EE260A0AF0E4FFDFEDD57A9F
:104C3000B4EEE70AF1EE10FAB0EE401A00F1AD82E0
:104C4000DFEDD17AB4EE670AF1EE10FAC8BFB0EE2C
:104C5000671ACE4AD2ED010A92ED000A01F05CF922
:104C6000019BC8ED008A0122C8ED018AC8ED028AC5
:104C70001A70BBF90030D5ED01AAD5ED006A07EE38
:104C8000103ABBF9023008EE103AB8EEC88AB8EE16
:104C9000C77ABBF9043068EE2AAA07EE903AE7EE2D
:104CA00026AAF8EEE77AD5ED026AE7EEA6AAD5EDD8
:104CB000046AC4ED1BAA28EE268AD5ED036AA7EE86
:104CC000268A95ED057AA7EE878A28EE08CA84ED34
:104CD0001C8AB0EE4C0AAAEEAA0A0BF009F8CAEE3A
:104CE00080BAB0EE4C0AABEEAB0A0BF001F8DFED88
:104CF000A87AB0EEEB7AB4EE677AF1EE10FA09DC3E
:104D0000C8EE00AAB0EEEA7AB4EE677AF1EE10FAD5
:104D100040F36482DFED96AA97ED010A97ED007AE1
:104D2000D7ED027AD5ED08BA20EE000AA7EE070A01
:104D3000A7EEA70A0AF0DCFFD5ED097AF4EEE97ACE
:104D4000F1EE10FAB4EEC90A48BFC5ED099AF1EECA
:104D500010FAB0EE40CA00F12382DFED947AB4EE8F
:104D6000E70AF1EE10FA00F31E82C0EE097A6BEE4C
:104D7000AABA95ED098A94ED1E0A6BEEA77A20EE89
:104D8000000A27EE888AD4ED1D7AA7EEA70A0AF05A
:104D9000AFFFF1EE007AB4EEE70AF1EE10FA9DBF34
:104DA000F1EE027A77EEC07A9FED7A0ADFED7A7A39
:104DB000336898BF67EE807AD90768EE277A58BFC4
:104DC000B2EE007AC8ED027A58BF67EE877AA9EB97
:104DD0000A0358BFC8ED027A07EE903A9FED6F7A4A
:104DE000F8EE677A67EE877AB0EE007AF4EEC77A6B
:104DF000F1EE10FA05D5B4EECACAF1EE10FA00F1E0
:104E00000582D4ED207AB4F88430F0EEEAAA7AEE86
:104E1000A7AA0133C4ED20AAA4F88430B4F98630DF
:104E2000D5ED01BAD5ED006AD5ED04AA5B4207EED7
:104E3000903AB4F988305B4208EE103AB8EEC88A6E
:104E4000B4F98A30B8EEE77A68EE2BBA5B4207EE27
:104E5000903AE6EE87BAF8EEE77AD5ED026A68EEA8
:104E60002AAAE6EEA7BAD5ED036AC4ED1DBAE7EEAD
:104E700026AAD5ED056AE7EEA6AAD5ED076AC4ED28
:104E80001EAA28EE268AD5ED066AA7EE268A95ED9B
:104E9000087AA7EE878AD4ED237A84ED1F8A3BEE49
:104EA00027BADFED3F7A84ED23BA6AEEA7AA6BEE4C
:104EB000A7BA6AEEAACA28EE278AB0EE6C0AABEE51
:104EC000AB0AA8EE080A0AF013FF8BEE80CAB0EE18
:104ED0006C0AACEE0C0AA8EE080A0AF009FFCAEE4A
:104EE00080BA2BEEAB0AACEE0C0AA8EE080A0AF068
:104EF000FFFE88EE000AB0EE4C8AA0EE288AB0EEE3
:104F00006B7A90EE687AD5ED037AD5ED006AD5ED2F
:104F100004AA97ED010A68EE277A68EEEBBAE7EE8D
:104F2000267AECEE28BAD5ED066AEBEEA67A68EEA4
:104F30002AAAC4ED247AB0EE67CAD5ED017AE7EE6D
:104F400027AAD5ED077AEBEEA7AAD5ED057AC4ED31
:104F500025AA28EE278AD5ED027A29E060130020E1
:104F6000D00B002020000020401300209C170020C0
:104F700000000000CDCC4C3DF3665F3FC2B8B23EAE
:104F80007C1300209A9949C09A9949404C130020FB
:104F9000FFFF7F7FCDCC4C3ECDCCCC3DBD378635A1
:104FA0007FD6D03D341300206413002058A00B415D
:104FB000A7EE278A20EE000A97ED007AD5ED087A51
:104FC000A7EE070AABEEA78AD7ED027A84ED268A10
:104FD000A7EEA70A0AF08CFED5ED0A7AF4EEE97A7C
:104FE000F1EE10FAB4EEC90A48BFC5ED0A9AF1EE27
:104FF00010FA00F1DB805FED137AB4EEE70AF1EE10
:1050000010FA00F3D68080EE097A864B95ED0A6A95
:105010002CEE077AB4EEC90A67EE066AF1EE10FAD2
:10502000C3ED006A00F1C880DFED7F7AB4EEE70AD5
:10503000F1EE10FA00F3C38080EE097A2AEE877A47
:10504000B4EEC90A27EE067AF1EE10FA83ED017A82
:1050500000F1B880DFED747AB4EEE70AF1EE10FAF1
:1050600000F3B380C0EE097A3268D20768EE277A7F
:1050700067EE867AC3ED027A0DD4B2EE006A66EE70
:10508000866A27EE067A67EE867AC3ED006A83EDBC
:10509000017AC3ED027AB4EECA0AF1EE10FA1FD516
:1050A0009FED627AD4ED276A6CEE077A6AEE87AAE2
:1050B000EBEE276AD4ED287AC4ED276AEBEE2A7A64
:1050C00028EE078AC4ED287AD4ED297AEBEE087A27
:1050D000C4ED297AD4ED2A7A37EE8BBA84ED2ABA58
:1050E000D4ED2A7AB1EE047AF4EEC77AF1EE10FA32
:1050F0004CDB94ED197A94ED276A67EE877AB1EE6E
:10510000677AB4EEC76AF1EE10FA61D4F4EE467A2B
:10511000F1EE10FA48BFB0EE676AD4ED286AB4EE3B
:10512000E67AF1EE10FA56DCF4EE667AF1EE10FA59
:1051300048BFF0EE676AD4ED295AB4EEE57AF1EE95
:1051400010FA08DCF4EEE57AF1EE10FA54BFB0EE96
:10515000657AB0EE677A364BC4ED278AD3ED007AD4
:10516000C4ED288A37EE866AD3ED017A83ED006AB2
:1051700077EEA66AD3ED027AC3ED016A37EE877A3D
:10518000C4ED298A83ED027AC4ED2A8AC4ED238A0C
:1051900003B0BDEC0A8BBDE8F08FB0EE671A58E59E
:1051A000F7EE007AE3E5F2EE047AE0E5B7EE007A96
:1051B0002BE7B2EE047A28E7B7EE007A3EE7B2EECC
:1051C000047A3BE7F7EE007A4EE7F2EE047A4BE71B
:1051D000B0EE476AA1E7F0EE476AACE7DBEEA8AABB
:1051E0009AE59FED147AD8ED007A67EE877AC8EDDC
:1051F000007AD8ED017A67EE877AC8ED017AD8EDAA
:10520000027A67EE877AC8ED027A07E69FED0A7A9E
:105210006BEE87BA94ED297AA7EEAB7A84ED297A02
:10522000EFE500BF2813002058A00B41728A0E3C06
:105230001C130020EC51783F0AD7233C10B52F4CAB
:10524000D4ED013A94ED046A94ED003A94ED037ABA
:1052500094ED024AD4ED056A63EE867AF6EE005AC2
:10526000E3EE077A8AB02146B0EE635AE4EE267A7E
:1052700007A8F0EE444A67EEA57AF0EE435AA6EE90
:10528000675AE6EEE74AA3EEE76AE4EE676AE7EEFE
:10529000675ACDED066AA3EE677AF0EE667A66EE9F
:1052A000646A8DED047AE5EE276A67EEE57ACDED66
:1052B000075AE4EE877A27EE457A8DED085AA5EE77
:1052C000867ACDED094A8DED056ACDED016ACDED09
:1052D000027A8DED037A00F0C5FD58B104F10C019E
:1052E00004A800F0BFFD28B104F1180101A800F0E6
:1052F000B9FD08B901F0E2F90AB010BD20000020A4
:105300002DE9F04F87B0804603939B4B1B8898078D
:1053100040F1FA80994C109BDE89B4F900309B1B58
:1053200003F2F31540F2E6308542254698BF83EA42
:10533000E374B5F90200A0EB060098BFA4EBE37498
:1053400000F2F31540F2E63388BF4FF4FA749D4241
:1053500000F2D78080EAE073A3EBE073A342B8BF0A
:1053600023460520C3F5FA7393FBF0F30A20643B50
:10537000584398F81E30DB104343642093FBF0F34E
:10538000034423EAE3735BB27D4D7E4C686801936E
:1053900023689FED7D7A1B1A07EE903AF8EE677A44
:1053A00023686B6067EE877A0B1DC5ED007A029368
:1053B00005F10809002405F1140A029B022C13F8D8
:1053C000010B02934FEA440740F0A08000F11B015B
:1053D000B5F9240048434011E8616C4908EB040B1F
:1053E000CE5F042196FBF1F15AF82460761A9BF8FF
:1053F000011006FB01F06649615C4143642091FBAA
:10540000F0F1C91100EE101A98F85510A30059B127
:10541000604805921844B8EEC00A0493FFF732FBC7
:10542000059A049BBDEEC00A5B495948B1F800E0FB
:105430009BF80C1010F804C0D5ED007A06FB0EF6B0
:10544000F612714300F110060CFB01F14FF0640EEF
:1054500091FBFEFE99597144B1F5001FDFF84CE154
:10546000A8BF4FF400117145F5EEC07AB8BF714680
:10547000F1EE10FA99514FEA613118DD434BD9ED45
:10548000006ADB5F1C30B1EE087AC05F1B1A07EEC2
:10549000903AF8EEE77AB2EE046A77EEE67A67EED3
:1054A000877A87EE867A77EE267AC9ED007A3748D2
:1054B0003A4BC05BD8539BF81700F9EC017ADFED4B
:1054C000386A07EE100AB8EEC77A063327EE277A55
:1054D00007EE90CAF8EEE77A013467EE277A032CDC
:1054E00087EEA67ABDEEC77A17EE100AA1EBA011DF
:1054F00010EE100A0144D9537FF45FAF07B0BDE846
:10550000F08F4FF4FA732CE764233DE7254B33F912
:10551000141053424E009E4203DB96423346A8BF0E
:105520001346214EF65F9B1B039E36F914603344ED
:10553000114E368816F0010F4FEA840E14D11B303D
:1055400048430011B1074AF824007FF546AF98F8A8
:1055500013104B4301994B43642193FBF1F300EB90
:1055600023104AF80E0038E798F808104B431B1137
:105570004AF8243031E700BF681E0020F8120020EE
:105580008C0C0020A41500206F12833A000A002022
:10559000B40C0020B80C0020300C0020D00C0020EF
:1055A0000000C842AC0C00201E0A00200000E0FFF2
:1055B0002DE9F04F2DED028B87B000250493B44BFD
:1055C0000292B3F92080B3F922200391B8F1000FC1
:1055D000B8BFC8F10008002AB8BF52429045B8BF12
:1055E0009046B8F5FA7F03F138030646A8BF4FF49A
:1055F000FA78AB460095A9462C460193A54B1A882C
:1056000012F003013AD0A44B33F91400029B40007E
:105610005B4298424FEA440703DB029B8342A8BFE8
:1056200003469E483F5E0498DB1B30F914701F440C
:10563000337A64207B4393FBF0F3B07F6FF004096F
:1056400009FB00F94B4504DB00EB80099945A8BF35
:105650009946934850F824303B4442F21077BB42BD
:10566000A8BF3B468F4FBB42B8BF3B4640F82430F3
:10567000F07C43431B130129009335D0864B33F94B
:1056800014B0894B33F9141081EAE173A3EBE17391
:10569000B3F5206F00F3EA8030190BEB8B034078F1
:1056A0001B0193FBF0F3042091FBF0F15B1A0199CD
:1056B000019851F824100B44B3F57A5FA8BF4FF45A
:1056C0007A537A498B42ACBF40F8243040F824101A
:1056D000774B311953F824507D2395FBF3F30D7B61
:1056E0005D43402395FBF3F5910740F1C48000989A
:1056F000C8F5FA7308FB05F708FB0BF209FB032258
:105700004FF4FA7100FB037392FBF1F293FBF1F794
:10571000654B684833F91430042193FBF1F1235CA5
:1057200013FB01F36FF04F0193FBF1F396F8551063
:1057300013444FEA440A08EE103A41B12C38B8EE4F
:10574000C80A00EB8400FFF79DF9BDEEC08A5A4AF3
:10575000554B3AF902103AF903302AF80230042086
:1057600002EB000E02F10C0C591AA30091FBF0F1B0
:1057700005935EF824005CF824304EF824100344AE
:105780000B4496F854104CF8240000EE103A49B13E
:1057900002F11400A3001844B8EEC00AFFF772F932
:1057A000BDEEC00A3A4A18EE103A02F17C003B44C2
:1057B000005D1F4610EE103A02F14A0101344343E6
:1057C000022C4FF0200093FBF0F3A7EB03072AF81D
:1057D00001707FF413AF039B99790F314B00B2F93D
:1057E000241059434911304B0029B3F904304FF0CC
:1057F000040093FBF0F3A1EB0303B8BF4942322945
:1058000040DC106CB17B03FB01012C488142A8BF36
:1058100001462B488142ACBF11641064F1784B43C0
:105820002849097803294FEAA3130ADDB6F8521074
:10583000B1F5FA7F05DA4842834226DB8B42A8BFE6
:105840000B46116C41F34F31B1F5807FA8BF4FF487
:1058500080716FF0FF008142ACBF5B181B18A2F88B
:105860004E3007B0BDEC028BBDE8F08F01990023EC
:1058700041F824302CE7D30759BF2F465A46009FE2
:105880004A4645E700211164C8E70346D9E700BF4F
:105890008C0C0020681E0020AC0C00201E0A00208A
:1058A000DC0C0020F0D8FFFF000A002080C1FFFFC1
:1058B000C40C0020E40C0020E80C0020FEFFFF0FC9
:1058C000020000F0320C00202DE9F04F2DED088B86
:1058D00087B00446039390F8543002910192002B54
:1058E00000F04881322BA8BF322307EE903ADFED5B
:1058F000BC6AF8EEE77A86EEA77ABA4BDFF8348313
:105900001B88002B08BF012307EE903A9FEDB6AA33
:10591000B64BF8EEE78A1B8828EE8AAA13F0020F2E
:1059200037EE0A7ACAEE079A00F02781B8F92030DC
:10593000B8F92220002BB8BF5B42002AB8BF524200
:105940009342B8BF1346B3F5E17FA8BF4FF4E173AC
:1059500007EE903A9FEDA67AF8EEE77AC7EE87AAAF
:10596000A44EDFF8D4A2A6F1360306F1080B06F127
:10597000100706F11C09002504939FED9F9AF0EE95
:1059800049BA022D00F05C813AF915C09B499FEDA0
:105990009CBA07EE90CAF8EEE77AB5EE047A6B008F
:1059A00067EE877A059331F915309049FDEEE77A75
:1059B0000888F8EEE77A00EE103A810727EE8BBAF6
:1059C000B8EEC00A6AD070EE007A019BFDEEE77A6D
:1059D000594217EE90EA8E4503DB7345A8BF734624
:1059E0001946884B9FED886A6A00B1EE047A32F955
:1059F00003E0039BA1EB0E0133F915E0A37F06EE54
:105A0000903A237AF8EE666A714407EE901A66EED1
:105A1000876A07EE103AF8EEE77AB8EE477A27EE93
:105A2000277A27EE067ABDEEC77A17EE101AB1EE86
:105A3000667ABDEEC77A17EE10EA714506DBBDEE59
:105A4000E67A17EE10EA8E45A8BF8E4699ED009AC9
:105A5000AAEE279A07EE10EAF8EEC7BABBEE0E7A66
:105A6000B4EEC79AF1EE10FAF0EE497A00F18880B0
:105A7000B3EE0E7AB4EE479AF1EE10FAC8BFF0EE2C
:105A8000477AC9ED007AE37C09EE103AB8EE499AFC
:105A900029EE279ADFED5D7A29EE279AC20700F1F9
:105AA0009980BCF1000FB8BFCCF1000CBCF5206FA1
:105AB00004EB050167DD4FF0000EC7F800E00B7B3B
:105AC000D7ED007A08EE103AB8EE488A830728EE40
:105AD000278ADFED4F7A28EE278A0FD530EE6B0A42
:105AE000F0EE6B7AEAEE807A38EE498AB0EE670A19
:105AF000F0EE497AEAEE887AB0EE678A4548DFED43
:105B0000467A2B5C94F8551007EE103AB8EEC77A37
