:020000040800F2
:1000000000A00020C96301083164010831640108BF
:100010003164010831640108316401080000000006
:100020000000000000000000000000003164010832
:10003000316401080000000031640108A19100084A
:100040003164010831640108316401083164010838
:100050003164010831640108316401083164010828
:1000600031640108B191000831640108316401086C
:1000700031640108316401084D94000831640108BD
:1000800031640108316401083164010831640108F8
:1000900031640108316401083164010831640108E8
:1000A00031640108316401083164010831640108D8
:1000B00031640108316401083164010831640108C8
:1000C00031640108316401083164010831640108B8
:1000D00031640108217000081570000831640108BE
:1000E000B7910008316401083164010831640108E6
:1000F0003164010831640108316401083164010888
:100100000000000000000000000000003164010851
:100110003164010831640108316401083164010867
:100120003164010831640108316401083164010857
:100130003164010831640108000000000000000083
:1001400031640108316401083164010800000000D5
:10015000000000000000000000000000000000009F
:100160000000000000000000316401083164010853
:1001700031640108000000000000000000000000E1
:080180000000000031640108D9
:1001C0002DE9F04F2DED028BCBB006F0A1F918B957
:1001D00006F00CFB05F0C0FC06F0C0F9BF4BC04CAC
:1001E0001A7842F001021A70BE4A4FF47001C2F848
:1001F00088100022089209920A92226842F4803202
:1002000022600393236803F400330993089B0133AE
:100210000893099B1BB9089BB3F5A04FF2D1236843
:1002200013F4003318BF01230993099B012B40F0FD
:10023000AD8102230A93AC4B12221A60636863609B
:1002400063686360636843F480636360636823F496
:100250007C136360636843F4E8136360236843F0CE
:100260008073236023689F01FCD5636823F0030338
:100270006360636843F002036360636803F00C0328
:10028000082BFAD1039A0A9B964E5360974BF36062
:10029000636A636ADFF89482954F43F08073636208
:1002A000636943F4FC034AAD636103238DF8DA30DC
:1002B00041F6FF7325F8503D4FF09040294607F076
:1002C00037FE4FF6FF7329468A48ADF8D83007F05D
:1002D0002FFE2946404607F02BFE2946864807F0A8
:1002E00027FE2946854807F023FE2946844807F063
:1002F0001FFE284602F0F0FF369B824AB3FBF2F362
:10030000814A1360814B824A4FF0000EC3F800E02F
:10031000C3F804E07F4B5A60F02286F823200722BE
:10032000C3F808E01A607C4B9A687C4B1A600FCFC8
:100330002E460FC60FCF0FC697E80F0086E80F00B6
:10034000636943F400236361636943F400236361D9
:10035000636943F400236361636943F400336361B9
:100360004FF0904310221A8520221A8540221A85C8
:100370004FF48043C8F818304FF40053C8F81830D1
:100380004FF40043C8F818307646311DA859294467
:10039000083607F0CDFD302EF7D1614E96E80F00FC
:1003A0000DF12C0888E80F0006F110030FCB0DF1BA
:1003B0003C0989E80F0006F120030FCB0DF14C0B2F
:1003C0008BE80F0006F130030FCB0DF15C0A8AE8D1
:1003D0000F0006F140030FCB1BAF87E80F0006F1BB
:1003E00050030FCB1FAF87E80F0006F160030FCB60
:1003F00023AF87E80F0006F170030FCB0DF19C0CC3
:100400008CE80F0006F180030FCB0DF1AC0E8EE8E7
:100410000F0006F190030FCB2FAFA03687E80F0037
:1004200096E80F0085E80F009BE80F003D4E86E838
:100430000F009AE80F0006F1100B8BE80F0099E807
:100440000F0006F1200A8AE80F0098E80F0006F175
:10045000300989E80F001BAB0FCB06F1400888E894
:100460000F001FAB0FCB06F1500888E80F0023AB3D
:100470000FCB06F1600888E80F009CE80F0006F13A
:10048000700888E80F009EE80F0006F1800C8CE8E9
:100490000F0097E80F0006F1900E8EE80F0095E828
:1004A0000F0006F1A00E8EE80F00642008F00AFE8F
:1004B00000214FF48C721C4817F028FEE36943F0CA
:1004C0000703E361A36943F4A523A361636943F4CC
:1004D000C023311D6361C4360F2529E0480F002079
:1004E0000010024000ED00E0002002400005FA0587
:1004F00048C9010800040048000C004800100048EA
:100500000014004840420F007020002014200020FA
:100510003F19010010E000E008160020401B0020F9
:1005200078C90108500F0020D01C002000080048A6
:1005300010318E422DD12F4B2F4E1D682F4BDFF8DF
:10054000C4901E602E4B04221A70002130224846AF
:10055000A6F5BE7617F0DAFD0021012389F80C30EC
:1005600089F8001089F8181089F8241096F8059079
:100570001C22384617F0CAFDB9F10E0FC5F38018DA
:1005800033461FD101228DF8CC201FE001230A93AE
:1005900078E611F8063C51F8100C11F805EC03F060
:1005A0000702DB0800EB83039200186A0EFA02FED2
:1005B00005FA02F220EA02021A621A6A4EEA0202FE
:1005C0001A62B5E709F0EF02082ADBD00022042AFC
:1005D000114619D0013203EBC20090F976010228CE
:1005E000F5D103EBC102B2F88021003218BF01221D
:1005F0000BE000BF401B0020841700204025002096
:10060000441100204811002000228DF8C120C5F3BC
:1006100040028DF8C220C5F340328DF8BC20C5F3EE
:10062000C0328DF8BF2015F400628DF8C48004D06C
:1006300093F81821961E724272418DF8C020C5F3BE
:1006400000428DF8C520C5F3C0028DF8BE20C5F369
:1006500000528DF8C720B3F8D620ADF8CA20B3F801
:10066000E220ADF8C820C5F3804205F0010005F096
:1006700008018DF8C320ED04B3F8E02048BFB3F8BB
:10068000DC50B3F8D460ADF8D06048BFADF8D050BE
:10069000B2F5FA7FADF8CE20C4BF0022ADF8D0206D
:1006A00093F86821B54B8DF8BD001A70B44B002249
:1006B000A3F8B8209DF8CC30934218BF022200B9AD
:1006C00001B10132AF4B03EB82034FF0000AD3F8C4
:1006D000E030A3F1020B14330593AB4BA3F10806F2
:1006E000B43304933BF8023F4FF6FF72934240F05D
:1006F000B881A64BDFF8E4E2A54F04221A7000256A
:10070000EB190FCB05EB0E061035402D86E80F00D8
:10071000F6D1A049A04B0A681E68A04BA0481D68EE
:10072000049102F480570023002F00F09382B5F962
:10073000041020F8131001330C2BF5D1510358BFCE
:10074000984B994D994EDFF898825CBF01221A7040
:10075000039B039A1B7843F004031370944B1D60B2
:10076000636943F480236361E36943F40013E36145
:10077000236B23F010032363236B43F010032363E5
:10078000736A23F00F037362736A43F004037362A6
:10079000736A23F0F0037362736A4AAF43F0400355
:1007A00073624FF4807347F8503D4FF000094FF0EB
:1007B000020B4FF0030A394630468DF8DE908DF873
:1007C000DF908DF8DCB08DF8DDA005F02BF84FF44C
:1007D000007339463046369305F024F82B6823F031
:1007E00001032B602A68734B13402B60724B2B6103
:1007F0002B6843F001032B60C5F80890C5F80C90F6
:10080000C5F80890AB6843F40043AB602B682B60DD
:100810006B6823F0784323F400436B602B6843F04C
:1008200001032B60049B1D6810224946404617F0C7
:100830006DFC05EA0B054FF6FF732B938DF8B1B0F5
:100840008DF8B2908DF8B3908DF8B0A085B14AA91B
:10085000012541F87C5D304604F0E4FF0C2388F864
:100860000030072388F8019088F8033088F8025098
:100870004FF4D87002F020FD6369504843F0805374
:1008800043F00203636102F017FD636943F0005314
:1008900043F0020363614A4C204604F04AFF3846A5
:1008A00004F01CFF4FF48072464B3C924FF4806280
:1008B00036933D92444B37932022002320463E92AC
:1008C00039464FF4005238933A933B933F9240930A
:1008D000ADF8E45004F00FFF236843F001032360F8
:1008E0003A4CA36823F04053A360A36843F08053BD
:1008F000A3600A2008F0E6FBA36823F08043A3600E
:10090000A368A360A36843F00043A360A368002B1F
:10091000FCDBA3682E4A2D4E23F04053A360A3684E
:1009200043F00053A36091682A4B0B4043F46833B3
:100930009360E268284B134043F40053E360236B59
:10094000013D23F00F031D4325630122002408EB22
:100950000403997841B1551CEDB2DB7818F8041006
:10096000304604F04AFE2A460434102CEFD1174BCF
:100970009A6842F001029A6034E000BF241F002010
:10098000480F002048C90108500F002076200020A1
:1009900038CA0108401B00204C1C0020481C0020C5
:1009A00024250020380F0020005400400004004897
:1009B00010250020FFE0CF007A25E000003600106F
:1009C0005804024040040050A412002000040050CB
:1009D00000070050E010FCFF07C0FFFD780E00206C
:1009E000941200201A68D207FCD5DA689B4C22F0DA
:1009F0000202DA60DA6842F00202DA60DA6842F093
:100A00000102DA609A6842F004029A60B4F9E830B0
:100A1000002B00F0458107EE903ADFED916AB4F9C2
:100A2000EA30904AF8EEE77A07EE103A67EEA67AD7
:100A3000B4F9EC30CDED367A07EE903AB8EEC77ADD
:100A4000F8EEE77A002127EE267A67EEA67A117093
:100A5000384685498DED377ACDED387A04F0A0FF20
:100A600028E19DF8C220DDB21B0A42B106EB051257
:100A70007E48D168814202D1128A012A53D0022BCA
:100A800056D19DF8BC20002A4DD0794A02EB0517BB
:100A90009DF8C72032B19DF8CC201AB92A1F032A2D
:100AA00040F2C680012BDAB247D1724BC6F8C8704B
:100AB00006EB05154FF00008FF2283F8442083F869
:100AC000452083F80080C3F80480C3F80880C3F889
:100AD0000C80C3F8408083F8468083F847806B7DA4
:100AE0002A8A8DF8DA3036A90223E86886F8BC80B5
:100AF0008DF8DB30ADF8D82007F01AFA4246A97C11
:100B0000A86807F021F9384604F078FA5A4B5B4A96
:100B1000C6F8CC305A4BC6F8D030C6F8D480111F76
:100B2000384606F01FFA059B9B457FF4DBADE0E5F8
:100B3000012BAAD19DF8BD20A5E7022A41D15FFA79
:100B40008AF14FF01C0909FB01F906EB090806EBD5
:100B5000051501210023288A88F8BC10697D88F8D2
:100B6000BE3088F8C63088F8BDA0ADF8D8008DF842
:100B7000DA10E868C8F8C87036A906938DF8DB204B
:100B800007F0D6F9069BA97CA8681A4607F0DCF89E
:100B9000384604F033FA069B3A4AC8F8CC20C8F825
:100BA000D430394A049BC8F8D02009F1100109F16A
:100BB00014021A441944384606F0D4F90AF1010A1D
:100BC000B1E7032A31D19DF8C330304D63B196F8B7
:100BD000B98000234FF6FF720821384607F0D2F99A
:100BE0002B4B45F8280013E0BDF8CE1096F8B980DD
:100BF000BDF8D030B1F5FA7F11DD264AB2FBF1F233
:100C0000384692B2082107F0BDF9234B45F8280079
:100C1000C36096F8B930013386F8B93083E71F4ACC
:100C2000B2FBF1F2012192B2D7E7042A7FF47BAF45
:100C3000BDF8C830194A92FBF3F20121BDF8CA3061
:100C400092B2384607F09EF996F8B830013386F82C
:100C5000B83068E7B6F904106BE500BF081600204D
:100C600035FA8E3C2E010020D013002000040048ED
:100C7000500F0020A81E00205579000818100020F1
:100C80002D7A0008517E00082D790008F41E0020FE
:100C90003D7A000800127A00517A000840420F00A5
:100CA000B4F9EA20002A7FF4B6AEB4F9EC20002AA9
:100CB0007FF4B1AEDFF85C83B4F8F030C54DDFF8F7
:100CC00058A30593002694F8EF30C8F80060314629
:100CD0001022C8F80460C8F80860BF48039385F87C
:100CE0009C6194F8F79017F011FABC4AA5F89D6141
:100CF0002320CAF80060CAF80460CAF808601660C9
:100D000008F0E0F923AA0121752009F01BFCD34665
:100D1000F8B1B34ACAF80420B24ACAF808204322FC
:100D20008AF80020012127AA304609F00BFC9DF823
:100D30009C2002F07E028DF89C20002800F0FE80AE
:100D4000682A40F0FB80012285F89D211D228AF847
:100D5000002095F89D21A44B06930021042A1970C8
:100D600040F0E0849C4BA14AA14E1A60A14A5A600F
:100D7000A14ADA603268079142F0010030609A4679
:100D80004FF0010B40F2022040F2FD1E039B0A2BA4
:100D900028BF00230BFA03F111EA000C40F0CA84CB
:100DA00011EA0E0F00F0C684944B83F800C0944BF8
:100DB000C8F8003042F00302924BC8F804303260A9
:100DC00033689B0702D5D8F800309847DAF800302E
:100DD0000598DFF8488298474FF0000AD34688F814
:100DE00000B0B9F1000F04D0A9F10203022B00F208
:100DF000E9803B46012200210C208DF8D8A009F0A3
:100E000027FB002800F0DE809DF8D830482B40F00A
:100E1000D9807D4B7D4A1A607D4A5A60062388F846
:100E20000030336843F00803336094F8E4300BB1CA
:100E3000069A137094F8E5300BB1704A137094F869
:100E4000E6300BB188F8003094F8F830042B00F24B
:100E5000EB80012606FA03F212F0160F67D112F0AA
:100E6000090F00F0DF800A2008F02CF92BAB324686
:100E7000A021772009F0ECFA8046002857D03246AE
:100E80001E21772009F0DAFB08F000F9064608F089
:100E9000FDF8801BB0F52F6FF9D3DFF884910026A1
:100EA000B346CA46A6F160013B460222C9B277208A
:100EB0008DF8D8B08DF8D9B009F0CAFA9DF8D820CD
:100EC0009DF8D93043EA022326F809300236102E65
:100ED000E8D1B9F80E20002302F00F0602F47F4299
:100EE000A9F80E20194648103AF81000002818BF3B
:100EF0004FF00008CF0746BFC0B2434083EA10233B
:100F000008201F0448BF83F4C05301384FEA43034D
:100F1000F7D101311029E6D13243AAF80E20B8F1F9
:100F2000000F04D1C3F303339E4200F00E8495F802
:100F30009C3143F0200385F89C317AE09DF88C3099
:100F400003F07E03682B8DF88C3035D10223062107
:100F500085F89D313A46DBF80430084698479DF8FD
:100F6000DD309DF8DB209B00520002F0020203F00E
:100F7000040313439DF8D92002F001021343DAB2AF
:100F800063B1012A03D1002385F89E31E1E6022AEC
:100F900001D10123F8E7022008F0A3F8DBF80430C0
:100FA0002BAA01210C2098479DF8AC3013F00F03B9
:100FB000F1D0042BEDD1E6E7702B04BF042385F8B4
:100FC0009D31C6E6B9F1010F7FF62FAF4FF0000952
:100FD00005E700BF480F0020D0240020082500208E
:100FE00045A5000851A60008180D002095A300088B
:100FF000FC1F0020C9A2000890C1793D780D002097
:101000003DA400080DA30008080D0020397B00084E
:10101000757A00086C0D0020F8240020100D0020C7
:10102000C01B0020012B82D09A4A136843F00403AE
:1010300013606B68012B02BF95F89C3143F04003AD
:1010400085F89C3195F89C610EB13046A4E72B7869
:1010500043F002032B70904D4FF400532B854FF457
:101060008043AB611027013F15D0AB8A9BB283F45C
:101070000053AB82AB8A9BB283F48043AB82AB8AD2
:101080009BB283F40043AB82192008F01BF81920AF
:1010900008F018F8E7E74FF48043AB614FF40058CD
:1010A0004FF400437B4FC5F81880AB613B681807CD
:1010B00009D57A4BA5F828801B689847784BC5F866
:1010C000188001221A70774B9FED778A1B689FED7D
:1010D000770A1B7B764D07EE103AB8EEC77AA7EE7B
:1010E000080A04F0FAFB2B8807EE103AB8EEC77A2C
:1010F00027EE000A1AF038FE6E4BDFED6F7A18808B
:101100002B886E4D06EE903AF8EEE66A6C4B87EE51
:10111000A67A1B22FF212846DFED6A7A27EE277A7E
:1011200083ED007A684B9FED697AD3ED037A684BC3
:1011300067EE887A67EE877AC3ED007A16F0E6FFED
:1011400000222A703A68634B012112F0020F1970D5
:10115000284604D06970032119700221A970510733
:1011600004D519784D1C1D700325455412F00A0F43
:1011700040F0FB82049A11688A0604D51A78551C3F
:101180001D70072585546779082F01D00E2F04D1D3
:101190001A78551C1D700B2585541A7811F0040F10
:1011A00002F101054FF00C0E00F802E0EDB218BF9D
:1011B00002321D701EBF1A70102242551A78551C3B
:1011C000EDB24FF0120E11F4806F1D7000F802E0C6
:1011D00005D094F8A0E1BEF1000F40F0D4828D0557
:1011E00004D51A78551C1D7015258554182F0DD15E
:1011F0001A7816258554551CEDB24FF0170E00F8DD
:1012000005E0D51C0232D2B21D708754CA0504D540
:101210001A78511C19701A238354982200212E48E1
:101220002D4DDFF8B8B016F071FF012007F044FC37
:101230004FF04C08002853D0012E51DC08FB06FA71
:1012400005EB0A0999F84A7017B10136F6B2F1E7D1
:10125000037990F9000001970BEB830303220092BE
:10126000D3F830313A46012107F0C8FB039068B14A
:1012700006FB08504C22394616F048FF039B45F800
:101280000A3001231E4489F84A30F6B2012007F0E3
:10129000F1FBCFE7FC1F002000080048080D0020EC
:1012A000981B0020681C002035FA8E3CDB0FC93FDC
:1012B00016030020B01500200AE81C41E9100020A8
:1012C000B42500200000C842D0240020BD37863558
:1012D00094150020E8100020C00D002048C9010826
:1012E000B14B2A681A60B14BB14AB2491A60002367
:1012F0000B808B70B048B14902600F68B04AB4F8F7
:101300002A01B04DDFF83C83DFF83CE3137007F1AE
:1013100079010FFA80FC2E46D8F8002025F813C07A
:1013200002F516724EF823200133122BF4D1A64D8C
:10133000D5F800E01EF4805F08BFB4F930C1A6F80C
:1013400006C0C9370B7883B98A78CB789A420CD219
:10135000F2B1013A02EB820202EB820202F5617302
:101360004A7804329BB226F812300431B942E9D1EE
:101370001EF0080F21D094F82421062A17D8DFE8A0
:1013800012F00F007B007E00AA00C400DE00DE0029
:10139000013303EB830303EB830303F56173DFE79F
:1013A00045F2F052894B1A8003F0E6FD28B9082077
:1013B00004F0C2FB864B874A1A602B68864A13F4F6
:1013C000804F04D01221117081498448086042F294
:1013D00001073B4203F0010103F400500FD07B4BA7
:1013E00044F620671F8020B108231370784B7C4897
:1013F000186021B10C231370754B7A49196013786A
:10140000794FDFF848A2DFF84892043B537007F0A9
:101410003DFE764B18606379754C052B02BF754B0A
:101420004FF4C8721A80744B744A1A60744B754A30
:101430001A60754B754A1A60754B4FF47A721A80B0
:10144000002323603B602368002B40F012814FF0A3
:10145000230807F01BFE05F08FFC0A2007F032FE80
:10146000B8F10108F5D105F019FCDAF80030236075
:10147000D9F800303B60E6E742F6F82292E7534B9A
:1014800042F6F8221A80634A0A23000190FBF3F027
:101490000023A0F5B06042F823000133122BFAD1EB
:1014A0004B4A5D4911604C4A4020137007F004FB21
:1014B00000283FF47CAF01234FF0070E90F90000A5
:1014C000564A8DE80840564B402107F097FA003005
:1014D00018BF01206AE73D4B42F6F8221A803C4BC8
:1014E000504A1A603C4B102240201A7007F0E4FA70
:1014F00000283FF45CAF0123002790F900004A4A1E
:101500008DE888004FF4E133DEE7304B42F6F822F5
:101510001A802F4B454A1A602F4B082240201A7020
:1015200007F0CAFA00283FF442AF0023012190F9E6
:1015300000003F4A8DE80A004FF4E133C4E7234B33
:10154000DFF81091DFF81081DFF810C1DFF810E14B
:10155000384F394842F6F82119801F4B0C21197079
:10156000062A4FF0000389F8003088F800308CF824
:10157000003077D01B238EF80030052339700370BC
:101580004FF4E137124B2D4A1A60402007F094FACD
:1015900000283FF40CAF0122002390F900008DE8F1
:1015A0000C003B46264A8FE71C200020E024002048
:1015B00024170020201C0020E41B00200C20002009
:1015C0001D140020441B0020401B00205A0E002048
:1015D000000300203DA7000804160020452E000847
:1015E000612E0008552E000850250020880D00208F
:1015F0005425002006200020C82500209A99993FF4
:10160000C42500208FC2F53EC02500206F12833D07
:10161000F81F002028120020112E00086D3200084B
:10162000A0860100FD2D0008C9310008E52D000845
:1016300081310008B511002043130020092D000856
:1016400071300008B41C002044140020981C0020B5
:10165000941C0020B61100204113002040130020EC
:1016600042130020212339708EF800300270484F59
:1016700088E70023DFF86091DFF8608123603B603A
:101680004FF00F0A4FF0050B07F000FD05F074FB5B
:101690000A2007F017FDBBF1010BF5D105F0FEFAAA
:1016A0002368D9F800103A681944D8F8003021604E
:1016B0001344BAF1010A3B60E4D10F2293FBF2F329
:1016C00091FBF2F1334A3B601378216043F0080349
:1016D0001370314A137823F0020313702B6840F61D
:1016E00002021A420BD02D4B2D4A1A602D4B0322B9
:1016F0001A702D4BA3F800A02C4BA3F800A02C4B84
:101700009B682B602B4B01221A702B4A137863F0D5
:101710007F0313704FF4966373814BB0BDEC028B63
:10172000BDE8F08F95F89C3143F0020385F89C31B9
:10173000FFF78ABB0021012B03913FF627AB1F4B1C
:101740009DF81C201A70FFF73BBB1D4B42F2107234
:101750001A805A801B4A5A601B4A9A601B4ADA60F8
:101760001B4A1A611B4A5A615EE41A7804218154AB
:10177000511CC9B205254554D11C0232D2B2197090
:1017800006218154F6E402321A701322425526E5EE
:1017900090D0030008200020991B00207811002021
:1017A00016170020F4130020F6130020F813002071
:1017B00008160020380F0020480F0020780D002068
:1017C0009C1C002093640008C7640008896400081A
:1017D000C5640008E9620008981C0020941C0020E1
:1017E0002DE9F04F292380F860314FF4C8760123AA
:1017F000041D05469DB080F86131A0F862610022A9
:101800008821204608F08FFF4FF47A72A5F8562100
:10181000714AC5F85C210023704AA5F8586185F823
:10182000F430C5F8D8206B620CA9204605F0A4FF5F
:101830000646A0B98DF830008DF831000DF1300E5C
:10184000BEE80F0005F114070FC7BEE80F000FC771
:10185000BEE80F000FC79EE80F0087E80F00642363
:10186000A5F838314FF46173A5F83A314FF4FA73A3
:101870000127A5F83C314FF42063A5F840313A46E2
:10188000802185F85471204608F04DFF3A46804685
:10189000FF21204608F047FF002248EA00001146D9
:1018A0000643204608F03FFF76B20DF128080643B4
:1018B00042469121204608F0F7FE76B29DF8283086
:1018C00085F83E3106433A460021204608F02BFFBA
:1018D00076B206430022FF21204608F024FF76B2AC
:1018E000064300228021204608F01DFF76B23043D7
:1018F00040B20026002840F0DD81B3B2013B042B4A
:1019000004D8DFE803F00B595C5F660085F82C70A3
:10191000AB194FF0000A83F82C700BE005EB86033F
:1019200044219A6B2046C2F34F2208F0E8FE82461B
:101930000028EDD00136062E5046DBD1BAF1000F5B
:1019400056D185F82EA085F82FA00223FE22602113
:10195000204608F0B6FE8246002849D185F83000BE
:101960001023EF226021204608F0ABFE82460028BB
:101970003ED14FF49013AB6395F82D3085F83100CC
:1019800073BB4FF48043EB634FF40C132B6495F857
:101990002F30002B40F08C81FF226B6485F83421BE
:1019A0000121204608F0BFFE012385F8363182462A
:1019B000F0B985F819A11BE085F82E70A8E785F825
:1019C0002F70A5E70023FE226021204608F079FE53
:1019D000ADE70023EF22F7E7856B0100A470090053
:1019E00020224421204608F08AFE82460028C8D0E2
:1019F000B44F87F800A0BAF1000F40F01A814022DE
:101A000051460CA816F082FB95F8F490ADF81EA094
:101A1000B9F1070F8DF81BA08DF81CA0CDF820A000
:101A200000F0F28001228021204608F07CFE012295
:101A30000646FF21204608F076FE524606435146F0
:101A4000204608F070FE76B206430622FF212046AB
:101A500008F069FE76B206430DF11D02832120468F
:101A600008F022FE9DF81D2076B2064342F00402E3
:101A70008321204608F057FE76B206430722FF2155
:101A8000204608F050FE76B201228121064320460E
:101A900008F049FE76B206430A2007F013FB012244
:101AA0008021204608F03FFE76B2064319F0010B74
:101AB00076B240F001816B229421204608F033FE7B
:101AC0008246204603F030FD4AEA0000064309AA98
:101AD0009021204608F0C0FD099B76B2C3F3062290
:101AE00094210643059220462422C3F3C03A08F00D
:101AF0001AFE76B20643204603F016FD76B2064380
:101B000009AA9021204608F0A7FD099A8DF82B20FC
:101B1000110E8DF82810110C8DF8291076B2110ACB
:101B2000064325228DF82A102046942108F0FBFD5B
:101B300076B20643204603F0F7FC76B2064309AAC4
:101B40009021204608F088FD099A76B2110E0643CE
:101B5000120C76B28DF82C108DF82D2000228121E8
:101B6000204608F0E0FD06220643FF21204608F04B
:101B7000DAFD76B206430DF11D028321204608F0FE
:101B800093FD9DF81D2076B2064302F0FB028321EF
:101B9000204608F0C8FD76B206430122FF21204608
:101BA00008F0C1FD76B2064301220021204608F06C
:101BB000BAFD76B206430022FF21204608F0B3FDAD
:101BC00076B2064300228021204608F0ACFD76B2B2
:101BD000304310F0FF0F17D1BBF1000F10D19DF86B
:101BE000143085F8173185F818A105F5977318F8A2
:101BF0000B2003F8012B0BF1010BBBF1060FF6D103
:101C000049F0010985F8F49095F81891B9F1010FA0
:101C100005D895F817A152D1BAF1200F54D907AAC7
:101C200008A9204606F08AFC0646002800F09A80A3
:101C30003E7097F900302BB908AA09A9204606F092
:101C40007DFC387097F9003043B901230DF11D0276
:101C50000DF11E01204606F01BFC387097F900308C
:101C600013B901222A753B7097F900301BB9012284
:101C700085F82C203B7097F900305BB9EA6B442162
:101C8000C2F34F22204608F03AFD10B9012385F82F
:101C90002D30387097F90030002B40F06C8195F8AA
:101CA0002D00002840F05E8141F69913EB6361E15D
:101CB000002371E682469BE6CDF814A04EE7BAF108
:101CC0000C0FABE7FD2500200122FF21204608F084
:101CD0002AFD0246A8B94F21204608F024FD80B90C
:101CE0002C224E21204608F01EFD024648B9FF2155
:101CF000204608F018FD20B9B422B621204608F08D
:101D000012FD002385F8283185F8293185F82A311C
:101D100085F82B3185F82C3185F82D31B9F1000F7C
:101D200000F01B818E4903F1B402920951F8222080
:101D3000002A00F0DE818DE80804CDF8088005F562
:101D4000947305F597724946204603F033F806462A
:101D500000287FF46DAF012385F8193185F817A1AC
:101D600085F8189195F85431002B40F0C781D5F8CB
:101D70005011204606F022FD064600287FF458AF99
:101D800032460A21204608F0CEFC064600287FF4A1
:101D90004FAF0346EF228421204608F092FC06460E
:101DA00000287FF445AF85F8DE00204602F06DFF85
:101DB000064600287FF43CAF0122FF21204608F0B0
:101DC000B2FC0DF11E0281468421204608F056FC2B
:101DD000324649EA0009FF21204608F0A4FC4FFAE8
:101DE00089F949EA000046B2002E7FF421AFBDF820
:101DF0001E301B01C5F8D8300CA9204605F0BCFCEC
:101E0000064600287FF414AF0DF11B02092120467D
:101E100008F04AFC064600287FF40AAF9DF81B3004
:101E20000DF1300E03F0010385F835318DF81B30CC
:101E3000BEE80F0005F114060FC6BEE80F000FC67E
:101E4000BEE80F000FC69EE80F0086E80F000DF1F8
:101E50001B020121204608F027FC064600287FF4DB
:101E6000E7AE9DF81B308DF8280085F834314246E6
:101E70000121204608F018FC064600287FF4D8AE61
:101E80009DF8283003F0EF094B450ED04A4601215A
:101E9000204608F048FC064600287FF4C9AE85F8C5
:101EA0003491A969204606F0E2FC00234246012154
:101EB00020468DF8283008F0F7FB064600287FF40E
:101EC000B7AE9DF8283003F0FB094B450ED04A46CB
:101ED0000121204608F027FC064600287FF4A8AE22
:101EE00085F83491A969204606F0C1FC4FF003093A
:101EF00085F8369109AA0021204606F019FD06460C
:101F000000287FF495AE9DF8243085F8EC3009AABE
:101F10000121204606F00CFD064600287FF488AE1D
:101F20009DF8243085F8E43042464946204603F0C7
:101F300059FA064600287FF47BAE0A9BC5F8E830C4
:101F400042460421204603F04DFA064600287FF45D
:101F50006FAE0A9BC5F8E0306AE64B46EBE600BF81
:101F6000F4CA01080C224421204608F0C8FB0028CE
:101F70003FF49AAE387097F9003043B94FF47013BC
:101F8000AB6344F62061204606F071FC387097F987
:101F90000030002B46D150225721204608F0C3FBC9
:101FA00008225621204608F0BEFBD0BB4246032142
:101FB000204603F017FAB0B90CAA0221204603F01C
:101FC00011FA80B908225021204608F0ACFB50B924
:101FD0000A9A0321204603F080F920B90C9A0221C5
:101FE000204603F07AF9122385F8EC30C8B9A969C4
:101FF000204606F03CFCA0B902220121204695F8BB
:10200000346108F090FB60B90146204606F028FADA
:1020100038B932460121204608F085FB08B985F819
:102020003461387097F90080B8F1000F5ED1482212
:102030001146204608F077FB08224721204608F089
:1020400072FB032206463221204608F06CFB072271
:1020500006433021204608F066FB76B20643012293
:10206000FF21204608F05FFB76B206432022302194
:10207000204608F058FB76B206434246FF21204630
:1020800008F051FB76B2304340B270BB0CAA042179
:10209000204603F0A7F950B906227021204608F027
:1020A00042FB20B90C9A0421204603F016F90E23B6
:1020B00085F8E430C8B9A969204606F0D8FBA0B974
:1020C00002220121204695F8346108F02CFB60B90A
:1020D0000146204606F0C4F938B9324601212046AF
:1020E00008F021FB08B985F8346138701DB0BDE8EF
:1020F000F08F2C2B3FF41FAE013314E6004938E675
:102100000A00002038B5044624200D4606F04AFC9B
:102110004D2006F047FC002C094C14BF21203E2026
:1021200006F040FC2368002228469A7106F03AFC2B
:10213000236893F84900BDE8384006F033BC00BF7F
:102140001C25002001460020DCE710B506F020FC2D
:10215000044606F01DFC04EB004010BD2DE9F84FCD
:102160004B282DED048B00F0148500F2F08032280E
:1021700000F052856BD8222800F043842BD8032826
:1021800000F0D28207D8012800F0B182022800F0C6
:10219000BB820020C4E2042800F0CD820528F8D1DB
:1021A0001A20FFF7CFFFC94D0024285D013406F047
:1021B000F9FB0B2CF9D1C64D0024285D013406F043
:1021C000F1FB082CF9D100240020013406F0EAFBD1
:1021D000072CF9D1A3E2282800F0C28413D82428C0
:1021E00000F0B3842628D4D1BA4C0620FFF7AAFF0A
:1021F000B4F8E80006F0E8FBB4F8EA0006F0E4FB07
:10220000B4F8EC0050E22A2800F0BD842C28C0D19C
:10221000B04C0C20FFF796FF94F8240106F0C2FBA7
:10222000B4F82E0106F0D0FBB4F82A0106F0CCFB7E
:10223000B4F82C0106F0C8FB94F8250106F0B2FBB7
:10224000B4F8300106F0C0FBB4F832012CE23D28AE
:1022500000F01A8344D8382800F07D8433D834281D
:1022600000F0F283362894D19B4D9A4C95F85C008F
:10227000C0EBC000C0B2FFF765FF04F12006603577
:1022800094F97E0100230C33EA1812F90C2C8242D7
:1022900040F0D784C0B206F085FBB4F8800106F0A8
:1022A00093FB94F8820106F07DFB94F8830106F01D
:1022B00079FB94F8850106F075FB94F8840106F02B
:1022C00071FB00F0C1BC3A2800F0B5823B287FF4D6
:1022D00060AF0120FFF736FF804B1B68187810E2D3
:1022E000452800F0C38426D8402800F09C8442286A
:1022F0007FF44FAF774C1020FFF724FF607906F092
:1023000051FBA06806F069FB94F8240106F04AFB33
:10231000B4F8E80006F058FBB4F8EA0006F054FB05
:10232000B4F8EC0006F050FBB4F8140106F04CFBD6
:10233000B4F81601B8E1462800F08B8449287FF4F0
:1023400028AF0220FFF7FEFE624B9889ACE17328AC
:1023500000F0C68300F25A816C2800F0538200F22C
:10236000D580662800F0188200F296804D2800F093
:10237000338465287FF40DAF0B20FFF7E3FE584B45
:10238000188806F021FB574B1A68574B9A420CBF2E
:10239000564B574B188880B206F016FB554B186801
:1023A000C0F3C003C0F380029B0043EA4203C0F3C2
:1023B00040021343C0F3401243EAC20300F010008E
:1023C000184306F001FB4C4B1A884C4B19684C4BD8
:1023D0001B7802F00100C3F3800343EA4003C2F319
:1023E000400043EA800302F008000343C2F3800088
:1023F00043EA0013C2F3801043EA401301F04000A7
:10240000034301F08000034301F480700343C2F3EF
:10241000001043EA4023C2F3401043EA8023C2F392
:10242000002043EAC02301F48050034301F400502C
:10243000034301F48040034301F40040034301F4EB
:102440008030034301F40030034301F48020034350
:1024500001F40020034301F480100343C2F3402041
:1024600043EA405301F000710B431B49C2F3802241
:10247000002011F8016B43EA826301250246B24253
:1024800080F06981545C05FA04F41C421CBF05FA13
:1024900002F420430132F2E7682800F0A78169289E
:1024A0007FF477AE174D184E2878400000F0FE00FC
:1024B000FFF748FE00242B789C4280F0308136F8EC
:1024C000140006F081FA0134F5E700BF78D5010861
:1024D00084D5010808160020E81000200C200020F8
:1024E000F41F00201025002000540040F424002098
:1024F000F6240020FC1F00209C1B0020EC1F002065
:10250000991B002004160020441B00206F2800F0B7
:10251000C68130D86D2800F084816E287FF439AEF2
:102520000720FFF70FFEC64BC64C1888FF28A8BF30
:10253000FF20C0B206F036FA206D4FF6FF75A842B4
:10254000A8BF284620EAE07080B206F03DFAB4F851
:10255000540006F039FABC4B93F81931002B00F007
:102560008F81A36D0A205843A842A8BF284620EABD
:10257000E07080B298E0702800F0B98172287FF492
:1025800008AEB14C1620FFF7DDFDB4F82A0106F0C5
:102590001BFAB4F8D00006F017FAB4F8D20006F02F
:1025A00013FAB4F8D40006F00FFAB4F86C0106F090
:1025B0000BFA002006F0F6F9002006F0F3F90020EF
:1025C00006F0F0F994F8190106F0ECF994F82601F8
:1025D00006F0E8F9002006F0E5F99C4B1B68B3F91A
:1025E00056000A2390FBF3F080B206F0EDF994F860
:1025F0000E0106F0D7F994F8120106F0D3F994F819
:10260000110106F0CFF994F813017AE0A02800F048
:102610008C8222D8772800F048820FD8742846D0C0
:1026200075287FF4B6AD2F20FFF78CFD884C14F889
:10263000010F002873D006F0B5F9F8E77B2800F009
:1026400024837C287FF4A5AD0320FFF77BFD814B1D
:10265000187806F0B9F9804B40E6F02800F058826F
:102660000AD8DD2800F00E83DE287FF492ADFFF754
:102670006CFDFFF76AFD52E0FE2800F03C82FF2867
:102680007FF487AD754A6F4C11880023A383012224
:10269000114266D101339BB25200082B92B2F7D19E
:1026A0000220FFF74FFDA08B06F08EF937E0654F53
:1026B00000264FF0010ADFF8C4914FF0000B3B7881
:1026C0005B4540F3E881664B0C251BF80340002373
:1026D00005FB03F202EB090012F80920A24200F008
:1026E000D98201331C2BF3D10BF1010BE7E7032057
:1026F000FFF728FD002006F055F9022006F052F9F8
:10270000002006F04FF90AE00520FFF71BFD554DAC
:102710000024285D013406F045F9052CF9D101208B
:10272000BDEC048BBDE8F88FFFF70CFD012006F02F
:1027300039F90020E2E70A20FFF704FD062006F041
:1027400043F9494D0024285D013406F02BF9062C8D
:10275000F9D10020A8E706F040F93B4B93F80405B7
:10276000CFE7013B062B05D8DFE803F007090C0E85
:10277000101214000123A38392E70223FBE74FF416
:102780008073F8E78023F6E74023F4E72023F2E79D
:102790001023F0E70823EEE71220FFF7D3FC334BBA
:1027A000284C1B88B3F5806FD4BF0126082600256E
:1027B00004F11E0737F9150090FBF6F0013580B2E1
:1027C00006F002F9032DF5D1A08C06F0FDF8E08C9F
:1027D00006F0FAF8208D264C06F0F6F8208806F070
:1027E000F3F8608806F0F0F8A0885DE71020FFF7A6
:1027F000A9FC204D0024285D013406F0D3F8102CEC
:10280000F9D18CE70F4C0620FFF79CFCB4F842008E
:1028100006F0DAF8B4F8440006F0D6F8164B18883B
:1028200042E7084C0620FFF78DFCA06C06F0D5F8B7
:10283000B4F84C0038E70420FFF784FC002081E165
:1028400038130020E8100020081600200C2000207B
:10285000C3CA01083C250020FD000020F41F002011
:10286000E91000206AD5010870D501081603002080
:10287000801B0020121100200020002060CC0108E5
:10288000A06D00F30F0074E6C94C0220FFF75AFC5C
:1028900094F8740106F086F894F8730131E7C54C9A
:1028A0000B20FFF74FFC2368187806F07BF82368AD
:1028B000587806F077F8002523682B4401351879FD
:1028C00006F070F8032DF7D12368D87906F06AF87E
:1028D0002368987806F066F82368D87806F062F8DE
:1028E0002368588906F070F82368187A09E7B24C13
:1028F0001E20FFF727FC23681B78022B4FF00005F2
:102900006CD19FEDAE9ADFEDAE8AB2EE048A2368F9
:1029100003EB850393ED080A20EE080A19F024FA68
:1029200080F30800C0B206F03DF8236803EB85038E
:1029300093ED0B0A20EE090A19F016FA80F308004D
:10294000C0B206F02FF8236803EB850393ED0E0A5F
:1029500020EE280A19F008FA80F30800C0B2013509
:1029600006F020F8032DD2D1072D236829D193ED4D
:10297000110A20EE080A19F0F7F980F30800C0B236
:1029800006F010F8236893ED120A20EE080A19F0F9
:10299000EBF980F30800C0B206F004F8236893F85E
:1029A0004C3000EE103AB8EE400A19F0DDF9FF287D
:1029B000A8BFFF20C0B2013505F0F4FF0A2DD3D126
:1029C000ADE62B44587805F0EDFF23682B44D87A08
:1029D00005F0E8FF23682B44587DECE723682B447F
:1029E000587805F0DFFF23682B44D87A05F0DAFF2A
:1029F00023682B440135587D05F0D4FF0A2DEDD115
:102A00008DE65020FFF79EFBDFF8AC816D4E002570
:102A10000C27D8F8004004EB8504013594F8793090
:102A200007FB0363187A05F0BDFF94F87A0005F000
:102A3000B9FF94F87B0005F0B5FF94F87C0005F031
:102A4000B1FF142DE5D16AE64820FFF77BFB5A4F12
:102A5000002506263C6806FB0544013594F8CE00A7
:102A600005F0A0FF94F8C90005F09CFF94F8CA0097
:102A700005F098FF94F8CB0005F094FF94F8CC0093
:102A800005F090FF94F8CD0005F08CFF0C2DE1D1FE
:102A900045E6464428E6BAF1000F3FF440AEF0B2F6
:102AA000FFF750FB4FF0000A05E6474C454D2078F4
:102AB000FFF748FB0026671C4FF00C0823789E4266
:102AC000BFF42DAEF05D002308FB03F25119525DF7
:102AD000824200F0F28001331C2BF5D10136EDE784
:102AE0000820FFF72FFB0124E0B2013405F05AFF64
:102AF000092CF9D113E60820FFF724FB002005F08C
:102B000063FF002005F060FF002005F05DFF20E678
:102B1000294C0420FFF716FB2368B3F85A0005F090
:102B200053FF2368B3F85800BEE50C20FFF70AFBFB
:102B3000264B186805F051FF254B186805F04DFF2E
:102B4000244B186805F049FFE9E50420FFF7FAFA7D
:102B5000174B9868F6E70420FFF7F4FA144C46E5A3
:102B6000134C0720FFF7EEFAB4F8140105F02CFF20
:102B7000B4F8160105F028FF94F8180105F012FFCB
:102B8000B4F81A0190E50120FFF7DCFA084B5879F8
:102B9000B7E5074C0420FFF7D5FA94F86A0105F071
:102BA00001FF94F86B0105F0FDFEB4F86C017BE5C4
:102BB00008160020D01B00200C2000200000C84276
:102BC00000007A4460CC0108E8100020ACF7FF1F39
:102BD000B0F7FF1FB4F7FF1F3A4D3B4C287800EBCE
:102BE0004000C0B2FFF7AEFA00262B789E4204F1F7
:102BF0000204BFF494AD14F8020C05F0D3FE14F8EF
:102C0000010C00EB800000EB800000F2EE2080B2AF
:102C100005F0DAFE0136E8E70120FFF793FA2B4BC7
:102C200093F826016DE50820FFF78CFA274D002464
:102C30006319013493F81C0105F0B4FE082CF7D198
:102C40006DE5302B7FF41FAB0834A6427FF418AB40
:102C500065E50D20FFF776FA002005F0A3FE0020C1
:102C600005F0BBFE002005F0B8FEE7E51320FFF7F6
:102C700069FA174D0024285D013405F093FE0B2CF2
:102C8000F9D1EFE705F084FE49E50220FFF75AFA93
:102C9000104BC4E5456828460FF072FB8046BAF138
:102CA000000F7FF4F6AE2C46631B98457FF71CADF2
:102CB00014F8010B05F076FEF6E7087A05F072FECF
:102CC0000CE700BF041600203C1700200816002067
:102CD00078D50108180300200A4B1A68117840F2D1
:102CE00057134B435843537800F54730C3EB033336
:102CF00000F2CE30B0FBF3F09378B0FBF3F080B28B
:102D0000704700BF7811002003789942BDBF034B84
:102D100003EB410188880020704700BF7811002034
:102D2000F0B5244D00210B462C4641F221064218F5
:102D30002A44127F83EA02230922013A07D013F4BE
:102D4000004F4FEA430318BF73409BB2F5E70131D0
:102D50001929ECD100F1190100F11A05214425448B
:102D60000E7F297F01EB062189B2994220D194F888
:102D70003D6001384FF4AF65D7B2B74202F10102AE
:102D800013DA00EB4201C9B263180131214493F810
:102D90001CE00B7F03EB0E239BB26B4304EB470756
:102DA0001B1303F54873BB80E6E7012384F83E302C
:102DB000F0BD00BF7811002003788B420BD9074B80
:102DC0001A78074B89000B44186C02B1400800F5D3
:102DD000777080B270470020704700BF361B00201C
:102DE0007811002007299BBF034B03EB81010020D2
:102DF000086F80B2704700BF78110020034B03EBCF
:102E00004101B1F89000C008704700BF7811002060
:102E10000A4BDFED0B7A03EB810191ED2C7AB8EED2
:102E2000477AF6EE046AE7EE267A82B0FCEEE77A9D
:102E3000CDED017ABDF8040002B070477811002092
:102E400000005C44024B03EB4101B1F8F80070470D
:102E500078110020014B33F811007047901E0020BC
:102E6000014B33F811007047901E00202DE9F04708
:102E7000774C94F81D3104EB43032DED048BB3F82C
:102E80002C81B4F93A310A2B1CBF002384F8383165
:102E900094F838311FFA88F8A4F83481002B61D1F6
:102EA0006C4BC4F83C31C4F844314FF07E53C4F845
:102EB0004831694BC4F84C31684BC4F8503140F28A
:102EC000DC53674DC4F88C31DFED668A664AC4F87E
:102ED00040211023A4F88A311823A4F8883105F181
:102EE000140605F10C07B0EE689AB6EE008AD5ED2F
:102EF000037A67EEA87AA946F5EEC07AF1EE10FAE9
:102F00004CBF77EEC87A77EE887A043517EE900AD0
:102F100011F0E6F8D9ED007A67EE897AC6E9080182
:102F2000F5EEC07AF1EE10FA4CBF77EEC87A77EE84
:102F3000887A17EE900A11F0D3F8AF42E6E9020161
:102F4000D5D10A23A4F83A31A8F2DC531B04C4F803
:102F5000A831C4F8B431C4F8AC31C4F8B831012395
:102F600084F83831414BD4F88CA1B4F98A515A6AAB
:102F7000D4F8A871D4F8B461D4F8B8C1C4F8B86171
:102F8000A8EB0A0000FA05F1186AC4F8A8114FEA84
:102F9000E1794A4300FB0922A0FB010111445A6C6C
:102FA000D3F84080D4F8ACE1C4F8AC714FEAE679CC
:102FB000724308FB0922A8FB06899144DA6A9E6ADB
:102FC000C4F8B0E1B0EB080061EB09017A434FEAC5
:102FD000E77906FB0922A6FB07671744DA6CC4F8F9
:102FE000BCC13618986C4FEAEC790CFB02F24F41E9
:102FF00000FB0922A0FB0C01301A1144764667EB56
:103000000101F7171E6B5B6BB4F988210EFB03F30C
:1030100006FB0733A6FB0E671F448019794110F0A9
:10302000B1FF6A1E01239340C4F8B401C01841EBFC
:10303000E3712A4610F0A6FF10EB0A0080B2FFF7FA
:103040004BFEBDEC048BA4F8C001BDE8F08700BFC7
:103050007811002056157D396350FABF0CE0743F9B
:10306000B41200200000804B5615FD39B01200202C
:1030700070B5304C054606F009F8D4F8C431C4F8F0
:10308000C401C31AB3F5FA5F82BF002384F8C831C4
:1030900084F8C93194F8C83123B9A12D04BF0122A5
:1030A00084F8C92194F8C9212AB1E218EDB201339C
:1030B000157784F8C83194F8C85194F8CA31AB42F6
:1030C0000AD194F8CB31052B07D0062B08D000236A
:1030D00084F8C93184F8C83170BD0020FFF720FEA4
:1030E000637F1E2BF3D100200246013DC3B2AB42E9
:1030F00018DA234409211B7FDBB2013911F0FF01EB
:103100000DD082EA0306F60745BF83F01803C3F328
:1031100047035B0843F08003C2F34702EDE7013049
:103120001A46E3E725442B7F9A42D0D10320FFF7CC
:10313000F7FDCCE77811002010B5044605F0A6FF96
:103140000E4BD3F8CC21C3F8CC01821A41F288315E
:103150008A4284BF002283F8D02193F8D0210F2A1D
:1031600003EB0201E4B214BF0132012281F8D14124
:1031700014BF83F8D02183F8E12110BD781100201D
:1031800010B5044605F082FF0E4BD3F8E421C3F8D6
:10319000E401821A41F288318A4284BF002283F816
:1031A000E82193F8E821142A03EB020114BF01324D
:1031B000012281F8E94114BF83F8E82183F8FE2158
:1031C00010BD00BF7811002010B5044605F05EFF69
:1031D000254BD3F80022C3F80002821AB2F57A6FA9
:1031E00084BF002283F8042293F804224AB9A82C51
:1031F00038D183F80522A3F80622991881F80942EC
:1032000006E0022A02D183F80842F6E7242AF4D91C
:1032100093F8081201320231D2B249008A4283F88F
:10322000042216DAB3F80602E4B280EA0420082287
:1032300041F2210110F4004F02F1FF324FEA400049
:1032400018BF484012F0FF0280B2F3D1A3F8060283
:1032500010BD01318A4201BF002283F804220122FD
:1032600083F8052210BD00BF7811002010B5044678
:1032700005F00CFF0F4BD3F8302240F6AC51821A08
:103280008A42C4BF002283F8342293F8342299186A
:1032900081F835421AB90F2C0BD1C3F83002013234
:1032A000D2B2192A83F834220CBF0122002283F8FB
:1032B0004E2210BD78110020030F064BDA6A14BFAE
:1032C00022F4785222F4F872DA62DA6A1043D86291
:1032D000704700BF00100240A64B5A6802F00C0273
:1032E000042A2DE9F04100F0B580082A00F0B680EC
:1032F000A1490160002A40F0AF8059689F4FC1F397
:1033000003117E5C0168F6B221FA06F444605D6840
:10331000C5F3022517F805E024FA0EFEC0F808E010
:103320005D68C5F3C2257D5DEDB2EC40C460D3F8A5
:103330002C804FEA181808F00F0C07EB4C0C18F013
:10334000100FBCF810C01FFA8CFC00F09C80BCF180
:10335000000F00F09880B2FBFCFCC0F810C0D3F85E
:103360002CC04FEA5C2C0CF00F0807EB48071CF050
:10337000100F3F8ABFB200F08880002F00F08580D8
:10338000B2FBF7F747611F6BFF065ABF7A4F8761A1
:1033900081611F6BBF065ABF774FC761C1611F6B49
:1033A0007F065ABF744F076201621F6BFF056ED51F
:1033B0008A426CD1AE426AD1570047621F6BFF044C
:1033C00067D58A4265D1AE4263D1570087621F6BD1
:1033D000BF0560D58A425ED1AE425CD15700C7625C
:1033E0001F6B7F0559D58A4257D1AE4255D1570040
:1033F00047641F6B3F0552D58A4250D1AE424ED131
:10340000570087641F6BBF044BD58A4249D1AE4237
:1034100047D14A00C2641A6B920744D104631A6B05
:1034200012F4403F56D1C0F834E01A6B12F4402F2A
:103430006AD1C0F838E01A6B12F4401F7FD1C0F88F
:103440003CE01A6B12F4400F40F09C80C0F840E062
:10345000BDE8F081484A026000224EE75A68596888
:10346000C90349BFD96A4649434C01F00F01C2F371
:10347000834248BF013102F1020248BFB4FBF1F1BF
:103480004A43026039E7016169E741617BE74462D1
:1034900094E784629BE7C462A2E74464A9E784647A
:1034A000B0E78464B7E71A6B02F00302012A01D186
:1034B0000163B4E71A6B02F00302022A03D14FF44E
:1034C00000420263ABE71A6B02F00302032AA6D1A3
:1034D000294AF6E71A6B02F44032B2F5803F01D177
:1034E0004163A2E71A6B02F44032B2F5003F03D108
:1034F0004FF40042426398E71A6B02F44032B2F58F
:10350000403F92D11C4AF5E71A6B02F44022B2F513
:10351000802F01D181638EE71A6B02F44022B2F54D
:10352000002F03D14FF40042826384E71A6B02F448
:103530004022B2F5402F7FF47EAF0F4AF4E71A6BBA
:1035400002F44012B2F5801F01D1C16379E71A6B12
:1035500002F44012B2F5001F03D14FF40042C263DF
:103560006FE71A6B02F44012B2F5401F7FF469AFA7
:10357000014AF4E70010024000127A00FE00002029
:1035800000093D001A6B02F44002B2F5800F02D12F
:103590000164BDE8F0811A6B02F44002B2F5000F3D
:1035A00004D14FF400430364BDE8F0811B6B03F4C6
:1035B0004003B3F5400FF7D1004BF4E700127A0057
:1035C00038B52DED048B4A4C0368C4F8503283881B
:1035D000A4F85432023A0D46062A05D8DFE802F074
:1035E000545B6269747A8100B4F850320B80B4F88D
:1035F00052326B80B4F85432AB803E4B93F830308B
:10360000002B3ED1B5F9003094ED990AD4ED967AAD
:1036100009EE103AB5F9023008EE103AB8EEC88A51
:10362000B5F90430B8EEC99A28EE000A08EE903ACF
:10363000A7EE890AF8EEE88AD4ED9C7AA7EEA80AEC
:1036400018F092FB94ED9A0AD4ED977A288028EE30
:10365000000AA9EE270AD4ED9D7AA8EEA70A18F071
:1036600083FB94ED9B0AD4ED987A688028EE000ADB
:10367000A9EE270AD4ED9E7AA8EEA70A18F074FBEB
:10368000A880BDEC048B38BDB4F852320B80B4F87E
:1036900050325B42ADE7B4F850325B420B80B4F875
:1036A0005232F6E7B4F852325B420B80B4F8503233
:1036B0009FE7B4F850325B420B80B4F852326B8013
:1036C000B4F854325B4297E7B4F852320B80B4F846
:1036D0005032F4E7B4F850320B80B4F852325B4207
:1036E000EDE7B4F852325B420B80B4F85032F6E7A3
:1036F00078110020FE00002010B53B4CFFF7B6FB10
:1037000094F87C32032BB4F8C03128D10A2B1EDD8B
:103710000023282084F87C3205F0D4FCFFF7A6FBB8
:10372000B4F83401FFF7D8FA2268D37890FBF3F0AD
:1037300001300828A8BF0820537980B213FB00F39A
:10374000A4F87E32137913FB00F0A4F8800294F8F9
:103750007C32012B1CD00DD3022B35D010BD0A2B8F
:10376000F5DC032384F87C320023A4F87E32A4F82D
:103770008032ECE7B4F87E22B4F8C0319A4231DDF1
:10378000012384F87C320820BDE8104005F024BAFB
:10379000164A137823F002031370B4F8C021B4F86A
:1037A0008032934204DD022384F87C32072016E045
:1037B000B4F87E3201339A4210DD002384F87C3263
:1037C000BDE8104006F03ABDB4F88032B4F8C0212C
:1037D00001339A42EADD012384F87C32082005F0A7
:1037E000FBF9EDE710BD00BF78110020991B002008
:1037F0002DE9F0413D4CB4F88232322B054650D1D0
:103800003B4B1B681A88A4F884225A889B88A4F82A
:1038100088320388A4F88A324388A4F88622A4F860
:103820008C32334AD2F800E09046324A00231946DF
:1038300002F10C06B4F8820236F913C026F8131010
:10384000322808BF42F823109F00D0596044D0515D
:103850002EF813100133032BECD1B4F88232012B74
:1038600019D14FF0000284F8A222234A0C201370D1
:1038700005F0B2F9D8F80030B4F884221A80B4F810
:1038800086225A80B4F888229A80B4F88A322B8033
:10389000B4F88C326B80B4F88232013BA4F88232E7
:1038A00001E0002BBDD1154B1A78E2B10020187051
:1038B0000F4B1A68D4F89032322193FBF1F3138046
:1038C000D4F8943293FBF1F35380D4F8983293FBFD
:1038D000F1F30B4909885B1A938028806880BDE862
:1038E000F04102F0D1B9BDE8F08100BF78110020AD
:1038F000441C002008140020022000200320002087
:10390000160300202DE9F04F654B664D1A68664B93
:1039100089B042F20101186804930A4001900592AF
:10392000624B07D095F8A3221A70614A92F83210C0
:1039300082F831101E7826B15D4B93F8316086F025
:1039400001060F2385F8A4325A4B95F8A5821B78FF
:103950000093594B594F1B6802930323B8FBF3F3B1
:1039600003EB4303A8EB0303DBB25B00DFF85C91DE
:103970000693002407F1260BA7F2A62A07F16E0290
:10398000009B9C4215DB95F8A4320F2B4C4B69D160
:103990004C4A1268520165D4049AD96812689A6038
:1039A000521AC82A02D9012283F8212009B0BDE8A1
:1039B000F08F6300BEB137F914000299898A80B292
:1039C000814203D80299C98A814220D25BF824102F
:1039D0000198814209D939F803000599E9B929F814
:1039E00003000134CCE73046E7E7E0B207920393E7
:1039F00006F0A6FE032C039B079AEEDC95F8A4E2E2
:103A00000121A1402EEA010185F8A412E5E7019900
:103A100001F516714BF82410DFE706236343D11834
:103A200003939AF85CC3069B4FEA440EC852BCF15C
:103A3000000F06D1B8F1020F11D94FF001038AF837
:103A40005C33039BD05A4B8818448B8818441E4B18
:103A500000B223F80E00032390FBF3F080B229F8A4
:103A60000E00BEE7124A194D012182F8321082F889
:103A70003110049A99681268DA60521A59688A42B9
:103A800084BF002283F821200024009B9C428DDA11
:103A9000E0B206F055FE25F814000134F5E700BF4A
:103AA000401B002078110020B41C0020F61F0020CD
:103AB000FE00002004160020E41B00201E1400203D
:103AC000201C0020EC1F0020D6140020441B0020E6
:103AD00038B5294D2DED048BD5ED008ADFED279A01
:103AE00038EEA90A044601F0F8FEB0EE408AB0EEC6
:103AF000680A01F0F2FE95ED019AF0EE408A39EE87
:103B0000290A01F0EAFEF0EE409AB0EE490A01F00F
:103B1000E4FE94ED017A94ED006AD4ED027A68EE49
:103B2000870A60EE276A60EE800A27EEE80AE6EE72
:103B3000290AA7EE080AE6EE880A18F0BDF9DFEDBB
:103B4000107A9FED107A20EE270AC0EE077A9FEDDB
:103B50000E0A77EE807AB2EE040A87EE800A18F039
:103B600003F9BDEC048B03B2002BBCBF00F5B470AD
:103B700003B2184638BD00BFF0140020DB0FC93F68
:103B80000000E144DB0F4940000000002DE9F04F48
:103B900085B080460193944B1B889D0740F1F180CE
:103BA000924C0E9BDE89B4F900309B1B03F2F31597
:103BB00040F2E6308542254698BF83EAE374B5F9C2
:103BC0000200A0EB060098BFA4EBE37400F2F3152B
:103BD00040F2E63388BF4FF4FA749D4200F2CE8083
:103BE00080EAE073A3EBE073A342B8BF234605204D
:103BF000C3F5FA7393FBF0F30A20643B584398F83B
:103C00001C30DB104343642093FBF0F3034423EAAE
:103C1000E3735BB2764E774CF068009323689FEDB8
:103C2000767A1B1A07EE903AF8EE677A2368F3600B
:103C300067EE877A714BC6ED027A01F1040A06F14C
:103C400010090025022D1AF801EB4FEA450740F054
:103C50009A80B6F920400EF11B0E04FB0EF464119D
:103C600008EB050B0420D95F91FBF0F16448641A5E
:103C70009BF8011004FB01FE295C01FB0EF14FF0E3
:103C8000640E91FBFEF1C91100EE101A98F8511064
:103C900061B1043000EB8500B8EEC00A03930292D4
:103CA00005F08CFA039B029ABDEEC00A54495548B0
:103CB00011F805E05449D6ED027A09884C439BF887
:103CC0000B10E4124C430EFB04F1642491FBF4F45A
:103CD00050F825102144B1F5001F4C4CA8BF4FF4FB
:103CE0000011A142F5EEC07AB8BF2146F1EE10FAFC
:103CF00040F825104FEA613117DD0C30DC5FC05F02
:103D0000D9ED006A201A07EE900AF8EEE77AB1EED4
:103D1000087A77EEE67AB2EE046A67EE877A87EE83
:103D2000867A77EE267AC9ED007A3948DC5BC4538F
:103D30009BF81540F9EC017ADFED366A07EE104A80
:103D4000B8EEC77A063027EE277A07EE90EAF8EE4B
:103D5000E77A013567EE277A032D87EEA67ABDEE66
:103D6000C77A17EE104AA1EBA41110EE104A2144B5
:103D7000C1537FF467AF05B0BDE8F08F4FF4FA731D
:103D800035E7642346E7244931F915C051424FEA2B
:103D90004C00884203DB90420146A8BF11461F48F1
:103DA000C05F091A019830F9150008440E490988C6
:103DB000CC0713D40EF11B040CFB04F489074FEA63
:103DC00024147FF54DAF98F81210414300984143F9
:103DD000642091FBF0F104EB211441E798F80840CE
:103DE000444324113CE700BF9C1B0020441B0020DF
:103DF000F0140020B41C00206F12833A0C11002034
:103E00001415002024150020742000200000E0FF7D
:103E1000301500200000C8420C1500202A11002097
:103E20002DE9F04F2DED028B87B000250493B44BA4
:103E30000292B3F91C80B3F91E200391B8F1000F70
:103E4000B8BFC8F10008002AB8BF52429045B8BFB9
:103E50009046B8F5FA7F03F134030646A8BF4FF445
:103E6000FA78AB460095A9462C460193A54B1A88D3
:103E700012F003013AD0A44B33F91400029B400026
:103E80005B4298424FEA440703DB029B8342A8BF90
:103E900003469E483F5E0498DB1B30F914701F44B4
:103EA000337A64207B4393FBF0F3307F6FF0040997
:103EB00009FB00F94B4504DB00EB80099945A8BFDD
:103EC0009946934850F824303B4442F21077BB4265
:103ED000A8BF3B468F4FBB42B8BF3B4640F824309B
:103EE000B07C43431B130129009335D0864B33F933
:103EF00014B0894B33F9141081EAE173A3EBE17339
:103F0000B3F5206F00F3EA8030190BEB8B03407898
:103F10001B0193FBF0F3042091FBF0F15B1A019974
:103F2000019851F824100B44B3F57A5FA8BF4FF401
:103F30007A537A498B42ACBF40F8243040F82410C1
:103F4000774B311953F824507D2395FBF3F3CD7A49
:103F50005D43402395FBF3F5910740F1C480009841
:103F6000C8F5FA7308FB05F708FB0BF209FB0322FF
:103F70004FF4FA7100FB037392FBF1F293FBF1F73C
:103F8000654B684833F91430042193FBF1F1235C4D
:103F900013FB01F36FF04F0193FBF1F396F851100F
:103FA00013444FEA440A08EE103A41B12C38B8EEF7
:103FB000C80A00EB840005F001F9BDEEC08A5A4A38
:103FC000554B3AF902103AF903302AF8023004202E
:103FD00002EB000E02F10C0C591AA30091FBF0F158
:103FE00005935EF824005CF824304EF82410034456
:103FF0000B4496F850104CF8240000EE103A49B1EA
:1040000002F11400A3001844B8EEC00A05F0D6F877
:10401000BDEEC00A3A4A18EE103A02F178003B446D
:10402000005D1F4610EE103A02F146010134434391
:10403000022C4FF0200093FBF0F3A7EB03072AF8C4
:1040400001707FF413AF039B99790F314B00B2F9E4
:10405000201059434911304B0029B3F904304FF077
:10406000040093FBF0F3A1EB0303B8BF49423229EC
:1040700040DCD06B717B03FB01012C488142A8BF5F
:1040800001462B488142ACBFD163D063F1784B43EA
:104090002849097803294FEAA3130ADDB6F84E1020
:1040A000B1F5FA7F05DA4842834226DB8B42A8BF8E
:1040B0000B46D16B41F34F31B1F5807FA8BF4FF470
:1040C00080716FF0FF008142ACBF5B181B18A2F833
:1040D0004A3007B0BDEC028BBDE8F08F0199002398
:1040E00041F824302CE7D30759BF2F465A46009F8A
:1040F0004A4645E70021D163C8E70346D9E700BF38
:10410000F01400209C1B00200C1500202A11002018
:104110003C150020F0D8FFFF0C11002080C1FFFFEC
:10412000241500204415002048150020FEFFFF0F35
:10413000020000F0762000202DE9F04F2DED088BD5
:1041400087B00446039390F8503002910192002BFF
:1041500000F04881322BA8BF322307EE903ADFED02
:10416000BC6AF8EEE77A86EEA77ABA4BDFF83483BA
:104170001B88002B08BF012307EE903A9FEDB6AADB
:10418000B64BF8EEE78A1B8828EE8AAA13F0020FD6
:1041900037EE0A7ACAEE079A00F02781B8F91C3088
:1041A000B8F91E20002BB8BF5B42002AB8BF5242AC
:1041B0009342B8BF1346B3F5E17FA8BF4FF4E17354
:1041C00007EE903A9FEDA67AF8EEE77AC7EE87AA57
:1041D000A44EDFF8D4A2A6F1360306F1080B06F1CF
:1041E000100706F11C09002504939FED9F9AF0EE3D
:1041F00049BA022D00F05C813AF915C09B499FED48
:104200009CBA07EE90CAF8EEE77AB5EE047A6B0036
:1042100067EE877A059331F915309049FDEEE77A1C
:104220000888F8EEE77A00EE103A810727EE8BBA9D
:10423000B8EEC00A6AD070EE007A019BFDEEE77A14
:10424000594217EE90EA8E4503DB7345A8BF7346CB
:104250001946884B9FED886A6A00B1EE047A32F9FC
:1042600003E0039BA1EB0E0133F915E0237F06EE7B
:10427000903A237AF8EE666A714407EE901A66EE79
:10428000876A07EE103AF8EEE77AB8EE477A27EE3B
:10429000277A27EE067ABDEEC77A17EE101AB1EE2E
:1042A000667ABDEEC77A17EE10EA714506DBBDEE01
:1042B000E67A17EE10EA8E45A8BF8E4699ED009A71
:1042C000AAEE279A07EE10EAF8EEC7BABBEE0E7A0E
:1042D000B4EEC79AF1EE10FAF0EE497A00F1888058
:1042E000B3EE0E7AB4EE479AF1EE10FAC8BFF0EED4
:1042F000477AC9ED007AA37C09EE103AB8EE499AE4
:1043000029EE279ADFED5D7A29EE279AC20700F1A0
:104310009980BCF1000FB8BFCCF1000CBCF5206F48
:1043200004EB050167DD4FF0000EC7F800E0CB7A23
:10433000D7ED007A08EE103AB8EE488A830728EEE7
:10434000278ADFED4F7A28EE278A0FD530EE6B0AE9
:10435000F0EE6B7AEAEE807A38EE498AB0EE670AC0
:10436000F0EE497AEAEE887AB0EE678A4548DFEDEA
:10437000467A2B5C94F8511007EE103AB8EEC77AE3
:104380002BEE477AA7EE270A21B12C3800EB8500E7
:1043900004F014FFD6ED007A3C4BA6EC01BA7BEE9C
:1043A000677AEB5C87EE8A7A043709F10409DBED62
:1043B000007A37EE677A30EE080AE9EE877A07EE80
:1043C000103AB8EEC77AEBEC017A67EEC77A9FED48
:1043D000307AA7EE870A17F0C7FC6A00049B013504
:1043E000985206E79FED2B7ABFE6DFED1FAAEFE6B6
:1043F000F0EE477A7DE74B78DFED276A07EE903ADB
:1044000060EE266AF8EE677A86EEA77AD7ED007A34
:1044100037EE4B7AEAEE077A9FED207AF4EEC77A10
:10442000F1EE10FA0BD49FED1E7AF4EE477AF1EE1E
:1044300010FAC8BFF0EE477AC7ED007A77E7F0EEE2
:10444000477AF9E7B0EE498AB0EE6B0A8EE700BF13
:1044500083F9223E74200020BD3786359C1B002046
:104460000000E1436C150020000000000C15002046
:10447000CDCC4C402A1100206F12033C0AD7A33D3B
:104480000AD7233C44150020A69B443B6815002016
:10449000F7CC9238AF4C593C0000A043000040C319
:1044A00000004043F01400200C11002000803B4528
:1044B000FDEEE88A5FED037A94F853707D4D18EEB7
:1044C000903A23F0030308EE903A029BF8EEE88A54
:1044D0009A7988EEA79AB5EE000A002F7ED0B8F937
:1044E00020607549BAF9043086EAE677A7EBE677EB
:1044F0007A4392FBF1F2E17864324A43642192FB01
:10450000F1F207EE902AF8EEE78A07EE903AF8EE1D
:10451000E77A27EE800A17F027FC07EE900AF8EEFC
:10452000E77A9FED667A67EEA88A80EAE073C8EEC4
:10453000877AA3EBE073B3F5207F07EE106AB8EE3D
:10454000C70A30EE670A01DC642F1CDD0023EB6331
:1045500094F8511011B15A4804F030FE30EE080AB8
:10456000FDEEC07ACDED017ABDF9043000EE103ACF
:10457000B8EEC00A17F0F8FBA5F84A0007B0BDEC8A
:10458000088BBDE8F08F06EB8603E2781B0193FBF6
:10459000F2F31B1A07EE903AF8EEE77AD8F83C30BF
:1045A00067EE897AFDEEE77A17EE902A1A441346F1
:1045B000B2F57A5F434AA8BF4FF47A539342B8BF2B
:1045C0001346C8F83C307D2293FBF2F3627B5343E1
:1045D0009B1107EE903AB8EEE78AB9E7BAF90430D2
:1045E000B5F9206007EE903A5200F8EEE77A2832EB
:1045F000724327EE800A561117F0B6FB002EA6EB89
:10460000000007EE900AB8BF7642322EB8EEE77A85
:1046100036DDEF63EB6B5B13B3F5807FA8BF4FF420
:1046200080736FF0FF029342B8BF134607EE903AD3
:10463000B8EEE78AFDEEC77AE27817EE903A534378
:104640009B1100EE103A204B1B78032BB8EEC00AEA
:104650007FF77EAFB4F84E20B2F5FA7FBFF678AFA1
:10466000FDEEC07A534217EE901A994203DB8A425C
:104670001346A8BF0B4607EE903AB8EEE70A67E785
:10468000637BEA6B07EE903AF8EE677A67EE877A1B
:1046900067EE897AFDEEE77A17EE903A13440B4AFB
:1046A0009342A8BF13460A4A9342ACBFEB63EA6346
:1046B000B0E700BFF01400200CFEFFFF0000A04296
:1046C0002015002080C1FFFF76200020FEFFFF0F95
:1046D000020000F02DE9F04F2DED048BD24CD34FAA
:1046E000DFF88CB3D24DD34E8BB004F0CFFCD4F8AE
:1046F000A030D4ED297AC4F8A000C31A08EE103A0D
:104700003B681B78F8EE486A06EE103ACA4B0DF18A
:10471000040E002166EEA76AB3F800C004F1A800F9
:104720000A469846F146F7EE005A3BF9123007EE7A
:10473000903AF8EEE77A16EE103A67EEA67A4FEA6C
:10474000420AEEEC017A002B45D0F8EEC67A35F934
:10475000123090ED005A85EEA77A07EE903AF8EE07
:10476000E77A67EE877A35EEC77AE5EE077AC0ED2D
:10477000007AFDEEE77A17EE903A26F81230013211
:1047800036F90A30032A03FB03F300F1040093FB1C
:10479000FCF31944C9D1A94BA94864254D4395FBA5
:1047A000FCF51D60493D4946ADB201F057F93B2D7E
:1047B00014D9B4F9C030D4ED2F0A07EE903AF8EED0
:1047C000E77AA04BF4EEE70AF1EE10FA23DC1A7850
:1047D00022F0080222E035F81230CEE73B68984A12
:1047E00093ED017AF7EE007A37EE276A0023C7EEE1
:1047F000866A36F913100133032B07EE901A92EDF7
:10480000006AF8EEE77AE7EE067A67EEA67AE2EC5F
:10481000017AEED1CDE71A7842F0080294ED2E0A23
:104820001A7017F049FBF0EE409A84ED000A94EDFF
:104830002F0AD4ED2E7AD4ED2D8A20EE000AF1EE67
:10484000688AA7EEA70A17F0B5FBF0EE400AB0EEB3
:10485000680A17F031FBDFED7C8A84ED010AB0EEC7
:10486000409A29EEA80A17F07FFA29EE280AA4F840
:10487000C20017F079FA754BB4F8C2201A8000B262
:104880005880734BA4F8C4001B681A0740F1F280EB
:104890004946704801F0E2F83B686E4A93ED027AAF
:1048A0006D49F7EE007A37EE276A0023C7EE866A75
:1048B00031F913000133032B07EE900A92ED006AE1
:1048C000F8EEE77AE7EE067A67EEA67AE2EC017A8E
:1048D000EED16048FFF7FCF8604BD4ED007A188009
:1048E0005F4A5E4BB2F90C20B3F900309FED5D7A60
:1048F000F1EE677ACDED047AD4ED017A9B1AF1EEF0
:10490000677ACDED057A07EE903AF8EEE77AB6F9D8
:10491000003067EE877A04A9CDED067A07EE903A6B
:10492000B6F90230F8EEE77A07A8CDED077A07EE80
:10493000903AB6F90430F8EEE77ACDED087A07EE52
:10494000903AF8EEE77ACDED097A01F087F83B6806
:104950009DED097A5B78012B40F0B880424B1B78C3
:104960005B0715D4D4F8D42092B1D4F8D8300821FC
:1049700093FBF1F15B1A07EE903AF8EEE77A013A11
:1049800077EE877AC4F8D420FDEEE77AC4ED367A64
:10499000D4F8D830082293FBF2F307EE903AF8EE01
:1049A000E77A324D9DED070A37EE677A8DED097A89
:1049B00017F0DAF92B68197800F080FFD4F8DC30B2
:1049C0009DED080A1844C4F8DC0017F0CDF92B68F7
:1049D000197800F073FFD4F8E0309DED090A18440F
:1049E000C4F8E00017F0C0F92B68597800F066FFB2
:1049F000D4F8E43018EE102A1844D4F8E830C4F89B
:104A0000E4001344C4F8E830D4F8EC300133C4F8BF
:104A1000EC30D4F8F0300133C4F8F0300BB0BDEC1A
:104A2000048BBDE8F08F00BFF0140020681C00204C
:104A3000141400200611002016030020F01F00208F
:104A4000A4150020082000204C3D0F442A1100200E
:104A5000FC1F0020B8150020801B00200020002033
:104A60003401002035FA8E3C991B00206C1C00207C
:104A70000C110020174D4946284600F0EFFF95ED38
:104A8000010A95ED007AD5ED027A20EE000AA7EE34
:104A9000070AA7EEA70A17F08DFAB5EE400AF1EE65
:104AA00010FA11D095ED007AC7EE007A95ED017AF3
:104AB000C5ED007AC7EE007A95ED027AC5ED017A70
:104AC000C7EE007AC5ED027A024803E7B8F8003075
:104AD00063E700BF3401002001380A4B042804D8E2
:104AE000DFE800F006080A0C0E00074A1A6170475A
:104AF000064AFBE7064AF9E7064AF7E7064AF5E7FA
:104B0000064AF3E734010020AD9A00088D3B000807
:104B1000399D0008E9970008213E00083941000846
:104B200038B5054601F0F9F9012808D0054C0228EE
:104B300018BF0024284601F0BFF9A06138BD4FF02E
:104B40009044F7E70004004838B5054601F0E5F960
:104B5000012808D0054C022818BF0024284601F07F
:104B6000ABF9208538BD4FF09044F7E700040048CA
:104B700037B5044601F0D1F90546204601F09CF90D
:104B8000132C014621D80123144AA3401A40F2B93C
:104B9000134A13420CBF63234FF48023012D19D015
:104BA0001048022D18BF002001228DF80620022295
:104BB0008DF807200C4AADF8041051690B4353617E
:104BC00001A903F0B5F903B030BD6323E6E74FF464
:104BD0000033E3E74FF09040E6E700BF0C250C0000
:104BE000F0D2030000040048001002402DE9F34712
:104BF0004FF0000A88461646FF21012205469946D5
:104C00009DF828708DF807A005F08DFD52460446EA
:104C10005146284605F087FD52460443FF212846A9
:104C200005F081FD64B2044364B2B9F1000F06D00F
:104C30004246CB21284605F037FD044364B23FB11C
:104C40000DF10702EE21284605F02EFD044364B263
:104C50000122FF21284605F066FD012204430021C0
:104C6000284605F060FD64B204430022FF21284677
:104C700005F059FD64B29DF80730204323F010037E
:104C800040B2337002B0BDE8F08773B50646002528
:104C900001220B21304605F046FD002204460B217F
:104CA000304605F040FD0DF1070204431321304664
:104CB00005F0FAFC9DF8073064B2204301355B072C
:104CC00040B2EDB205D0032D08D00028E0D002B0EC
:104CD00070BD032D08BF6FF00B00F8E76FF00B00FD
:104CE000F5E7084B4FF47A72594301F5FA714FF426
:104CF000FA63B1FBF3F3B1FBF2F102FB0030B0FB5E
:104D0000F1F07047002F3A0073B590F8DA30013BAC
:104D1000022B054621D80DF106020E2105F0AEFC4E
:104D20000F4CBDF8066004EA4646A0B90DF1060234
:104D30000C21284605F0A2FCB6F57F0FBDF8063021
:104D400004D804EA4344B4F57F0F04D918B90549DF
:104D5000284603F033FD02B070BD0020FBE700BF22
:104D60000000FE1F48010020F0B54FF0FF33CF08D0
:104D7000136001F007014FEAC70E3D460026052DDE
:104D800000D806B1F0BD445DAF4203BF0C41E4B2B0
:104D90000B46334614F0010F06D07344136001260E
:104DA00001350EF1080EEAE70133082B4FEA5404EF
:104DB000F0D1F5E72DE9F04F87B00DF11808109DFF
:104DC00048F80C5D294F1C4681468A4693460026CA
:104DD0000123119A964221D10026129B1D60CEB963
:104DE0002146484603F09CFB064698B904AD2B4685
:104DF0000622B02199F85C0105F02AFB002808BFC3
:104E00006FF013060023E15CEA5C91422AD1013382
:104E1000062BF8D1304607B0BDE8F08F4246294650
:104E200058460193FFF7A0FF039A531C17D002F1D5
:104E3000B401890957F82110003118BF01215145EB
:104E40000DD1D108019B02F0070005299FBF03FA8D
:104E500000F5605C28436054551C0136B9E76FF0DB
:104E60003106BAE76FF03106D4E700BFF4CA010893
:104E700070B50F20FFF77CFE0F20FFF765FE0A20BC
:104E800004F020F90D20FFF773FE0D20FFF75CFE04
:104E90000A2004F017F90E20FFF76AFE0E20FFF734
:104EA00053FE1E2004F00EF94FF4B27011F0C2FA56
:104EB0004FF4B275204C2A460021064613F026F91D
:104EC0002846266111F0B6FA2A460021064613F05C
:104ED0001DF90D206661FFF723FE1E2004F0F2F895
:104EE0002069FCF77DFC1E2004F0ECF825692A22DD
:104EF0008A21281D05F017FC2A2385F860311E2021
:104F000004F0E0F80F20FFF70BFE1E2004F0DAF8A3
:104F10006069FCF765FC1E2004F0D4F864692B225C
:104F2000201D8A2105F0FFFB2B2384F860311E2011
:104F3000BDE8704004F0C6B8E41500200C4B10B575
:104F4000DB6802780B48DB43C3F302230121C3F182
:104F5000040301FA03F384181B01DBB284F8003365
:104F6000530902F01F0201FA02F240F8232010BD9B
:104F700000ED00E000E100E007B51C4B03F120026A
:104F8000DA6193F8482132B3012A0AD1032183F868
:104F90005015072183F8522583F851150C2283F808
:104FA0002020134B134AC3F8B821402003F084FD9E
:104FB00070B10122002390F9000040218DE80C001F
:104FC0004FF4E1330C4A03F019FD003018BF012003
:104FD00003B05DF804FB022183F85015032183F828
:104FE000522583F851150722D9E700BFE4150020A8
:104FF00048010020B92D00083931000873B5054675
:1050000001220021006801F033FF2A6813889BB257
:1050100043F001031380EB7A8DF80430012400265D
:1050200001A88DF805408DF806608DF80740FFF760
:1050300085FFEB7A1B2B0BD1192301A88DF80430C7
:105040008DF805408DF806608DF80740FFF776FF74
:1050500002B070BD0D4B03F1F402C3F85425C3F840
:10506000581500F1500302781AB98178C27891423C
:1050700009D304309842F6D10023054A83F0010396
:1050800082F8BC3170470123F7E700BFE415002028
:105090004801002070B5222200211248124E13F060
:1050A00035F80022114B052101241046042A03F192
:1050B00008030CD0955D03F8085C03F8041C03F8A2
:1050C000034C03F8010C03F8021C0132EEE7084B15
:1050D0000122A3F8A4210222A3F8AC21522283F8D2
:1050E000A02170BD8417002004CB01088617002082
:1050F000E415002010B500F0DCFA4FF4302401284C
:1051000006D10CB9052010BD00F0D3FA013CF6E73A
:10511000002C08BF052010BD00210120FCF7F2BFC4
:105120000B4AD2F85C3513F4805FB2F966350AD0C9
:10513000B2F84E21111A8B4208DD10448342B4BFED
:10514000002001207047B2F85001F7E701207047B6
:10515000E41500200F4AD2F884154B7982F888357F
:105160005843642390FBF3F03228A8BF32206FF03D
:1051700031039842B8BF1846A2F88A058B7E82F8A0
:105180008C35002082F88D35A2F88E05A2F89005A6
:10519000704700BFE41500202DE9F041444CD4F8DD
:1051A0009425F2B1D4F898359B1A424A934204F2FE
:1051B000A2564FF0000304F5B56542D804F29C50A6
:1051C00030F9132036F91370590097426F5EC8BF4B
:1051D00026F81320974203F10103B8BF6A52032B4C
:1051E000EED194F8B43553B3B4F89E05B4F8282141
:1051F000B4F8A035B4F82611801AB4F82E2112FBA9
:1052000000F210B2B4F82A219A1AB4F8303113FB24
:1052100002F3B4F89C25511AB4F82C2112FB01F2C8
:105220001BB20A2112B293FBF1F392FBF1F2A4F844
:10523000A035A4F89C2590FBF1F2A4F89E25BDE8CA
:10524000F08104F2AE57C4F8943504F5927C4FF027
:105250000208384636F913E035F913200EEB020147
:10526000A2EB0E0202EB820227F8132091FBF8F169
:105270000133032B2CF8021FECD1B4F9B025B4F99B
:10528000AE350D4E1344B4F9B2250A2113445943E7
:105290000022B518835E0232062A03EB430391FB1A
:1052A000F3F3A5F80831F4D100F0EEFC99E700BF64
:1052B000E41500207FC3C9010816002050B1013851
:1052C000002330F0FF019AB203F1010303D100EB98
:1052D000022080B270474008F3E7F0B5022985B09C
:1052E000064617461DD80DF10502002103F020FBEC
:1052F000044698B99DF805103846FFF7F2FC83B2D2
:10530000B3F5807F9ABF00F1FF32D2B2FF22A6F838
:10531000D8204621304605F006FA0446204605B05E
:10532000F0BD03291ED10DF10502002103F000FBA1
:105330009DF8051004463846FFF7D3FC80B2FFF70E
:10534000BDFF0246ADF80600A6F8D800002CE5D156
:105350005121304605F0D3F904460028DED1C6F8C5
:10536000E470DBE704293AD102A902F0E9F99DF8DB
:105370000B50C5B10DF105020021304603F0D8FAFB
:1053800004460028CAD10DF106025121304605F02D
:1053900075F904460028C1D1BDF80630DDB21B0AFC
:1053A0009D400135ADB20DF105020121304603F0FB
:1053B000BFFA04460028B1D19DF805103846FFF722
:1053C00090FC2844FFF77AFF71210246304605F031
:1053D00096F904460028A1D1C6F8DC709EE76FF06C
:1053E00003049BE7F0B585B0002402290746154663
:1053F0008DF80240ADF8064020D80DF10302214699
:1054000003F096FA28B90DF102024621384605F05C
:105410004BF99DF80320434B9DF80240534303F59D
:10542000FA734FF47A72B3FBF2F304FB033303F520
:10543000FA74B4FBF2F42C6005B0F0BD032928D156
:105440000DF10302214603F073FA0028F3D101465F
:105450000DF10302384603F06BFA28B90DF106028C
:105460005121384605F00AF9BDF806309DF80320B1
:10547000DCB21B0A9C400134A3B22A4C544304F50D
:10548000FA744FF47A72B4FBF2F45C4304F5FA74E4
:10549000CFE7042944D102A902F052F99DF80B305C
:1054A000002B39D00DF103022146384603F040FAB3
:1054B000A0BB0DF106025121384605F0DFF8BDF81A
:1054C0000630DCB21B0A9C400134A4B230BB0DF1A3
:1054D00003020121384603F02BFAF8B901AA712121
:1054E000384605F0CBF8BDF80420D3B2120A934039
:1054F00001339BB29DF803100A4A1C1B4A43A4B215
:105500004FF47A7102F5FA72B2FBF1F2544304F5EA
:10551000FA74B4FBF1F48EE71C46D8E70023E9E700
:10552000204688E7002F3A0073B500228321064603
:1055300005F0F9F8044680B944F620650DF107023C
:105540008321304605F0B0F89DF80730044623B9B2
:1055500018B9013DF2D16FF00604012283213046D3
:1055600005F0E1F8204340B202B070BD10B501462D
:105570004FF080428A4202D8002012B910BD920832
:10558000F8E78418A1424FEA500326BFD018091B40
:1055900018469208F1E737B5054644F6206495F8B9
:1055A000DA30042B0DF107020ED11321284605F045
:1055B0007BF89DF8073013F0180F03F0070219D19C
:1055C000042A14D103B030BD1421284605F06CF82C
:1055D0000028F7D19DF80730DB07F3D4013C03D056
:1055E0000A2003F06FFDDAE76FF00600EAE7002813
:1055F000F4D0E7E76FF00500E4E7042A30B51CD8E3
:1056000002EB4202046B52001F25954024EA050478
:1056100001FA02F222430263092939D90A3982695F
:10562000826901EB410107248C4022EA0402826175
:1056300082698B401343836130BD092A0CD806244C
:10564000053A6243456B1F24944025EA040401FA9D
:1056500002F222434263DFE70E2A4FF006040BD822
:105660000A3A6243856B1F24944025EA040401FA38
:1056700002F222438263CFE70F3A6243C56B1F24D5
:10568000944025EA040401FA02F22243C263C3E70C
:1056900001394269426901EB410138248C4022EA18
:1056A000040242614269033103FA01F1114341618D
:1056B00030BD094BDA68D10709D4DA68D20608D4BC
:1056C000DB6813F0040F14BF03200420704701208F
:1056D00070470220704700BF002002400023036093
:1056E000436083608381036143618361C3610362BB
:1056F0004362836270478B68026810B50C6A23436B
:105700000C6923434C6923438C692343CC692343AD
:105710004C6A23438C6A22F4FF4222F07002234336
:10572000134303608B8943600B6883604B68C360DD
:1057300010BD036823F001031B041B0C036000234E
:10574000036043608360C360284B984204D1284AB9
:10575000536843F00F0326E0264B984204D1244AB5
:10576000536843F0F0031EE0234B984204D1204AD3
:10577000536843F4706316E0204B984204D11C4AEE
:10578000536843F470430EE01D4B984204D1184A0D
:10579000536843F4702306E01A4B984205D1144A2B
:1057A000536843F4700353607047174B984204D119
:1057B0000F4A536843F07063F5E7144B984201D1E8
:1057C000134AC5E7134B984201D1114AC8E7124B5F
:1057D000984201D10E4ACBE7104B984201D10C4AB6
:1057E000CEE70F4B9842DFD1094AD1E708000240CB
:1057F000000002401C000240300002404400024011
:10580000580002406C000240800002400804024040
:10581000000402401C0402403004024044040240E0
:10582000580402402DE9F04100230F681D464FF057
:10583000010E03260EFA05FC3CEA070232D10C7970
:10584000621E012A19D8826806FA03F822EA0802C1
:1058500082604A79D0F808809A4042EA0802826061
:10586000828892B222EA0C0282808A79B0F804C05F
:10587000AA4042EA0C0292B28280D0F800C006FA36
:1058800003F2D24302EA0C0CC0F800C0D0F800C00A
:105890009C4044EA0C040460C4681440CA799A40ED
:1058A0002243C2600135102D03F10203C2D1BDE8CD
:1058B000F08103681B6818470020FAE780EAE0736C
:1058C000A3EBE0738B4206DB002801DD401A704732
:1058D00002D00844704700207047FDEEC07A17EEF2
:1058E000903A2033402B43D89FED237ADFED237A83
:1058F000B4EEC70AF1EE10FA0BDC9FED217ADFED72
:105900001F7AB4EEC70AF1EE10FA05D530EE270A79
:10591000F7E730EE670AEBE7DFED1A7AB4EEE70A55
:10592000F1EE10FA18DD30EE670A37EEC00A60EECD
:10593000007ADFED156A9FED157AA7EEA67ADFED06
:10594000146AE7EE876A9FED137AA7EEA67A20EE37
:10595000276AA6EE070A70479FED0F7AB4EEC70AD2
:10596000F1EE10FA44BF30EE270A37EE400ADEE7C8
:105970009FED0A0A704700BFDB0F4940DB0FC940AB
:10598000DB0F49C0DB0FC93F9A7C2E36FAAF4FB907
:105990003587083CA4AA2ABEDB0FC9BF000000005F
:1059A000D0ED005ADFED2C4A08B535EEA40AFFF71A
:1059B00094FFF0EE403AB0EE650AFFF78EFF90EDEF
:1059C000014AB0EE405A34EE240AFFF786FFF0EEAB
:1059D000405AB0EE440AFFF780FF90ED023AB0EE75
:1059E000404A33EE240AFFF778FFF0EE404AB0EE6B
:1059F000430AFFF772FF65EE247A24EEA36A60EE95
:105A0000236A64EEA54A25EE007AC1ED004AF0EE65
:105A1000664AE4EE274AB0EE463AC1ED034AF1EE9B
:105A2000444AA4EE873AE4EE267AA4EE867A25EE7E
:105A3000C00A25EE655A65EEA35A81ED010A81ED93
:105A4000024A81ED043A81ED055A81ED067AC1EDF5
:105A5000077AC1ED085A08BDDB0FC93F00B58BB00E
:105A60000246084601A9D2ED001AD2ED012A92EDB4
:105A7000022AFFF795FFDDED047A9DED017A62EED3
:105A8000A77AE7EE217A9DED077AE7EE027A9DED9F
:105A9000027AC2ED007ADDED057A62EEA77AE7EED2
:105AA000217A9DED087AE7EE027AC2ED017ADDED0A
:105AB000067A62EEA72ADDED037AE7EEA12ADDED94
:105AC000097AE7EE822AC2ED022A0BB05DF804FBE8
:105AD000044A012303FA00F0138823EA000010802F
:105AE000704700BFF41F0020034A012303FA00F0AF
:105AF0001388184310807047F41F002010B5064C1F
:105B0000228822EA00008242208002D0012003F095
